:1000000036C100000C94430A0C94180A0C94ED09B4
:100010000C94C2090C9497090C946C090C94410936
:100020000C94160955C1000053C1000051C10000D5
:100030004FC100004DC100004BC1000049C100008C
:1000400047C1000045C1000043C1000041C100009C
:100050003FC100003DC100003BC100000C94CC0832
:1000600037C1000035C1000033C1000031C10000BC
:100070002FC100002DC100002BC1000029C10000CC
:1000800027C1000025C1000023C1000021C10000DC
:100090001FC100001DC100001BC1000019C10000EC
:1000A00017C1000015C1000013C1000011C10000FC
:1000B0000FC100000DC100000BC1000009C100000C
:1000C00007C1000005C1000003C1000001C100001C
:1000D000FFC00000FDC000000C949608FEC70000A1
:1000E000F7C0000007634236B79BD8A71A39685695
:1000F00018AEBAAB558C1D3CB7CC5763BD6DEDFD4A
:10010000753EF6177231BF000000803F0800000006
:10011000BE922449123EABAAAA2ABECDCCCC4C3EFC
:1001200000000080BEABAAAAAA3E00000000BF00EB
:100130000000803F0000000000084178D3BB4387E7
:10014000D1133D190E3CC3BD4282AD2B3E68EC82FB
:1001500076BED98FE1A93E4C80EFFFBE01C4FF7F80
:100160003F000000000000002100240027002A00BA
:100170002D003000330001010000040107010A01D5
:1001800000002200250028002B002E003100340042
:1001900002010000050108010B0105050505070521
:1001A00008080808020202020A0A080804040404F3
:1001B000010101010101010103030303030303031F
:1001C000040707070C0C0C0C0C0C0C0C02020202AE
:1001D00006060606060606060B0B0B0B0B0B0B0B97
:1001E0000102102020080810204010204080020149
:1001F000020108040201010204081020408080402E
:10020000201008040201800402018040201008042C
:1002100002010804020101020408102040800102CA
:1002200004081020408000000A0B02090C0D0E0883
:1002300007030401000000000000000000000000AF
:1002400000000000000000000000000000000000AE
:10025000000012111000000000000000000000006B
:100260000000000000000000000000006E0A1124E1
:100270001FBECFEFD1E2DEBFCDBF00E00CBF12E06A
:10028000A0E0B2E0E2EEF2E200E00BBF02C00790B5
:100290000D92AE37B107D9F723E0AEE7B2E001C067
:1002A0001D92A235B207E1F711E0C7E3D1E000E00B
:1002B00006C021970109802FFE010E943E10C6331F
:1002C000D10780E00807A9F70E94F40A0C946F1187
:1002D00097CE4091990250919A0260919B02709141
:1002E0009C028091950290919602A0919702B09104
:1002F000980284179507A607B707B8F48FEF809385
:1003000086028091990290919A02A0919B02B091ED
:100310009C020196A11DB11D8093990290939A02AF
:10032000A0939B02B0939C02089581E0E8CF809156
:10033000950290919602A0919702B0919802019631
:10034000A11DB11D8093950290939602A0939702F0
:10035000B0939802089540919D0250919E02609141
:100360009F027091A0028091910290919202A091BF
:100370009302B091940284179507A607B707B8F4C3
:100380008FEF8093870280919D0290919E02A091B1
:100390009F02B091A0020196A11DB11D80939D0204
:1003A00090939E02A0939F02B093A002089581E0D3
:1003B000E8CF8091910290919202A0919302B09126
:1003C00094020196A11DB11D809391029093920217
:1003D000A0939302B09394020895AF92BF92CF92EC
:1003E000DF92EF92FF920F931F93CF93DF936C01F5
:1003F0007B018B01040F151FEB015E01AE18BF08D6
:10040000C017D10759F06991D601ED91FC91019087
:10041000F081E02DC6011995892B79F7C501DF918F
:10042000CF911F910F91FF90EF90DF90CF90BF90F1
:10043000AF900895FC01538D448D252F30E0842F1B
:1004400090E0821B930B541710F0CF9608950197FC
:100450000895FC01918D828D981761F0A28DAE0FE9
:10046000BF2FB11D5D968C91928D9F5F9F73928F70
:1004700090E008958FEF9FEF0895FC01918D828D9C
:10048000981731F0828DE80FF11D858D90E0089569
:100490008FEF9FEF0895FC01918D228D892F90E0C1
:1004A000805C9F4F821B91098F739927089583EA7F
:1004B00092E0F1DF21E0892B09F420E0822F0895FA
:1004C000FC01A48DA80FB92FB11DA35ABF4F2C91C9
:1004D000848D90E001968F739927848FA689B789C0
:1004E0002C93A089B1898C91837080648C93938DB7
:1004F000848D981306C00288F389E02D80818F7D5A
:1005000080830895EF92FF920F931F93CF93DF9311
:10051000EC0181E0888F9B8D8C8D98131AC0E8893F
:10052000F989808185FF15C09FB7F894EE89FF890E
:100530006083E889F98980818370806480839FBFAC
:1005400081E090E0DF91CF911F910F91FF90EF90AC
:100550000895F62E0B8D10E00F5F1F4F0F731127BC
:10056000E02E8C8D8E110BC00FB607FCFACFE889F8
:10057000F989808185FFF5CFCE01A2DFF2CFEB8D27
:10058000EC0FFD2FF11DE35AFF4FF0829FB7F89457
:100590000B8FEA89FB8980818062D0CFCF93DF9374
:1005A000EC01888D8823B1F0AA89BB89E889F98993
:1005B0008C9185FD03C0808186FD0CC00FB607FCC1
:1005C000F7CF8C9185FFF2CF808185FFEDCFCE01F3
:1005D00077DFEACFDF91CF91089580E090E0892B1B
:1005E00049F080E090E0892B29F00E940000811101
:1005F0000E94000080E090E0892B49F080E090E0CC
:10060000892B29F00E94000081110E94000080E0E7
:1006100090E0892B49F080E090E0892B29F00E943E
:10062000000081110E94000080E090E0892B21F001
:100630003EDF81110C9400000895282F30E0F9016D
:10064000EA5DFD4F9491F901E052FE4F4491265628
:100650003E4FF9012491222309F435C0992311F169
:1006600091509231F8F4E92FF0E08827E55CFC4FD7
:100670008F4F0C943E106C0370034D0364036803AA
:100680005203730379037D03830387038B03910371
:100690009503520399039F03A303809180008F77F2
:1006A00080938000E22FF0E0EE0FFF1FE058FE4F36
:1006B000A591B4918FB7F894EC91611148C0409521
:1006C0004E234C938FBF0895809180008F7DE8CF9B
:1006D00080918000877FE4CF84B58F7784BDE2CF9F
:1006E00084B58F7DFBCF8091B0008F778093B00071
:1006F000D9CF8091B0008F7DF9CF809190008F7716
:1007000080939000CFCF809190008F7DF9CF809122
:100710009000877FF5CF8091A0008F778093A00015
:10072000C1CF8091A0008F7DF9CF8091A000877FFD
:10073000F5CF809120018F7780932001B3CF8091F6
:1007400020018F7DF9CF80912001877FF5CF4E2B3F
:10075000B8CFCF93DF9390E0FC01E052FE4F24919D
:1007600086569E4FFC0184918823D1F090E0880F3B
:10077000991FFC01EA59FE4FA591B491FC01E05884
:10078000FE4FC591D491623071F49FB7F8943C91BB
:10079000822F809583238C93E8812E2B28839FBF03
:1007A000DF91CF9108958FB7F894EC912E2B2C9375
:1007B0008FBFF6CF3FB7F89480918D0290918E0253
:1007C000A0918F02B091900226B5A89B05C02F3F43
:1007D00019F00196A11DB11D3FBFBA2FA92F982F67
:1007E0008827BC01CD01620F711D811D911D42E062
:1007F000660F771F881F991F4A95D1F708958F922A
:100800009F92AF92BF92CF92DF92EF92FF924B01F5
:100810005C01D0DF6B017C01CDDF6C197D098E0995
:100820009F09683E734081059105B0F321E0821A6B
:100830009108A108B10888EEC80E83E0D81EE11C1B
:10084000F11C81149104A104B10431F7FF90EF90E1
:10085000DF90CF90BF90AF909F908F9008950895B4
:10086000CF92DF92EF92FF92CF93DF93EC016A0178
:100870007B01F89461E08881E0DE20E030E04AEF1F
:1008800053ECC701B6010E94500E20E030E049EB66
:1008900054E40E94990C0E94690D6230710548F081
:1008A000660F771F660F771F65507109CB0101979F
:1008B000F1F760E08881C1DE7894DF91CF91FF90FD
:1008C000EF90DF90CF900895CF93DF93EC0161E03C
:1008D00088813FDF60E08881B0DE40E050E0BA010F
:1008E000CE01BEDF60E08881A8DE19821A821B82F9
:1008F0001C82DF91CF910895CF92DF92EF92FF9209
:1009000069017A0160934A0370934B0380934C030F
:1009100090934D03AB01BC0189E493E0A1DFC09249
:100920004503D0924603E0924703F0924803B70193
:10093000A60184E493E0FF90EF90DF90CF9090CFFA
:10094000FC0111861086138212821582148211A274
:1009500010A280E197E2978F868F08950895FC0199
:1009600001900020E9F73197AF01481B590BBC01FA
:1009700083EA92E032CD8F929F92AF92BF920F9313
:100980001F93CF93DF93CDB7DEB7A1970FB6F8943F
:10099000DEBF0FBECDBF19A2423008F44AE08E017F
:1009A0000F5D1F4F842E912CB12CA12CA501940119
:1009B0000E941C10E62FB901CA01EA30ECF4E05D98
:1009C000D801EE938D01232B242B252B79F790E072
:1009D00080E0109711F0CD01C2DFA1960FB6F89418
:1009E000DEBF0FBECDBFDF91CF911F910F91BF90A2
:1009F000AF909F908F900895E95CE2CFCF93DF9303
:100A0000AEDFEC0189E392E0AADF8C0F9D1FDF913E
:100A1000CF9108958CE392E0F1CF4F925F926F9265
:100A20007F928F929F92AF92BF92CF92DF92EF927E
:100A3000FF920F931F93CF936B017C01742EAC0137
:100A40009B010E94FF0E882391F08DE492E0CF91EC
:100A50001F910F91FF90EF90DF90CF90BF90AF90DC
:100A60009F908F907F906F905F904F9078CF4601CE
:100A70005701E894B7F82FEF3FEF4FE75FE7C50165
:100A8000B4010E94FF0E81110CC02FEF3FEF4FE722
:100A90005FE7C501B401B1D718161CF481E592E0F7
:100AA000D6CF2FEF3FEF4FE75FE4C701B6010E94BB
:100AB0004C0E18161CF485E592E0C9CF2FEF3FEFDE
:100AC0004FE75FECC701B60198D787FDF4CF20E070
:100AD00030E0A901C701B60190D710E000E087FF20
:100AE00009C06DE283EA92E00DDD8C01F7FAF09423
:100AF000F7F8F094C0E060E070E080E09FE37C16DF
:100B000039F020E030E040E251E47BD7CF5FF7CF0F
:100B1000A70196010ED72B013C01E0D74B015C01E8
:100B20004AE029DF7C01E00EF11ECC2391F1C501E2
:100B3000B4010E949A0D9B01AC01C301B201F8D629
:100B40004B015C016EE283EA92E0DCDCE80EF91E08
:100B5000C150F8F020E030E040E251E4C501B401BA
:100B60000E94500E2B013C01B9D74B01B12CA12C96
:100B70004AE0C501B401FFDEE80EF91EC501B4016B
:100B8000D9D79B01AC01C301B201D2D64B015C01A4
:100B9000DFCFC701CF911F910F91FF90EF90DF90B2
:100BA000CF90BF90AF909F908F907F906F905F900D
:100BB0004F900895CF92DF92EF92FF92CF93DF9301
:100BC0006C01990FEE08FF08F7FE17C06DE283EA8B
:100BD00092E098DCEC0166277727CB016C197D0940
:100BE0008E099F094AE0C7DE8C0F9D1FDF91CF91D0
:100BF000FF90EF90DF90CF9008954AE0C701B601D3
:100C0000DF91CF91FF90EF90DF90CF90B4CE0E9414
:100C10006B112F923F924F925F926F927F928F92C1
:100C20009F92AF92BF92CF92DF92EF92FF920F937B
:100C30001F93CF93DF93CDB7DEB72C970FB6F89401
:100C4000DEBF0FBECDBF9C878B87DC0118960D9051
:100C5000BC91A02DBA83A9831097D9F0119729F1DF
:100C60002C960FB6F894DEBF0FBECDBFDF91CF91AB
:100C70001F910F91FF90EF90DF90CF90BF90AF90BA
:100C80009F908F907F906F905F904F903F902F90AC
:100C9000089589E592E0B2DE81E090E0EB85FC8585
:100CA0009187808711A210A2DBCFAB85BC851296FD
:100CB0000D90BC91A02DB887AF83EB85FC85A680F5
:100CC000B780228D338D3A872987AA15BB052CF46E
:100CD00004811581A016B10664F520E030E0A90179
:100CE000CA01B901E985FA85199582E090E0AB85E2
:100CF000BC8519969C938E9318975C96ED91FC9108
:100D00002C960FB6F894DEBF0FBECDBFDF91CF910A
:100D10001F910F91FF90EF90DF90CF90BF90AF9019
:100D20009F908F907F906F905F904F903F902F900B
:100D30001994EB85FC8560A171A1072E000C880B2E
:100D4000990BFAD62AE037ED43E25CE3A9D7562E99
:100D5000672E782E492EAB85BC851E96CC901E97AB
:100D60001F96DC901F975096EC9050975196FC90F0
:100D70009601A70142D687FD04C05C2C6D2C7E2C09
:100D80004F2C6F817885600F711F072E000C880B28
:100D9000990BD2D620E030E040E05FE381D76B01D1
:100DA0007C01B5010B2C000C880B990BC5D623E3F5
:100DB00033E343E75FE374D7362E272E8D839E837C
:100DC000B5016431710514F464E170E06451710996
:100DD000072E000C880B990BAFD65B014C019B01D1
:100DE000AC01632D722D8D819E8107D687FD04C0D5
:100DF0003A2C2B2C8D829E82A7019601632D722D99
:100E00008D819E81FAD587FF38C02DEC3CEC4CECEF
:100E10005EE3652D762D872D942D3ED718166CF543
:100E2000232D322D4D815E81C701B60181D52DEC78
:100E30003CEC4CE45EEB34D79B01AC0160E070E02D
:100E400080E090E490D79B01AC01652D762D872D35
:100E5000942D26D7562E672E782E492E2DEC3CEC5D
:100E60004CEC5EE319D7181644F08DEC582E9CEC30
:100E7000692E2CEC722E3EE3432EEB85FC8582849A
:100E80009384A484B5842F813885B901330F880BEE
:100E9000990B52D6A501940103D76B017C01B801CF
:100EA000110F880B990B48D69B01AC01C701B60105
:100EB0003FD50FD69B01AB014D5E5F4F84E190E0C3
:100EC0004732510540F4AB0137FF04C04427552792
:100ED000461B570BCA0137FF04C0AFEFBFEFBA8301
:100EE000A983E981FA818E9F80018F9F100D9E9FBB
:100EF000100D1124AB85BC855E966D917C91072EFB
:100F0000000C880B990B18D620E030E44CE156E435
:100F1000C3D687FD04C0EB85FC85178F068FAB8594
:100F2000BC855E968D919C91B801681B790B072E4C
:100F3000000C880B990B00D6EB85FC8526A137A108
:100F400040A551A5ADD66B017C01B801012E000C66
:100F5000880B990BF1D5AB85BC8592962D913D916F
:100F60004D915C9195979CD69B01AC01C701B60150
:100F7000E0D46B017C0120E030E040E85FE3C50194
:100F8000B401D7D49B01AC01652D762D872D942D0E
:100F900038D54B015C01AC019B01652D762D872D69
:100FA000942DC6D42B013C01A701960160E070E0AE
:100FB00080E89FE3BDD4A501940172D64B015C018A
:100FC00020E030E040E85FE3C701B601B2D4A301FE
:100FD000920166D66B017C01EB85FC8526893789F9
:100FE000408D518D5DD62B013C01AB85BC85529661
:100FF0002D913D914D915C915597C501B40150D60D
:10100000A3019201E985FA851995AB85BC851496F3
:101010006D917C91072E000C880B990B8DD5EB857B
:10102000FC8526893789408D518D3AD652D5698302
:101030007A838B839C83AB85BC8512966D917C9162
:10104000072E000C880B990B77D5EB85FC85228940
:1010500033894489558924D63CD52B01AB85BC8581
:1010600090968D919C91A6DD8DE692E078DC20E053
:1010700030E048EC52E4C501B40112D642E0CDDCC8
:101080008DE692E06CDC20E030E048EC52E4C701F1
:10109000B60106D642E0C1DC8DE692E060DCC2011A
:1010A00089DD8DE692E05BDC89819A8183DD8DE6C6
:1010B00092E055DC42E0632D722D8D819E81ADDC86
:1010C00089E392E04CDCEB85FC85178F068F80A1CD
:1010D00091A1019691A380A3C3CD1F920F920FB649
:1010E0000F9211240BB60F922F933F934F935F9360
:1010F0006F937F938F939F93AF93BF93EF93FF93E0
:1011000083EA92E0DDD9FF91EF91BF91AF919F917A
:101110008F917F916F915F914F913F912F910F90A0
:101120000BBE0F900FBE0F901F9018951F920F923D
:101130000FB60F9211240BB60F922F938F939F939C
:10114000EF93FF93E091B302F091B4028081E091BC
:10115000B902F091BA0282FD1DC090818091BC025B
:101160008F5F8F732091BD02821741F0E091BC0226
:10117000F0E0ED55FD4F958F8093BC02FF91EF910C
:101180009F918F912F910F900BBE0F900FBE0F90DC
:101190001F9018958081F2CF1F920F920FB60F9279
:1011A00011242F933F938F939F93AF93BF9380917D
:1011B000890290918A02A0918B02B0918C023091A9
:1011C000880223E0230F2D3758F50196A11DB11D8C
:1011D000209388028093890290938A02A0938B02C5
:1011E000B0938C0280918D0290918E02A0918F021B
:1011F000B09190020196A11DB11D80938D02909334
:101200008E02A0938F02B0939002BF91AF919F91F5
:101210008F913F912F910F900FBE0F901F901895B7
:1012200026E8230F0296A11DB11DD2CF1F920F9267
:101230000FB60F9211240BB60F922F933F934F933B
:101240005F936F937F938F939F93AF93BF93EF932E
:10125000FF93E0910E02F0910F021995FF91EF912B
:10126000BF91AF919F918F917F916F915F914F91BE
:101270003F912F910F900BBE0F900FBE0F901F90BC
:1012800018951F920F920FB60F9211240BB60F9262
:101290002F933F934F935F936F937F938F939F937E
:1012A000AF93BF93EF93FF93E0910C02F0910D0287
:1012B0001995FF91EF91BF91AF919F918F917F9180
:1012C0006F915F914F913F912F910F900BBE0F90B7
:1012D0000FBE0F901F9018951F920F920FB60F928E
:1012E00011240BB60F922F933F934F935F936F93FD
:1012F0007F938F939F93AF93BF93EF93FF93E0916F
:101300000202F09103021995FF91EF91BF91AF9105
:101310009F918F917F916F915F914F913F912F910D
:101320000F900BBE0F900FBE0F901F9018951F923D
:101330000F920FB60F9211240BB60F922F933F937B
:101340004F935F936F937F938F939F93AF93BF93CD
:10135000EF93FF93E0910002F09101021995FF9144
:10136000EF91BF91AF919F918F917F916F915F911D
:101370004F913F912F910F900BBE0F900FBE0F908A
:101380001F9018951F920F920FB60F9211240BB653
:101390000F922F933F934F935F936F937F938F930E
:1013A0009F93AF93BF93EF93FF93E0910A02F09165
:1013B0000B021995FF91EF91BF91AF919F918F9182
:1013C0007F916F915F914F913F912F910F900BBE45
:1013D0000F900FBE0F901F9018951F920F920FB68F
:1013E0000F9211240BB60F922F933F934F935F935D
:1013F0006F937F938F939F93AF93BF93EF93FF93DD
:10140000E0910802F09109021995FF91EF91BF91C7
:10141000AF919F918F917F916F915F914F913F918C
:101420002F910F900BBE0F900FBE0F901F9018952D
:101430001F920F920FB60F9211240BB60F922F939B
:101440003F934F935F936F937F938F939F93AF934C
:10145000BF93EF93FF93E0910602F0910702199575
:10146000FF91EF91BF91AF919F918F917F916F917C
:101470005F914F913F912F910F900BBE0F900FBE38
:101480000F901F9018951F920F920FB60F92112474
:101490000BB60F922F933F934F935F936F937F936E
:1014A0008F939F93AF93BF93EF93FF93E0910402C9
:1014B000F09105021995FF91EF91BF91AF919F9126
:1014C0008F917F916F915F914F913F912F910F90ED
:1014D0000BBE0F900FBE0F901F901895E3EAF2E03D
:1014E0001382128288EE93E0A0E0B0E084839583BB
:1014F000A683B7838BE192E09183808385E391E0BB
:101500009587848784E391E09787868780E391E0DD
:10151000918B808B81E391E0938B828B82E391E0CE
:10152000958B848B86E391E0978B868B118E128E40
:10153000138E148EE9E4F3E080E090E0A8ECB2ECC6
:1015400081839283A383B48327E12083E4E4F3E0DF
:1015500081839283A383B48386E1808380E290E0D9
:1015600095D5FC0180E2DF011D928A95E9F7128A88
:10157000138A148A158A168A178A108E118E85E3AB
:1015800092E091838083F0934303E09342038AE2E5
:1015900090E07CD5FC01128A138A148A158A168A77
:1015A000178A108E118E8DE292E0918380838DECEC
:1015B0009CECACE4BDE382A393A3A4A3B5A38AE00F
:1015C00097EDA3E2BCE386A397A3A0A7B1A78CE7FE
:1015D00094E0938F828F8AE095E0958F848FF093CB
:1015E0004103E09340030895789484B5826084BDFC
:1015F00084B5816084BD85B5826085BD85B5816017
:1016000085BD80916E00816080936E001092810094
:10161000809181008260809381008091810081604F
:101620008093810080918000816080938000809110
:10163000B10084608093B1008091B000816080939C
:10164000B000809191008260809391008091910020
:1016500081608093910080919000816080939000E0
:101660008091A10082608093A1008091A10081609F
:101670008093A1008091A00081608093A000809160
:1016800021018260809321018091210181608093FA
:1016900021018091200181608093200180917A0056
:1016A000846080937A0080917A00826080937A00CF
:1016B00080917A00816080937A0080917A008068BE
:1016C00080937A001092C100E091B302F091B402CD
:1016D00082E08083E091AF02F091B0021082E0914D
:1016E000B102F091B2028FEC80831092BB02E091C4
:1016F000B702F091B80286E08083E091B502F091E4
:10170000B602808180618083E091B502F091B602DB
:10171000808188608083E091B502F091B60280817B
:1017200080688083E091B502F091B60280818F7D60
:1017300080838FE692E062D989E493E0C5D884E49F
:1017400093E0C2D862E082E104D862E083E101D88C
:1017500062E084E10E94A90362E085E10E94A9039E
:1017600089E691E090930B0280930A0280916900D0
:10177000806C80936900EB9A87E991E0909309026D
:101780008093080280916900806380936900EA9ADF
:101790008BEA91E0909307028093060280916900A2
:1017A0008C6080936900E99A89ED91E0909305023D
:1017B0008093040280916900836080936900E89AB5
:1017C0006AE070E080E090E01AD810924A0310922C
:1017D0004B0310924C0310924D0340E050E0BA01CD
:1017E00089E493E03DD8109245031092460310928D
:1017F00047031092480340E050E0BA0184E493E0CC
:101800002FD86AE070E080E090E00E94FF038091B2
:101810004203909143039093A2028093A102C0EDF2
:10182000D7E0C12CD12C80E8E82E8FE3F82E9DEC78
:10183000892E9CEC992E9CE4A92E9FE3B92E8091D1
:101840001002882309F447C080914003909141031E
:101850009093A2028093A102DC01ED91FC91019092
:10186000F081E02D1995E091A102F091A202D783B9
:10187000C683C286D386E486F58686869786A08A46
:10188000B18AC28AD38AE48AF58AC68AD78AE08E68
:10189000F18E109210021092990210929A021092F8
:1018A0009B0210929C021092950210929602109246
:1018B00097021092980210929D0210929E0210922E
:1018C0009F021092A0021092910210929202109226
:1018D000930210929402A091A102B091A2024091B1
:1018E0009D0250919E0260919F027091A002009112
:1018F000990210919A0220919B0230919C021396BA
:101900001C930E93129715965C934E931497ED913A
:10191000FC9111970280F381E02DCD01199564E1CE
:1019200070E080E090E00E94FF030E94ED0287CF0C
:101930005058BB27AA270ED075C166D130F06BD1A5
:1019400020F031F49F3F11F41EF45BC10EF4E095DA
:10195000E7FB51C1E92F77D180F3BA17620773070C
:101960008407950718F071F49EF58FC10EF4E09589
:101970000B2EBA2FA02D0B01B90190010C01CA0149
:10198000A0011124FF27591B99F0593F50F4503EF4
:1019900068F11A16F040A22F232F342F4427585FE6
:1019A000F3CF469537952795A795F0405395C9F7FE
:1019B0007EF41F16BA0B620B730B840BBAF09150B6
:1019C000A1F0FF0FBB1F661F771F881FC2F70EC055
:1019D000BA0F621F731F841F48F487957795679528
:1019E000B795F7959E3F08F0B3CF9395880F08F011
:1019F0009927EE0F979587950895D9D008F481E03F
:101A000008950CD00FC107D140F0FED030F021F482
:101A10005F3F19F0F0C0511139C1F3C014D198F3F0
:101A20009923C9F35523B1F3951B550BBB27AA275F
:101A300062177307840738F09F5F5F4F220F331FD1
:101A4000441FAA1FA9F333D00E2E3AF0E0E830D09D
:101A500091505040E695001CCAF729D0FE2F27D0A0
:101A6000660F771F881FBB1F261737074807AB076E
:101A7000B0E809F0BB0B802DBF01FF2793585F4FE3
:101A80002AF09E3F510568F0B6C000C15F3FECF3FD
:101A9000983EDCF3869577956795B795F7959F5FA8
:101AA000C9F7880F911D9695879597F90895E1E0FC
:101AB000660F771F881FBB1F621773078407BA075B
:101AC00020F0621B730B840BBA0BEE1F88F7E095B6
:101AD000089504D06894B111D9C00895BCD088F09D
:101AE0009F5790F0B92F9927B751A0F0D1F0660F0A
:101AF000771F881F991F1AF0BA95C9F712C0B13025
:101B000081F0C3D0B1E00895C0C0672F782F882737
:101B1000B85F39F0B93FCCF3869577956795B39563
:101B2000D9F73EF490958095709561957F4F8F4FD2
:101B30009F4F0895E89409C097FB3EF490958095D7
:101B4000709561957F4F8F4F9F4F9923A9F0F92F83
:101B500096E9BB279395F695879577956795B79501
:101B6000F111F8CFFAF4BB0F11F460FF1BC06F5FE7
:101B70007F4F8F4F9F4F16C0882311F096E911C0F9
:101B8000772321F09EE8872F762F05C0662371F01A
:101B900096E8862F70E060E02AF09A95660F771F2E
:101BA000881FDAF7880F9695879597F90895990F0A
:101BB0000008550FAA0BE0E8FEEF16161706E80717
:101BC000F907C0F012161306E407F50798F0621B38
:101BD000730B840B950B39F40A2661F0232B242B0D
:101BE000252B21F408950A2609F4A140A6958FEF2C
:101BF000811D811D089597F99F6780E870E060E07E
:101C000008959FEF80EC089500240A941616170695
:101C100018060906089500240A94121613061406DD
:101C200005060895092E0394000C11F4882352F040
:101C3000BB0F40F4BF2B11F460FF04C06F5F7F4FF8
:101C40008F4F9F4F089557FD9058440F551F59F0DF
:101C50005F3F71F04795880F97FB991F61F09F3F99
:101C600079F087950895121613061406551FF2CFC2
:101C70004695F1DF08C0161617061806991FF1CF12
:101C800086957105610508940895E894BB27662739
:101C90007727CB0197F908958ADF08F48FEF08952D
:101CA0000BD0C0CFB1DF28F0B6DF18F0952309F0D4
:101CB000A2CFA7CF1124EACFC6DFA0F3959FD1F31F
:101CC000950F50E0551F629FF001729FBB27F00DEA
:101CD000B11D639FAA27F00DB11DAA1F649F66273F
:101CE000B00DA11D661F829F2227B00DA11D621F8E
:101CF000739FB00DA11D621F839FA00D611D221F48
:101D0000749F3327A00D611D231F849F600D211D2B
:101D1000822F762F6A2F11249F5750408AF0E1F0CE
:101D200088234AF0EE0FFF1FBB1F661F771F881F17
:101D300091505040A9F79E3F510570F05CCFA6CF5F
:101D40005F3FECF3983EDCF3869577956795B79502
:101D5000F795E7959F5FC1F7FE2B880F911D96952C
:101D6000879597F90895FA01EE0FFF1F3096210528
:101D7000310599F16115710561F48038BFE39B0766
:101D800049F168949038810561F08038BFEF9B0776
:101D900041F0992342F5FF3FE1053105210511F19D
:101DA000E8940894E795D901AA2329F4AB2FBE2F14
:101DB000F85FD0F310C0FF5F70F4A695E0F7F73935
:101DC00050F019F0FF3A38F49F779F930CD00F90A2
:101DD00007FC905808953EF014CF60E070E080E872
:101DE0009FE308954FE79F775F934F933F932F9320
:101DF000A2D02F913F914F915F9152DF09C0D7DE62
:101E0000880B990B089519F40EF0F5CE3ECFF9CE5C
:101E100022DFC8F39638C0F707F80F92E8942BE357
:101E20003AEA48EB5FE74ADF0F920F920F924DB705
:101E30005EB70F92C0D0E4EEF0E016D04F915F9104
:101E4000EF91FF91E595EE1FFF1F49F0FE57E06807
:101E50004427EE0F441FFA95E1F74195550B32D018
:101E60000F9007FE26C00895DF93CF931F930F9323
:101E7000FF92EF92DF927B018C01689405C0DA2E0D
:101E8000EF011ADFFE01E894A59125913591459166
:101E90005591AEF3EF015EDDFE019701A801DA94E2
:101EA00079F7DF90EF90FF900F911F91CF91DF9125
:101EB00008959B01AC0160E070E080E89FE3A1CD54
:101EC0009ACEACC0C8DEE8F39923D9F3940F511D24
:101ED000BBF39150504094F059F0882332F0660FD4
:101EE000771F881F91505040C1F79E3F510544F71E
:101EF000880F911D9695879597F908955F3FACF0EF
:101F0000983E9CF0BB27869577956795B79508F422
:101F1000B1609395C1F7BB0F58F711F460FFE8CF9C
:101F20006F5F7F4F8F4F9F4FE3CFB0CE0EF076C0E5
:101F300068CE689460CE8FDEC8F39923D1F3C6F3E0
:101F4000DF93CF931F930F93FF92C92FDD27882331
:101F50002AF02197660F771F881FDAF720E030E01C
:101F600040E85FEB9FE3883920F0803E30F0219617
:101F70008F77DFDCECE0F1E003C0DBDCE9E3F1E0EC
:101F800073DF8B01BE01EC01FB2E6F577109759554
:101F9000771F880B990BD0DD28E132E741E35FE33F
:101FA0008BDEAF2D9801AE01FF900F911F91CF9165
:101FB000DF91D0DC37CEFA01DC01AA0FBB1F9B01F9
:101FC000AC01BF5728F422273327442750781FC07D
:101FD000B75188F4AB2F0024469537952795011CFF
:101FE000A395D2F3002069F0220F331F441FB3954D
:101FF000DAF30DD09DCC61307105A0E88A07B946AF
:1020000030F49B01AC0166277727882790783096BB
:1020100021F0208331834283538308959F3F31F021
:10202000915020F4879577956795B795880F911D06
:102030009695879597F90895A1E21A2EAA1BBB1BC6
:10204000FD010DC0AA1FBB1FEE1FFF1FA217B30784
:10205000E407F50720F0A21BB30BE40BF50B661F9A
:10206000771F881F991F1A9469F76095709580955E
:1020700090959B01AC01BD01CF010895EE0FFF1FAC
:10208000881F8BBF0790F691E02D19940F931F9333
:10209000CF93DF938230910510F482E090E0E091DD
:1020A0005003F091510330E020E0B0E0A0E0309721
:1020B00099F42115310509F44AC0281B390B243045
:1020C0003105D8F58A819B816115710589F1FB0184
:1020D00093838283FE0111C040815181028113816B
:1020E00048175907E0F04817590799F4109761F01D
:1020F00012960C93129713961C933296CF01DF9190
:10210000CF911F910F9108950093500310935103A5
:10211000F4CF2115310551F04217530738F0A901CA
:10212000DB019A01BD01DF01F801C1CFEF01F9CF59
:102130009093510380935003CDCFFE01E20FF31F24
:10214000819391932250310939832883D7CF2091ED
:102150004E0330914F03232B41F420911302309111
:10216000140230934F0320934E03209111023091BB
:1021700012022115310541F42DB73EB740911502E9
:1021800050911602241B350BE0914E03F0914F0342
:10219000E217F307A0F42E1B3F0B2817390778F03E
:1021A000AC014E5F5F4F2417350748F04E0F5F1F9D
:1021B00050934F0340934E03819391939FCFF0E050
:1021C000E0E09CCFCF93DF930097E9F0FC013297DA
:1021D00013821282A0915003B0915103ED0130E0BF
:1021E00020E01097A1F420813181820F931F20916C
:1021F0004E0330914F032817390709F061C0F0935F
:102200004F03E0934E03DF91CF910895EA01CE177B
:10221000DF07E8F54A815B819E0141155105B1F761
:10222000E901FB83EA8349915991C40FD51FEC174B
:10223000FD0761F4808191810296840F951FE90169
:1022400099838883828193819B838A83F0E0E0E095
:1022500012968D919C9113970097B9F52D913C9111
:102260001197CD010296820F931F20914E0330915A
:102270004F032817390739F6309751F5109251035B
:1022800010925003B0934F03A0934E03BCCFD3835F
:10229000C28340815181840F951FC817D90761F40B
:1022A0004E5F5F4F88819981480F591F518340834A
:1022B0008A819B81938382832115310509F0B0CFF8
:1022C000F0935103E09350039ECFFD01DC01C0CF9A
:1022D00013821282D7CF81E090E0F89400C0F89486
:0222E000FFCF2E
:1022E2002F042F042F042F042F042F042F042F0454
:1022F20001000052038000000000008202ED011A7A
:1023020002CE024B0229023D0200000000A0040995
:102312000600000000AE04AE040D0A0041637469B9
:102322006F6E20436F6D706C65746564006E616ED4
:1023320000696E66006F7666005374617274696E2E
:1023420067204D6F7665204163696F6E0009004D0D
:0E2352006F746F722044656275672032000060
:00000001FF
