:1000000036C100000C94430A0C94180A0C94ED09B4
:100010000C94C2090C9497090C946C090C94410936
:100020000C94160955C1000053C1000051C10000D5
:100030004FC100004DC100004BC1000049C100008C
:1000400047C1000045C1000043C1000041C100009C
:100050003FC100003DC100003BC100000C94CC0832
:1000600037C1000035C1000033C1000031C10000BC
:100070002FC100002DC100002BC1000029C10000CC
:1000800027C1000025C1000023C1000021C10000DC
:100090001FC100001DC100001BC1000019C10000EC
:1000A00017C1000015C1000013C1000011C10000FC
:1000B0000FC100000DC100000BC1000009C100000C
:1000C00007C1000005C1000003C1000001C100001C
:1000D000FFC00000FDC000000C949608FEC70000A1
:1000E000F7C0000007634236B79BD8A71A39685695
:1000F00018AEBAAB558C1D3CB7CC5763BD6DEDFD4A
:10010000753EF6177231BF000000803F0800000006
:10011000BE922449123EABAAAA2ABECDCCCC4C3EFC
:1001200000000080BEABAAAAAA3E00000000BF00EB
:100130000000803F0000000000084178D3BB4387E7
:10014000D1133D190E3CC3BD4282AD2B3E68EC82FB
:1001500076BED98FE1A93E4C80EFFFBE01C4FF7F80
:100160003F000000000000002100240027002A00BA
:100170002D003000330001010000040107010A01D5
:1001800000002200250028002B002E003100340042
:1001900002010000050108010B0105050505070521
:1001A00008080808020202020A0A080804040404F3
:1001B000010101010101010103030303030303031F
:1001C000040707070C0C0C0C0C0C0C0C02020202AE
:1001D00006060606060606060B0B0B0B0B0B0B0B97
:1001E0000102102020080810204010204080020149
:1001F000020108040201010204081020408080402E
:10020000201008040201800402018040201008042C
:1002100002010804020101020408102040800102CA
:1002200004081020408000000A0B02090C0D0E0883
:1002300007030401000000000000000000000000AF
:1002400000000000000000000000000000000000AE
:10025000000012111000000000000000000000006B
:100260000000000000000000000000006E0A1124E1
:100270001FBECFEFD1E2DEBFCDBF00E00CBF12E06A
:10028000A0E0B2E0E2EEF2E200E00BBF02C00790B5
:100290000D92AE37B107D9F723E0AEE7B2E001C067
:1002A0001D92A235B207E1F711E0C7E3D1E000E00B
:1002B00006C021970109802FFE010E943E10C6331F
:1002C000D10780E00807A9F70E94F40A0C946F1187
:1002D00097CE4091990250919A0260919B02709141
:1002E0009C028091950290919602A0919702B09104
:1002F000980284179507A607B707B8F48FEF809385
:1003000086028091990290919A02A0919B02B091ED
:100310009C020196A11DB11D8093990290939A02AF
:10032000A0939B02B0939C02089581E0E8CF809156
:10033000950290919602A0919702B0919802019631
:10034000A11DB11D8093950290939602A0939702F0
:10035000B0939802089540919D0250919E02609141
:100360009F027091A0028091910290919202A091BF
:100370009302B091940284179507A607B707B8F4C3
:100380008FEF8093870280919D0290919E02A091B1
:100390009F02B091A0020196A11DB11D80939D0204
:1003A00090939E02A0939F02B093A002089581E0D3
:1003B000E8CF8091910290919202A0919302B09126
:1003C00094020196A11DB11D809391029093920217
:1003D000A0939302B09394020895AF92BF92CF92EC
:1003E000DF92EF92FF920F931F93CF93DF936C01F5
:1003F0007B018B01040F151FEB015E01AE18BF08D6
:10040000C017D10759F06991D601ED91FC91019087
:10041000F081E02DC6011995892B79F7C501DF918F
:10042000CF911F910F91FF90EF90DF90CF90BF90F1
:10043000AF900895FC01538D448D252F30E0842F1B
:1004400090E0821B930B541710F0CF9608950197FC
:100450000895FC01918D828D981761F0A28DAE0FE9
:10046000BF2FB11D5D968C91928D9F5F9F73928F70
:1004700090E008958FEF9FEF0895FC01918D828D9C
:10048000981731F0828DE80FF11D858D90E0089569
:100490008FEF9FEF0895FC01918D228D892F90E0C1
:1004A000805C9F4F821B91098F739927089583EA7F
:1004B00092E0F1DF21E0892B09F420E0822F0895FA
:1004C000FC01A48DA80FB92FB11DA35ABF4F2C91C9
:1004D000848D90E001968F739927848FA689B789C0
:1004E0002C93A089B1898C91837080648C93938DB7
:1004F000848D981306C00288F389E02D80818F7D5A
:1005000080830895EF92FF920F931F93CF93DF9311
:10051000EC0181E0888F9B8D8C8D98131AC0E8893F
:10052000F989808185FF15C09FB7F894EE89FF890E
:100530006083E889F98980818370806480839FBFAC
:1005400081E090E0DF91CF911F910F91FF90EF90AC
:100550000895F62E0B8D10E00F5F1F4F0F731127BC
:10056000E02E8C8D8E110BC00FB607FCFACFE889F8
:10057000F989808185FFF5CFCE01A2DFF2CFEB8D27
:10058000EC0FFD2FF11DE35AFF4FF0829FB7F89457
:100590000B8FEA89FB8980818062D0CFCF93DF9374
:1005A000EC01888D8823B1F0AA89BB89E889F98993
:1005B0008C9185FD03C0808186FD0CC00FB607FCC1
:1005C000F7CF8C9185FFF2CF808185FFEDCFCE01F3
:1005D00077DFEACFDF91CF91089580E090E0892B1B
:1005E00049F080E090E0892B29F00E940000811101
:1005F0000E94000080E090E0892B49F080E090E0CC
:10060000892B29F00E94000081110E94000080E0E7
:1006100090E0892B49F080E090E0892B29F00E943E
:10062000000081110E94000080E090E0892B21F001
:100630003EDF81110C9400000895282F30E0F9016D
:10064000EA5DFD4F9491F901E052FE4F4491265628
:100650003E4FF9012491222309F435C0992311F169
:1006600091509231F8F4E92FF0E08827E55CFC4FD7
:100670008F4F0C943E106C0370034D0364036803AA
:100680005203730379037D03830387038B03910371
:100690009503520399039F03A303809180008F77F2
:1006A00080938000E22FF0E0EE0FFF1FE058FE4F36
:1006B000A591B4918FB7F894EC91611148C0409521
:1006C0004E234C938FBF0895809180008F7DE8CF9B
:1006D00080918000877FE4CF84B58F7784BDE2CF9F
:1006E00084B58F7DFBCF8091B0008F778093B00071
:1006F000D9CF8091B0008F7DF9CF809190008F7716
:1007000080939000CFCF809190008F7DF9CF809122
:100710009000877FF5CF8091A0008F778093A00015
:10072000C1CF8091A0008F7DF9CF8091A000877FFD
:10073000F5CF809120018F7780932001B3CF8091F6
:1007400020018F7DF9CF80912001877FF5CF4E2B3F
:10075000B8CFCF93DF9390E0FC01E052FE4F24919D
:1007600086569E4FFC0184918823D1F090E0880F3B
:10077000991FFC01EA59FE4FA591B491FC01E05884
:10078000FE4FC591D491623071F49FB7F8943C91BB
:10079000822F809583238C93E8812E2B28839FBF03
:1007A000DF91CF9108958FB7F894EC912E2B2C9375
:1007B0008FBFF6CF3FB7F89480918D0290918E0253
:1007C000A0918F02B091900226B5A89B05C02F3F43
:1007D00019F00196A11DB11D3FBFBA2FA92F982F67
:1007E0008827BC01CD01620F711D811D911D42E062
:1007F000660F771F881F991F4A95D1F708958F922A
:100800009F92AF92BF92CF92DF92EF92FF924B01F5
:100810005C01D0DF6B017C01CDDF6C197D098E0995
:100820009F09683E734081059105B0F321E0821A6B
:100830009108A108B10888EEC80E83E0D81EE11C1B
:10084000F11C81149104A104B10431F7FF90EF90E1
:10085000DF90CF90BF90AF909F908F9008950895B4
:10086000CF92DF92EF92FF92CF93DF93EC016A0178
:100870007B01F89461E08881E0DE20E030E04AEF1F
:1008800053ECC701B6010E94500E20E030E049EB66
:1008900054E40E94990C0E94690D6230710548F081
:1008A000660F771F660F771F65507109CB0101979F
:1008B000F1F760E08881C1DE7894DF91CF91FF90FD
:1008C000EF90DF90CF900895CF93DF93EC0161E03C
:1008D00088813FDF60E08881B0DE40E050E0BA010F
:1008E000CE01BEDF60E08881A8DE19821A821B82F9
:1008F0001C82DF91CF910895CF92DF92EF92FF9209
:1009000069017A0160934A0370934B0380934C030F
:1009100090934D03AB01BC0189E493E0A1DFC09249
:100920004503D0924603E0924703F0924803B70193
:10093000A60184E493E0FF90EF90DF90CF9090CFFA
:10094000FC0111861086138212821582148211A274
:1009500010A280E197E2978F868F08950895FC0199
:1009600001900020E9F73197AF01481B590BBC01FA
:1009700083EA92E032CD8F929F92AF92BF920F9313
:100980001F93CF93DF93CDB7DEB7A1970FB6F8943F
:10099000DEBF0FBECDBF19A2423008F44AE08E017F
:1009A0000F5D1F4F842E912CB12CA12CA501940119
:1009B0000E941C10E62FB901CA01EA30ECF4E05D98
:1009C000D801EE938D01232B242B252B79F790E072
:1009D00080E0109711F0CD01C2DFA1960FB6F89418
:1009E000DEBF0FBECDBFDF91CF911F910F91BF90A2
:1009F000AF909F908F900895E95CE2CFCF93DF9303
:100A0000AEDFEC0189E392E0AADF8C0F9D1FDF913E
:100A1000CF9108958CE392E0F1CF4F925F926F9265
:100A20007F928F929F92AF92BF92CF92DF92EF927E
:100A3000FF920F931F93CF936B017C01742EAC0137
:100A40009B010E94FF0E882391F08DE492E0CF91EC
:100A50001F910F91FF90EF90DF90CF90BF90AF90DC
:100A60009F908F907F906F905F904F9078CF4601CE
:100A70005701E894B7F82FEF3FEF4FE75FE7C50165
:100A8000B4010E94FF0E81110CC02FEF3FEF4FE722
:100A90005FE7C501B401B1D718161CF481E592E0F7
:100AA000D6CF2FEF3FEF4FE75FE4C701B6010E94BB
:100AB0004C0E18161CF485E592E0C9CF2FEF3FEFDE
:100AC0004FE75FECC701B60198D787FDF4CF20E070
:100AD00030E0A901C701B60190D710E000E087FF20
:100AE00009C06DE283EA92E00DDD8C01F7FAF09423
:100AF000F7F8F094C0E060E070E080E09FE37C16DF
:100B000039F020E030E040E251E47BD7CF5FF7CF0F
:100B1000A70196010ED72B013C01E0D74B015C01E8
:100B20004AE029DF7C01E00EF11ECC2391F1C501E2
:100B3000B4010E949A0D9B01AC01C301B201F8D629
:100B40004B015C016EE283EA92E0DCDCE80EF91E08
:100B5000C150F8F020E030E040E251E4C501B401BA
:100B60000E94500E2B013C01B9D74B01B12CA12C96
:100B70004AE0C501B401FFDEE80EF91EC501B4016B
:100B8000D9D79B01AC01C301B201D2D64B015C01A4
:100B9000DFCFC701CF911F910F91FF90EF90DF90B2
:100BA000CF90BF90AF909F908F907F906F905F900D
:100BB0004F900895CF92DF92EF92FF92CF93DF9301
:100BC0006C01990FEE08FF08F7FE17C06DE283EA8B
:100BD00092E098DCEC0166277727CB016C197D0940
:100BE0008E099F094AE0C7DE8C0F9D1FDF91CF91D0
:100BF000FF90EF90DF90CF9008954AE0C701B601D3
:100C0000DF91CF91FF90EF90DF90CF90B4CE0E9414
:100C10006B112F923F924F925F926F927F928F92C1
:100C20009F92AF92BF92CF92DF92EF92FF920F937B
:100C30001F93CF93DF93CDB7DEB72C970FB6F89401
:100C4000DEBF0FBECDBF9C878B87DC0118960D9051
:100C5000BC91A02DBA83A9831097D9F0119729F1DF
:100C60002C960FB6F894DEBF0FBECDBFDF91CF91AB
:100C70001F910F91FF90EF90DF90CF90BF90AF90BA
:100C80009F908F907F906F905F904F903F902F90AC
:100C9000089589E592E0B2DE81E090E0EB85FC8585
:100CA0009187808711A210A2DBCFAB85BC851296FD
:100CB0000D90BC91A02DB887AF83EB85FC85A680F5
:100CC000B780228D338D3A872987AA15BB052CF46E
:100CD00004811581A016B10664F520E030E0A90179
:100CE000CA01B901E985FA85199582E090E0AB85E2
:100CF000BC8519969C938E9318975C96ED91FC9108
:100D00002C960FB6F894DEBF0FBECDBFDF91CF910A
:100D10001F910F91FF90EF90DF90CF90BF90AF9019
:100D20009F908F907F906F905F904F903F902F900B
:100D30001994EB85FC8560A171A1072E000C880B2E
:100D4000990BFAD62AE037ED43E25CE3A9D7562E99
:100D5000672E782E492EAB85BC851E96CC901E97AB
:100D60001F96DC901F975096EC9050975196FC90F0
:100D70009601A70142D687FD04C05C2C6D2C7E2C09
:100D80004F2C6F817885600F711F072E000C880B28
:100D9000990BD2D620E030E040E05FE381D76B01D1
:100DA0007C01B5010B2C000C880B990BC5D623E3F5
:100DB00033E343E75FE374D7362E272E8D839E837C
:100DC000B5016431710514F464E170E06451710996
:100DD000072E000C880B990BAFD65B014C019B01D1
:100DE000AC01632D722D8D819E8107D687FD04C0D5
:100DF0003A2C2B2C8D829E82A7019601632D722D99
:100E00008D819E81FAD587FF38C02DEC3CEC4CECEF
:100E10005EE3652D762D872D942D3ED718166CF543
:100E2000232D322D4D815E81C701B60181D52DEC78
:100E30003CEC4CE45EEB34D79B01AC0160E070E02D
:100E400080E090E490D79B01AC01652D762D872D35
:100E5000942D26D7562E672E782E492E2DEC3CEC5D
:100E60004CEC5EE319D7181644F08DEC582E9CEC30
:100E7000692E2CEC722E3EE3432EEB85FC8582849A
:100E80009384A484B5842F813885B901330F880BEE
:100E9000990B52D6A501940103D76B017C01B801CF
:100EA000110F880B990B48D69B01AC01C701B60105
:100EB0003FD50FD69B01AB014D5E5F4F84E190E0C3
:100EC0004732510540F4AB0137FF04C04427552792
:100ED000461B570BCA0137FF04C0AFEFBFEFBA8301
:100EE000A983E981FA818E9F80018F9F100D9E9FBB
:100EF000100D1124AB85BC855E966D917C91072EFB
:100F0000000C880B990B18D620E030E44CE156E435
:100F1000C3D687FD04C0EB85FC85178F068FAB8594
:100F2000BC855E968D919C91B801681B790B072E4C
:100F3000000C880B990B00D6EB85FC8526A137A108
:100F400040A551A5ADD66B017C01B801012E000C66
:100F5000880B990BF1D5AB85BC8592962D913D916F
:100F60004D915C9195979CD69B01AC01C701B60150
:100F7000E0D46B017C0120E030E040E85FE3C50194
:100F8000B401D7D49B01AC01652D762D872D942D0E
:100F900038D54B015C01AC019B01652D762D872D69
:100FA000942DC6D42B013C01A701960160E070E0AE
:100FB00080E89FE3BDD4A501940172D64B015C018A
:100FC00020E030E040E85FE3C701B601B2D4A301FE
:100FD000920166D66B017C01EB85FC8526893789F9
:100FE000408D518D5DD62B013C01AB85BC85529661
:100FF0002D913D914D915C915597C501B40150D60D
:10100000A3019201E985FA851995AB85BC851496F3
:101010006D917C91072E000C880B990B8DD5EB857B
:10102000FC8526893789408D518D3AD652D5698302
:101030007A838B839C83AB85BC8512966D917C9162
:10104000072E000C880B990B77D5EB85FC85228940
:1010500033894489558924D63CD52B01AB85BC8581
:1010600090968D919C91A6DD8DE692E078DC20E053
:1010700030E048EC52E4C501B40112D642E0CDDCC8
:101080008DE692E06CDC20E030E048EC52E4C701F1
:10109000B60106D642E0C1DC8DE692E060DCC2011A
:1010A00089DD8DE692E05BDC89819A8183DD8DE6C6
:1010B00092E055DC42E0632D722D8D819E81ADDC86
:1010C00089E392E04CDCEB85FC85178F068F80A1CD
:1010D00091A1019691A380A3C3CD1F920F920FB649
:1010E0000F9211240BB60F922F933F934F935F9360
:1010F0006F937F938F939F93AF93BF93EF93FF93E0
:1011000083EA92E0DDD9FF91EF91BF91AF919F917A
:101110008F917F916F915F914F913F912F910F90A0
:101120000BBE0F900FBE0F901F9018951F920F923D
:101130000FB60F9211240BB60F922F938F939F939C
:10114000EF93FF93E091B302F091B4028081E091BC
:10115000B902F091BA0282FD1DC090818091BC025B
:101160008F5F8F732091BD02821741F0E091BC0226
:10117000F0E0ED55FD4F958F8093BC02FF91EF910C
:101180009F918F912F910F900BBE0F900FBE0F90DC
:101190001F9018958081F2CF1F920F920FB60F9279
:1011A00011242F933F938F939F93AF93BF9380917D
:1011B000890290918A02A0918B02B0918C023091A9
:1011C000880223E0230F2D3758F50196A11DB11D8C
:1011D000209388028093890290938A02A0938B02C5
:1011E000B0938C0280918D0290918E02A0918F021B
:1011F000B09190020196A11DB11D80938D02909334
:101200008E02A0938F02B0939002BF91AF919F91F5
:101210008F913F912F910F900FBE0F901F901895B7
:1012200026E8230F0296A11DB11DD2CF1F920F9267
:101230000FB60F9211240BB60F922F933F934F933B
:101240005F936F937F938F939F93AF93BF93EF932E
:10125000FF93E0910E02F0910F021995FF91EF912B
:10126000BF91AF919F918F917F916F915F914F91BE
:101270003F912F910F900BBE0F900FBE0F901F90BC
:1012800018951F920F920FB60F9211240BB60F9262
:101290002F933F934F935F936F937F938F939F937E
:1012A000AF93BF93EF93FF93E0910C02F0910D0287
:1012B0001995FF91EF91BF91AF919F918F917F9180
:1012C0006F915F914F913F912F910F900BBE0F90B7
:1012D0000FBE0F901F9018951F920F920FB60F928E
:1012E00011240BB60F922F933F934F935F936F93FD
:1012F0007F938F939F93AF93BF93EF93FF93E0916F
:101300000202F09103021995FF91EF91BF91AF9105
:101310009F918F917F916F915F914F913F912F910D
:101320000F900BBE0F900FBE0F901F9018951F923D
:101330000F920FB60F9211240BB60F922F933F937B
:101340004F935F936F937F938F939F93AF93BF93CD
:10135000EF93FF93E0910002F09101021995FF9144
:10136000EF91BF91AF919F918F917F916F915F911D
:101370004F913F912F910F900BBE0F900FBE0F908A
:101380001F9018951F920F920FB60F9211240BB653
:101390000F922F933F934F935F936F937F938F930E
:1013A0009F93AF93BF93EF93FF93E0910A02F09165
:1013B0000B021995FF91EF91BF91AF919F918F9182
:1013C0007F916F915F914F913F912F910F900BBE45
:1013D0000F900FBE0F901F9018951F920F920FB68F
:1013E0000F9211240BB60F922F933F934F935F935D
:1013F0006F937F938F939F93AF93BF93EF93FF93DD
:10140000E0910802F09109021995FF91EF91BF91C7
:10141000AF919F918F917F916F915F914F913F918C
:101420002F910F900BBE0F900FBE0F901F9018952D
:101430001F920F920FB60F9211240BB60F922F939B
:101440003F934F935F936F937F938F939F93AF934C
:10145000BF93EF93FF93E0910602F0910702199575
:10146000FF91EF91BF91AF919F918F917F916F917C
:101470005F914F913F912F910F900BBE0F900FBE38
:101480000F901F9018951F920F920FB60F92112474
:101490000BB60F922F933F934F935F936F937F936E
:1014A0008F939F93AF93BF93EF93FF93E0910402C9
:1014B000F09105021995FF91EF91BF91AF919F9126
:1014C0008F917F916F915F914F913F912F910F90ED
:1014D0000BBE0F900FBE0F901F901895E3EAF2E03D
:1014E0001382128288EE93E0A0E0B0E084839583BB
:1014F000A683B7838BE192E09183808385E391E0BB
:101500009587848784E391E09787868780E391E0DD
:10151000918B808B81E391E0938B828B82E391E0CE
:10152000958B848B86E391E0978B868B118E128E40
:10153000138E148EE9E4F3E080E090E0A8ECB2ECC6
:1015400081839283A383B48327E12083E4E4F3E0DF
:1015500081839283A383B48386E1808380E290E0D9
:1015600095D5FC0180E2DF011D928A95E9F7128A88
:10157000138A148A158A168A178A108E118E85E3AB
:1015800092E091838083F0934303E09342038AE2E5
:1015900090E07CD5FC01128A138A148A158A168A77
:1015A000178A108E118E8DE292E0918380838DECEC
:1015B0009CECACE4BDE382A393A3A4A3B5A38AE00F
:1015C00097EDA3E2BCE386A397A3A0A7B1A78CE7FE
:1015D00094E0938F828F8AE095E0958F848FF093CB
:1015E0004103E09340030895789484B5826084BDFC
:1015F00084B5816084BD85B5826085BD85B5816017
:1016000085BD80916E00816080936E001092810094
:10161000809181008260809381008091810081604F
:101620008093810080918000816080938000809110
:10163000B10084608093B1008091B000816080939C
:10164000B000809191008260809391008091910020
:1016500081608093910080919000816080939000E0
:101660008091A10082608093A1008091A10081609F
:101670008093A1008091A00081608093A000809160
:1016800021018260809321018091210181608093FA
:1016900021018091200181608093200180917A0056
:1016A000846080937A0080917A00826080937A00CF
:1016B00080917A00816080937A0080917A008068BE
:1016C00080937A001092C100E091B302F091B402CD
:1016D00082E08083E091AF02F091B0021082E0914D
:1016E000B102F091B2028FEC80831092BB02E091C4
:1016F000B702F091B80286E08083E091B502F091E4
:10170000B602808180618083E091B502F091B602DB
:10171000808188608083E091B502F091B60280817B
:1017200080688083E091B502F091B60280818F7D60
:1017300080838FE692E062D989E493E0C5D884E49F
:1017400093E0C2D862E082E104D862E083E101D88C
:1017500062E084E10E94A90362E085E10E94A9039E
:1017600089E691E090930B0280930A0280916900D0
:10177000806C80936900EB9A87E991E0909309026D
:101780008093080280916900806380936900EA9ADF
:101790008BEA91E0909307028093060280916900A2
:1017A0008C6080936900E99A89ED91E0909305023D
:1017B0008093040280916900836080936900E89AB5
:1017C0006AE070E080E090E01AD810924A0310922C
:1017D0004B0310924C0310924D0340E050E0BA01CD
:1017E00089E493E03DD8109245031092460310928D
:1017F00047031092480340E050E0BA0184E493E0CC
:101800002FD86AE070E080E090E00E94FF038091B2
:101810004203909143039093A2028093A102C8ECEB
:10182000D0E0C12CD12C80E8E82E8FE3F82E9DEC7F
:10183000892E9CEC992E9CE4A92E9FE3B92E8091D1
:101840001002882309F447C080914003909141031E
:101850009093A2028093A102DC01ED91FC91019092
:10186000F081E02D1995E091A102F091A202D783B9
:10187000C683C286D386E486F58686869786A08A46
:10188000B18AC28AD38AE48AF58AC68AD78AE08E68
:10189000F18E109210021092990210929A021092F8
:1018A0009B0210929C021092950210929602109246
:1018B00097021092980210929D0210929E0210922E
:1018C0009F021092A0021092910210929202109226
:1018D000930210929402A091A102B091A2024091B1
:1018E0009D0250919E0260919F027091A002009112
:1018F000990210919A0220919B0230919C021396BA
:101900001C930E93129715965C934E931497ED913A
:10191000FC9111970280F381E02DCD01199564E1CE
:1019200070E080E090E00E94FF030E94ED0287CF0C
:101930005058BB27AA270ED075C166D130F06BD1A5
:1019400020F031F49F3F11F41EF45BC10EF4E095DA
:10195000E7FB51C1E92F77D180F3BA17620773070C
:101960008407950718F071F49EF58FC10EF4E09589
:101970000B2EBA2FA02D0B01B90190010C01CA0149
:10198000A0011124FF27591B99F0593F50F4503EF4
:1019900068F11A16F040A22F232F342F4427585FE6
:1019A000F3CF469537952795A795F0405395C9F7FE
:1019B0007EF41F16BA0B620B730B840BBAF09150B6
:1019C000A1F0FF0FBB1F661F771F881FC2F70EC055
:1019D000BA0F621F731F841F48F487957795679528
:1019E000B795F7959E3F08F0B3CF9395880F08F011
:1019F0009927EE0F979587950895D9D008F481E03F
:101A000008950CD00FC107D140F0FED030F021F482
:101A10005F3F19F0F0C0511139C1F3C014D198F3F0
:101A20009923C9F35523B1F3951B550BBB27AA275F
:101A300062177307840738F09F5F5F4F220F331FD1
:101A4000441FAA1FA9F333D00E2E3AF0E0E830D09D
:101A500091505040E695001CCAF729D0FE2F27D0A0
:101A6000660F771F881FBB1F261737074807AB076E
:101A7000B0E809F0BB0B802DBF01FF2793585F4FE3
:101A80002AF09E3F510568F0B6C000C15F3FECF3FD
:101A9000983EDCF3869577956795B795F7959F5FA8
:101AA000C9F7880F911D9695879597F90895E1E0FC
:101AB000660F771F881FBB1F621773078407BA075B
:101AC00020F0621B730B840BBA0BEE1F88F7E095B6
:101AD000089504D06894B111D9C00895BCD088F09D
:101AE0009F5790F0B92F9927B751A0F0D1F0660F0A
:101AF000771F881F991F1AF0BA95C9F712C0B13025
:101B000081F0C3D0B1E00895C0C0672F782F882737
:101B1000B85F39F0B93FCCF3869577956795B39563
:101B2000D9F73EF490958095709561957F4F8F4FD2
:101B30009F4F0895E89409C097FB3EF490958095D7
:101B4000709561957F4F8F4F9F4F9923A9F0F92F83
:101B500096E9BB279395F695879577956795B79501
:101B6000F111F8CFFAF4BB0F11F460FF1BC06F5FE7
:101B70007F4F8F4F9F4F16C0882311F096E911C0F9
:101B8000772321F09EE8872F762F05C0662371F01A
:101B900096E8862F70E060E02AF09A95660F771F2E
:101BA000881FDAF7880F9695879597F90895990F0A
:101BB0000008550FAA0BE0E8FEEF16161706E80717
:101BC000F907C0F012161306E407F50798F0621B38
:101BD000730B840B950B39F40A2661F0232B242B0D
:101BE000252B21F408950A2609F4A140A6958FEF2C
:101BF000811D811D089597F99F6780E870E060E07E
:101C000008959FEF80EC089500240A941616170695
:101C100018060906089500240A94121613061406DD
:101C200005060895092E0394000C11F4882352F040
:101C3000BB0F40F4BF2B11F460FF04C06F5F7F4FF8
:101C40008F4F9F4F089557FD9058440F551F59F0DF
:101C50005F3F71F04795880F97FB991F61F09F3F99
:101C600079F087950895121613061406551FF2CFC2
:101C70004695F1DF08C0161617061806991FF1CF12
:101C800086957105610508940895E894BB27662739
:101C90007727CB0197F908958ADF08F48FEF08952D
:101CA0000BD0C0CFB1DF28F0B6DF18F0952309F0D4
:101CB000A2CFA7CF1124EACFC6DFA0F3959FD1F31F
:101CC000950F50E0551F629FF001729FBB27F00DEA
:101CD000B11D639FAA27F00DB11DAA1F649F66273F
:101CE000B00DA11D661F829F2227B00DA11D621F8E
:101CF000739FB00DA11D621F839FA00D611D221F48
:101D0000749F3327A00D611D231F849F600D211D2B
:101D1000822F762F6A2F11249F5750408AF0E1F0CE
:101D200088234AF0EE0FFF1FBB1F661F771F881F17
:101D300091505040A9F79E3F510570F05CCFA6CF5F
:101D40005F3FECF3983EDCF3869577956795B79502
:101D5000F795E7959F5FC1F7FE2B880F911D96952C
:101D6000879597F90895FA01EE0FFF1F3096210528
:101D7000310599F16115710561F48038BFE39B0766
:101D800049F168949038810561F08038BFEF9B0776
:101D900041F0992342F5FF3FE1053105210511F19D
:101DA000E8940894E795D901AA2329F4AB2FBE2F14
:101DB000F85FD0F310C0FF5F70F4A695E0F7F73935
:101DC00050F019F0FF3A38F49F779F930CD00F90A2
:101DD00007FC905808953EF014CF60E070E080E872
:101DE0009FE308954FE79F775F934F933F932F9320
:101DF000A2D02F913F914F915F9152DF09C0D7DE62
:101E0000880B990B089519F40EF0F5CE3ECFF9CE5C
:101E100022DFC8F39638C0F707F80F92E8942BE357
:101E20003AEA48EB5FE74ADF0F920F920F924DB705
:101E30005EB70F92C0D0E4EEF0E016D04F915F9104
:101E4000EF91FF91E595EE1FFF1F49F0FE57E06807
:101E50004427EE0F441FFA95E1F74195550B32D018
:101E60000F9007FE26C00895DF93CF931F930F9323
:101E7000FF92EF92DF927B018C01689405C0DA2E0D
:101E8000EF011ADFFE01E894A59125913591459166
:101E90005591AEF3EF015EDDFE019701A801DA94E2
:101EA00079F7DF90EF90FF900F911F91CF91DF9125
:101EB00008959B01AC0160E070E080E89FE3A1CD54
:101EC0009ACEACC0C8DEE8F39923D9F3940F511D24
:101ED000BBF39150504094F059F0882332F0660FD4
:101EE000771F881F91505040C1F79E3F510544F71E
:101EF000880F911D9695879597F908955F3FACF0EF
:101F0000983E9CF0BB27869577956795B79508F422
:101F1000B1609395C1F7BB0F58F711F460FFE8CF9C
:101F20006F5F7F4F8F4F9F4FE3CFB0CE0EF076C0E5
:101F300068CE689460CE8FDEC8F39923D1F3C6F3E0
:101F4000DF93CF931F930F93FF92C92FDD27882331
:101F50002AF02197660F771F881FDAF720E030E01C
:101F600040E85FEB9FE3883920F0803E30F0219617
:101F70008F77DFDCECE0F1E003C0DBDCE9E3F1E0EC
:101F800073DF8B01BE01EC01FB2E6F577109759554
:101F9000771F880B990BD0DD28E132E741E35FE33F
:101FA0008BDEAF2D9801AE01FF900F911F91CF9165
:101FB000DF91D0DC37CEFA01DC01AA0FBB1F9B01F9
:101FC000AC01BF5728F422273327442750781FC07D
:101FD000B75188F4AB2F0024469537952795011CFF
:101FE000A395D2F3002069F0220F331F441FB3954D
:101FF000DAF30DD09DCC61307105A0E88A07B946AF
:1020000030F49B01AC0166277727882790783096BB
:1020100021F0208331834283538308959F3F31F021
:10202000915020F4879577956795B795880F911D06
:102030009695879597F90895A1E21A2EAA1BBB1BC6
:10204000FD010DC0AA1FBB1FEE1FFF1FA217B30784
:10205000E407F50720F0A21BB30BE40BF50B661F9A
:10206000771F881F991F1A9469F76095709580955E
:1020700090959B01AC01BD01CF010895EE0FFF1FAC
:10208000881F8BBF0790F691E02D19940F931F9333
:10209000CF93DF938230910510F482E090E0E091DD
:1020A0005003F091510330E020E0B0E0A0E0309721
:1020B00099F42115310509F44AC0281B390B243045
:1020C0003105D8F58A819B816115710589F1FB0184
:1020D00093838283FE0111C040815181028113816B
:1020E00048175907E0F04817590799F4109761F01D
:1020F00012960C93129713961C933296CF01DF9190
:10210000CF911F910F9108950093500310935103A5
:10211000F4CF2115310551F04217530738F0A901CA
:10212000DB019A01BD01DF01F801C1CFEF01F9CF59
:102130009093510380935003CDCFFE01E20FF31F24
:10214000819391932250310939832883D7CF2091ED
:102150004E0330914F03232B41F420911302309111
:10216000140230934F0320934E03209111023091BB
:1021700012022115310541F42DB73EB740911502E9
:1021800050911602241B350BE0914E03F0914F0342
:10219000E217F307A0F42E1B3F0B2817390778F03E
:1021A000AC014E5F5F4F2417350748F04E0F5F1F9D
:1021B00050934F0340934E03819391939FCFF0E050
:1021C000E0E09CCFCF93DF930097E9F0FC013297DA
:1021D00013821282A0915003B0915103ED0130E0BF
:1021E00020E01097A1F420813181820F931F20916C
:1021F0004E0330914F032817390709F061C0F0935F
:102200004F03E0934E03DF91CF910895EA01CE177B
:10221000DF07E8F54A815B819E0141155105B1F761
:10222000E901FB83EA8349915991C40FD51FEC174B
:10223000FD0761F4808191810296840F951FE90169
:1022400099838883828193819B838A83F0E0E0E095
:1022500012968D919C9113970097B9F52D913C9111
:102260001197CD010296820F931F20914E0330915A
:102270004F032817390739F6309751F5109251035B
:1022800010925003B0934F03A0934E03BCCFD3835F
:10229000C28340815181840F951FC817D90761F40B
:1022A0004E5F5F4F88819981480F591F518340834A
:1022B0008A819B81938382832115310509F0B0CFF8
:1022C000F0935103E09350039ECFFD01DC01C0CF9A
:1022D00013821282D7CF81E090E0F89400C0F89486
:0222E000FFCF2E
:1022E2002F042F042F042F042F042F042F042F0454
:1022F20001000052038000000000008202ED011A7A
:1023020002CE024B0229023D0200000000A0040995
:102312000600000000AE04AE040D0A0041637469B9
:102322006F6E20436F6D706C65746564006E616ED4
:1023320000696E66006F7666005374617274696E2E
:1023420067204D6F7665204163696F6E0009004D0D
:0E2352006F746F722044656275672032000060
:020000023000CC
:10E000000D9489F10D94B2F10D94B2F10D94B2F129
:10E010000D94B2F10D94B2F10D94B2F10D94B2F1F0
:10E020000D94B2F10D94B2F10D94B2F10D94B2F1E0
:10E030000D94B2F10D94B2F10D94B2F10D94B2F1D0
:10E040000D94B2F10D94B2F10D94B2F10D94B2F1C0
:10E050000D94B2F10D94B2F10D94B2F10D94B2F1B0
:10E060000D94B2F10D94B2F10D94B2F10D94B2F1A0
:10E070000D94B2F10D94B2F10D94B2F10D94B2F190
:10E080000D94B2F10D94B2F10D94B2F10D94B2F180
:10E090000D94B2F10D94B2F10D94B2F10D94B2F170
:10E0A0000D94B2F10D94B2F10D94B2F10D94B2F160
:10E0B0000D94B2F10D94B2F10D94B2F10D94B2F150
:10E0C0000D94B2F10D94B2F10D94B2F10D94B2F140
:10E0D0000D94B2F10D94B2F10D94B2F10D94B2F130
:10E0E0000D94B2F141546D656761323536300041AF
:10E0F000726475696E6F206578706C6F72657220DE
:10E1000073746B3530305632206279204D4C530099
:10E11000426F6F746C6F616465723E004875683F52
:10E1200000436F6D70696C6564206F6E203D200048
:10E130004350552054797065202020203D20005FF9
:10E140005F4156525F415243485F5F3D2000415658
:10E1500052204C696243205665723D20004743437C
:10E160002056657273696F6E203D20004350552024
:10E1700049442020202020203D20004C6F7720663D
:10E18000757365202020203D20004869676820665F
:10E190007573652020203D200045787420667573D6
:10E1A00065202020203D20004C6F636B2066757336
:10E1B000652020203D20004D617220203720323024
:10E1C000313300312E362E3800342E332E350056A2
:10E1D00023202020414444522020206F7020636F70
:10E1E00064652020202020696E73747275637469E1
:10E1F0006F6E2061646472202020496E74657272B3
:10E20000757074006E6F20766563746F7200726A49
:10E210006D702020006A6D70200057686174207056
:10E220006F72743A00506F7274206E6F7420737541
:10E2300070706F72746564004D7573742062652030
:10E2400061206C6574746572002000577269747483
:10E25000696E672045450052656164696E672045B7
:10E26000450045452065727220636E743D00504F35
:10E27000525400303D5A65726F2061646472003FF1
:10E280003D43505520737461747300403D454550C3
:10E29000524F4D207465737400423D426C696E6B41
:10E2A000204C454400453D44756D70204545505215
:10E2B0004F4D00463D44756D7020464C415348001B
:10E2C000483D48656C70004C3D4C69737420492F83
:10E2D0004F20506F72747300513D51756974005234
:10E2E0003D44756D702052414D00563D73686F7707
:10E2F00020696E7465727275707420566563746FF0
:10E30000727300593D506F727420626C696E6B00BD
:10E310002A0011241FBECFEFD1E2DEBFCDBF01E046
:10E320000CBF12E0A0E0B2E0EEE1FDEF03E00BBFB6
:10E3300002C007900D92A030B107D9F712E0A0E01B
:10E34000B2E001C01D92AE30B107E1F70F9460F367
:10E350000D948DFE01E20EBF0FEF0DBF11241FBE05
:10E360000D9460F30D9400F020E030E040ED57E0B4
:10E3700005C0FA013197F1F72F5F3F4F2817390792
:10E38000C0F308959C01260F311DC901A0E0B0E043
:10E390002F5F3F4FABBFFC018791882361F08093D3
:10E3A000C6008091C00086FFFCCF8091C0008064D1
:10E3B0008093C000EACF08958DE08093C6008091DD
:10E3C000C00086FFFCCF8091C00080648093C000B5
:10E3D0008AE08093C6008091C00086FFFCCF8091C8
:10E3E000C00080648093C00008950F94C2F10F9420
:10E3F000DCF10895FC019081992359F09093C600B7
:10E400008091C00086FFFCCF8091C0008064809323
:10E41000C0003196992379F70895282F982F929567
:10E420009F70892F805D8A3308F0895F8093C600D2
:10E430008091C00086FFFCCF8091C00080648093F3
:10E44000C000822F8F70982F905D9A3308F0995FEB
:10E450009093C6008091C00086FFFCCF8091C000E1
:10E4600080648093C00008959C01FB01853691056E
:10E470001CF46330710594F0C90164E670E00F94F8
:10E480002EFE605D7F4F6093C6008091C00086FFC6
:10E49000FCCF8091C00080648093C0002B30310598
:10E4A00014F43297B4F0C90164E670E00F942EFEC4
:10E4B0006AE070E00F942EFE605D7F4F6093C600AF
:10E4C0008091C00086FFFCCF8091C0008064809363
:10E4D000C000C9016AE070E00F942EFEC0968093E0
:10E4E000C6008091C00086FFFCCF8091C000806490
:10E4F0008093C00008951F93182F8EE692EE60E07F
:10E500000F94C2F11093C6008091C00086FFFCCF2B
:10E510008091C00080648093C0000F94DCF11F9153
:10E5200008952F923F924F925F926F927F928F92B7
:10E530009F92AF92BF92CF92DF92EF92FF920F9392
:10E540001F93DF93CF93CDB7DEB762970FB6F894E2
:10E55000DEBF0FBECDBF382E622ECA01DB015C01CB
:10E560006D01772420E2222E2E010894411C511CBB
:10E570008BC081E0A81680E0B80681E0C80680E084
:10E58000D80628F0C601AA27BB270F940DF2BB2797
:10E59000AD2D9C2D8B2D0F940DF28A2D0F940DF225
:10E5A0002092C6008091C00086FFFCCF8091C00001
:10E5B00080648093C0009DE29093C6008091C0006B
:10E5C00086FFFCCF8091C00080648093C0002092C1
:10E5D000C6008091C00086FFFCCF8091C00080649F
:10E5E0008093C00019828601750188249924A1E0D6
:10E5F0003A1651F03A1620F0B2E03B1661F409C029
:10E600000BBFF701779007C0C7010F9477FE782EF4
:10E6100002C0F7017080872D0F940DF22092C60082
:10E620008091C00086FFFCCF8091C0008064809301
:10E63000C000872D8052F401EF70F0708F3520F408
:10E64000E40DF51D708204C0E40DF51D8EE280839B
:10E650000894E11CF11C011D111D0894811C911CE2
:10E6600090E18916910409F0C2CF80E190E0A0E02A
:10E67000B0E0A80EB91ECA1EDB1E198AC2010F9493
:10E68000FAF10F94DCF16A94662009F072CF629679
:10E690000FB6F894DEBF0FBECDBFCF91DF911F91B3
:10E6A0000F91FF90EF90DF90CF90BF90AF909F9031
:10E6B0008F907F906F905F904F903F902F90089534
:10E6C0002F923F924F925F926F927F928F929F9282
:10E6D000AF92BF92CF92DF92EF92FF920F931F9370
:10E6E000DF93CF93CDB7DEB7CD53D1400FB6F894BB
:10E6F000DEBF0FBECDBF01E20EBF0FEF0DBF94B75F
:10E70000F894A89514BE80916000886180936000A1
:10E7100010926000789493FF05C0E0910002F091A0
:10E7200001021995279A2F9A8091C00082608093E8
:10E73000C00080E18093C40088E18093C1000000A4
:10E74000EE24FF24870144E0A42EB12CCC24DD2448
:10E7500024C0C5010197F1F70894E11CF11C011DCB
:10E76000111D21E2E2162EE4F20620E0020720E06D
:10E77000120718F031E0C32ED12CC801B70127ECE5
:10E780003BE140E050E00F9441FE611571058105C9
:10E79000910519F485B1805885B98091C00087FD35
:10E7A00003C0C114D104A9F2A6014F5F5F4FC25E3E
:10E7B000DE4F59834883CE51D140C25EDE4F8881FF
:10E7C0009981CE51D140019711F00D9410FEC05D9A
:10E7D000DE4F19821882C053D14060E0C15DDE4F28
:10E7E0001882CF52D14088249924C35DDE4F19820C
:10E7F0001882CD52D140C05EDE4F188219821A8233
:10E800001B82C052D140CE5CDE4F188219821A8220
:10E810001B82C253D140EE24FF2487010BBFF701B6
:10E8200007911691C45CDE4F19830883CC53D14005
:10E830000D940BFEC25EDE4F28813981CE51D1404E
:10E840002130310509F52091C600C25EDE4F1982E4
:10E850001882CE51D14022C02F5F3F4F4F4F5F4FA4
:10E86000213082E138078AE7480780E0580780F0C6
:10E87000C45CDE4FE881F981CC53D140EF5FFF4F9C
:10E8800019F0EE27FF27099420E030E040E050E047
:10E890008091C00087FFE0CF2091C600C35DDE4FAE
:10E8A00048815981CD52D1404F5F5F4FC35DDE4FEC
:10E8B00059834883CD52D140213209F063C64A3092
:10E8C000510508F05FC60894811C911C53E0851621
:10E8D000910409F059C600E010E018C081E280936D
:10E8E000C6008091C00086FFFCCF8091C00080648C
:10E8F0008093C0002F5F3F4F2931310579F70F9486
:10E90000DCF10F5F1F4F0530110519F020E030E0FA
:10E91000E5CF10920A0210920B0210920C02109294
:10E920000D02109206021092070210920802109235
:10E930000902109202021092030210920402109235
:10E9400005028FEE90EE60E00F94F5F180E191EE1C
:10E9500060E00F94C2F18091C00087FFFCCF9091DE
:10E96000C600903608F09F759032B8F09093C600BC
:10E970008091C00086FFFCCF8091C00080648093AE
:10E98000C000A0E2A093C6008091C00086FFFCCF2B
:10E990008091C00080648093C000983409F4D7C18E
:10E9A0009934B8F4923409F459C1933458F490333B
:10E9B00019F1903308F4E3C59F33A1F1903409F0C5
:10E9C000DEC5BDC0953409F470C1963409F0D7C5D1
:10E9D00098C1923509F42BC2933538F49C3409F46C
:10E9E000F5C1913509F0CBC518C2963509F445C279
:10E9F000993509F0C4C567C483E792EE62E00F94CD
:10EA0000F5F110920602109207021092080210927D
:10EA1000090210920A0210920B0210920C0210923C
:10EA20000D0213C18FE792EE62E00F94F5F18FEEC5
:10EA300090EE60E00F94F5F181E291EE60E00F94CA
:10EA4000C2F187EB91EE60E00F94F5F180E391EE77
:10EA500060E00F94C2F184EE90EE60E00F94F5F167
:10EA60008FE391EE60E00F94C2F186E090E061E008
:10EA700070E00F9434F20F94DCF18DE591EE60E0DC
:10EA80000F94C2F189EC91EE60E00F94F5F18EE401
:10EA900091EE60E00F94C2F183EC91EE60E00F9490
:10EAA000F5F18CE691EE60E00F94C2F18EE10F94E7
:10EAB0000DF288E90F940DF281E00F940DF20F949E
:10EAC000DCF18BE791EE60E00F94C2F119E0E0E039
:10EAD000F0E010935700E4918E2F0F940DF20F94F5
:10EAE000DCF18AE891EE60E00F94C2F1E3E0F0E03F
:10EAF00010935700E4918E2F0F940DF20F94DCF1D8
:10EB000089E991EE60E00F94C2F1E2E0F0E0109349
:10EB10005700E4918E2F0F940DF20F94DCF188EAE8
:10EB200091EE60E00F94C2F1E1E0F0E01093570045
:10EB30001491812F0F940DF20F94DCF107CF8BE825
:10EB400092EE62E00F94F5F18BE492EE60E00F94A8
:10EB5000F5F10F94DCF100E010E019C0C8016F2D51
:10EB60000F947FFEFF2031F489E492EE60E00F9471
:10EB7000C2F10BC0F092C6008091C00086FFFCCFAE
:10EB80008091C00080648093C0000F5F1F4FC80158
:10EB900081519F41A0E0B0E0ABBFFC01F790BAE229
:10EBA000FB1621F0E2E000301E07C1F60F94DCF105
:10EBB0000F94DCF187E592EE60E00F94F5F10F948D
:10EBC000DCF1CC24DD2400E010E01EC0C8010F946D
:10EBD00077FEF82E882331F489E492EE60E00F94FA
:10EBE000C2F10BC08093C6008091C00086FFFCCFAD
:10EBF0008091C00080648093C000FE1419F00894D6
:10EC0000C11CD11C0F5F1F4FC80181519F41A0E063
:10EC1000B0E0ABBFFC01E790FAE2EF1621F022E092
:10EC20000030120799F60F94DCF10F94DCF182E6C4
:10EC300092EE60E00F94C2F1C60161E070E00F94C3
:10EC400034F20F94DCF10F94DCF110920202109276
:10EC50000302109204021092050278CE89E992EE26
:10EC600062E00F94F5F1279A2F9A16C02F9880E052
:10EC700090E0E0EDF7E03197F1F7019684369105E9
:10EC8000C1F72F9A80E090E0E0EDF7E03197F1F7DF
:10EC9000019684369105C1F78091C00087FFE6CFC9
:10ECA0008091C00087FFFCCF64C485EA92EE62E0E9
:10ECB0000F94F5F140910202509103026091040219
:10ECC0007091050281E020E10F9491F2809102029F
:10ECD00090910302A0910402B091050280509F4FD1
:10ECE000AF4FBF4F8093020290930302A0930402A0
:10ECF000B093050280509041A040B04008F426CE69
:10ED0000A4CF83EB92EE62E00F94F5F140910602FE
:10ED100050910702609108027091090280E020E1A1
:10ED20000F9491F28091060290910702A09108023F
:10ED3000B091090280509F4FAF4FBF4F80930602A2
:10ED400090930702A0930802B0930902FFCD80ECD4
:10ED500092EE62E00F94F5F183E792EE60E00F949B
:10ED6000F5F18FE792EE60E00F94F5F18BE892EE0B
:10ED700060E00F94F5F189E992EE60E00F94F5F10F
:10ED800085EA92EE60E00F94F5F183EB92EE60E09D
:10ED90000F94F5F180EC92EE60E00F94F5F187ECC2
:10EDA00092EE60E00F94F5F188ED92EE60E00F9442
:10EDB000F5F18FED92EE60E00F94F5F18AEE92EEB0
:10EDC00060E00F94F5F183E093EEBDCD87EC92EE19
:10EDD00062E00F94F5F181E40F947BF282E40F94EA
:10EDE0007BF283E40F947BF284E40F947BF285E45E
:10EDF0000F947BF286E40F947BF287E40F947BF20E
:10EE000088E40F947BF28AE40F947BF28BE40F94F6
:10EE10007BF28CE40F947BF299CD88ED92EE62E068
:10EE20000F94F5F1772473948824992409C48FED05
:10EE300092EE62E00F94F5F140910A0250910B02BC
:10EE400060910C0270910D0282E020E10F9491F22A
:10EE500080910A0290910B02A0910C02B0910D02D8
:10EE600080509F4FAF4FBF4F80930A0290930B0289
:10EE7000A0930C02B0930D0269CD8AEE92EE62E08F
:10EE80000F94F5F184EE90EE60E00F94F5F18FECC5
:10EE900091EE60E00F94F5F1662477244301CC5D98
:10EEA000DE4F19821882C452D140D401C301B695F5
:10EEB000A79597958795CA5DDE4F88839983AA8326
:10EEC000BB83C652D140CC5DDE4FA881B981C4520C
:10EED000D1401196CC5DDE4FB983A883C452D14096
:10EEE000CD0162E070E00F9434F2B0E2B093C6005E
:10EEF0008091C00086FFFCCF8091C0008064809329
:10EF0000C000EDE2E093C6008091C00086FFFCCF18
:10EF10008091C00080648093C000F0E2F093C6004E
:10EF20008091C00086FFFCCF8091C00080648093F8
:10EF3000C000CA5DDE4FE880F9800A811B81C6529D
:10EF4000D140BB27A12F902F8F2D0F940DF2CA5DBA
:10EF5000DE4F8881C652D1400F940DF2B0E2FB2EF5
:10EF6000F092C6008091C00086FFFCCF8091C00067
:10EF700080648093C0000DE30093C6008091C000C0
:10EF800086FFFCCF8091C00080648093C00010E2B7
:10EF90001093C6008091C00086FFFCCF8091C00016
:10EFA00080648093C0008BBEF3012791C65DDE4F65
:10EFB0002883CA52D140A22EBB24CC24DD2408943D
:10EFC000611C711C811C911C8BBEF3018791282E42
:10EFD0003324442455240894611C711C811C911C09
:10EFE0008BBEF3013791C55DDE4F3883CB52D140E4
:10EFF0000894611C711C811C911C8BBEF30147910C
:10F00000C45DDE4F4883CC52D140ADEFEA2EAFEF66
:10F01000FA2EAFEF0A2FAFEF1A2F6E0C7F1C801E57
:10F02000911E142D032DF22CEE24EA0CFB1C0C1D5A
:10F030001D1D0F940DF220E22093C6008091C000A8
:10F0400086FFFCCF8091C00080648093C000C65DC5
:10F05000DE4F8881CA52D1400F940DF230E23093D6
:10F06000C6008091C00086FFFCCF8091C000806404
:10F070008093C000C45DDE4F8881CC52D1400F9494
:10F080000DF240E24093C6008091C00086FFFCCFA5
:10F090008091C00080648093C000C55DDE4F888190
:10F0A000CB52D1400F940DF250E25093C6008091A4
:10F0B000C00086FFFCCF8091C00080648093C000B8
:10F0C0008FEFE8168FEFF80680E0080780E018075A
:10F0D00031F484E092EE60E00F94C2F1DFC0D80119
:10F0E000C7018070907CA070B0708050904CA040A0
:10F0F000B040D1F52FEF3FE340E050E0E222F322B1
:10F1000004231523CA5DDE4FA880B980CA80DB8046
:10F11000C652D140AE0CBF1CC01ED11EAA0CBB1CD7
:10F12000CC1CDD1C8EE092EE60E00F94C2F1BB2798
:10F13000A12F902F8F2D0F940DF28E2D0F940DF285
:10F1400030E23093C6008091C00086FFFCCF8091F2
:10F15000C00080648093C0004EE34093C60080915D
:10F16000C00086FFFCCF87C08EE09EEFA0E0B0E03D
:10F17000E822F9220A231B239CE0E91694E9F90608
:10F1800090E0090790E0190709F088C0C45DDE4FE0
:10F19000A881CC52D140EA2EFF2400E010E0102FCD
:10F1A0000F2DFE2CEE24C55DDE4FB881CB52D14031
:10F1B000EB0EF11C011D111DD601C501817090706F
:10F1C000A070B070DC0199278827E80EF91E0A1F8D
:10F1D0001B1F20EF30E040E050E0A222B322C42207
:10F1E000D52241E1AA0CBB1CCC1CDD1C4A95D1F7F1
:10F1F000EA0CFB1C0C1D1D1D81E090E0A0E0B0E0BE
:10F20000282239224A225B2235E1220C331C441C7D
:10F21000551C3A95D1F7E20CF31C041D151D57013E
:10F220006801AA0CBB1CCC1CDD1C85E192EE60E0E1
:10F230000F94C2F1C801AA27BB270F940DF2BB2778
:10F24000A12F902F8F2D0F940DF28E2D0F940DF274
:10F2500090E29093C6008091C00086FFFCCF809121
:10F26000C00080648093C000AEE3A093C60080918C
:10F27000C00086FFFCCF8091C00080648093C000F6
:10F28000C601AA27BB270F940DF2BB27AD2D9C2DDD
:10F290008B2D0F940DF28A2D0F940DF20F94DCF14B
:10F2A000CC5DDE4FE881F981C452D140F99709F471
:10F2B0004DCBF4E0EF2EF12C012D112D6E0C7F1CA7
:10F2C000801E911EF2CD83E093EE62E00F94F5F183
:10F2D0008AE192EE60E00F94C2F18091C00087FF56
:10F2E000FCCF1091C6001F751093C6008091C0001E
:10F2F00086FFFCCF8091C00080648093C0000F9493
:10F30000DCF1812F81548A3108F036C1163409F4BA
:10F3100095C0173490F4133409F44EC0143430F40B
:10F320001134F1F0123409F01DC130C0143409F465
:10F3300059C0153409F016C16BC01A3409F4C4C0A1
:10F340001B3438F4173409F48FC0183409F00AC19B
:10F35000A1C01B3409F4D2C01C3409F003C1E8C0B9
:10F360008FEF81B90DC082B1809582B980E090E0C5
:10F37000E0EDF7E03197F1F70196883C9105C1F790
:10F380008091C00087FFEFCF12B8EFC08FEF84B934
:10F390000DC085B1809585B980E090E0E0EDF7E0A3
:10F3A0003197F1F70196883C9105C1F78091C00033
:10F3B00087FFEFCF15B8D9C08FEF87B90DC088B1DF
:10F3C000809588B980E090E0E0EDF7E03197F1F7C3
:10F3D0000196883C9105C1F78091C00087FFEFCF6F
:10F3E00018B8C3C08FEF8AB90DC08BB180958BB9A7
:10F3F00080E090E0E0EDF7E03197F1F70196883C8E
:10F400009105C1F78091C00087FFEFCF1BB8ADC059
:10F410008FEF8DB90DC08EB180958EB980E090E0F0
:10F42000E0EDF7E03197F1F70196883C9105C1F7DF
:10F430008091C00087FFEFCF1EB897C08FEF80BBD1
:10F440000DC081B3809581BB80E090E0E0EDF7E0F6
:10F450003197F1F70196883C9105C1F78091C00082
:10F4600087FFEFCF11BA81C08FEF83BB0DC084B38C
:10F47000809584BB80E090E0E0EDF7E03197F1F714
:10F480000196883C9105C1F78091C00087FFEFCFBE
:10F4900014BA6BC08FEF809301010FC080910201FD
:10F4A00080958093020180E090E0E0EDF7E03197F5
:10F4B000F1F70196883C9105C1F78091C00087FF64
:10F4C000EDCF1092020151C08FEF809304010FC065
:10F4D0008091050180958093050180E090E0E0ED4A
:10F4E000F7E03197F1F70196883C9105C1F78091DB
:10F4F000C00087FFEDCF1092050137C08FEF8093DA
:10F5000007010FC08091080180958093080180E079
:10F5100090E0E0EDF7E03197F1F70196883C910536
:10F52000C1F78091C00087FFEDCF109208011DC088
:10F530008FEF80930A010FC080910B01809580931B
:10F540000B0180E090E0E0EDF7E03197F1F70196F4
:10F55000883C9105C1F78091C00087FFEDCF1092E4
:10F560000B0103C085E292EEEEC98091C00087FFD7
:10F57000FCCF8091C600EAC988E392EEE4C98CE131
:10F5800091EEE1C988249924933011F1943028F444
:10F59000913089F09230B8F408C0953061F195301F
:10F5A000F0F0963009F048C043C02B3109F042C951
:10F5B00091E06BE13FC96227C15DDE4F2883CF52E6
:10F5C000D14092E037C9B22FA0E0622793E032C960
:10F5D000822F90E0A82BB92B622794E02BC92E3004
:10F5E00009F039C3622795E0C05DDE4F19821882A9
:10F5F000C053D1401FC9E1E0F0E0EC0FFD1FC05D3A
:10F60000DE4F08811981C053D140E00FF11F2083E4
:10F610000F5F1F4FC05DDE4F19830883C053D14079
:10F6200062270A171B0709F005C9D80196E002C92D
:10F63000261709F010C303C0973009F0FBC87724E0
:10F640009981933109F412C19431C8F4963009F4C8
:10F65000D8C0973050F4923009F406C1933009F4C1
:10F660006DC0913009F059C253C0913109F477C08F
:10F67000923108F0BBC0903109F04FC2F5C098310B
:10F6800009F487C0993150F4953109F4EFC09531F0
:10F6900008F4C6C1963109F040C2C2C19A3109F4DA
:10F6A0006CC09A3108F491C09B3109F45BC09D3164
:10F6B00009F033C29D81903359F48F81882311F46E
:10F6C0009EE11CC0813011F091E018C098E916C08D
:10F6D000892F807591F0903539F4E0E0F0E089E011
:10F6E0008093570094910AC0983539F4E3E0F0E034
:10F6F00089E080935700949101C090E01A821B82A8
:10F700008D818C831D829E831F8227E030E009C299
:10F710001A8288E08B8381E48C8386E58D8382E581
:10F720008E8389E48F8383E5888780E589878FE5E9
:10F730008A8782E38B872BE030E0F3C18A818139AD
:10F7400041F0823941F0803911F48FE005C080E04A
:10F7500003C082E001C08AE01A828B8344C0772410
:10F76000739482C08D81882311F48EE12CC0813086
:10F7700011F081E028C088E926C01A82E1E0F0E0BB
:10F7800089E08093570084918B831C8224E030E0D1
:10F79000C8C18B81803589F48C81883039F4E2E0EE
:10F7A000F0E089E08093570084910DC0E0E0F0E044
:10F7B00089E080935700849106C0E3E0F0E089E09F
:10F7C0008093570084911A82DFCF8D81836C99E0FA
:10F7D000E1E0F0E0082E90935700E89507B600FCB2
:10F7E000FDCF1A821B8223E030E09BC180EC8A832C
:10F7F000CE5CDE4F188219821A821B82C253D1401E
:10F800008EC18A8190E0A0E0B0E0582F44273327D2
:10F8100022278B8190E0A0E0B0E0DC0199278827C7
:10F82000282B392B4A2B5B2B8D8190E0A0E0B0E098
:10F83000282B392B4A2B5B2B8C8190E0A0E0B0E089
:10F84000BA2FA92F982F8827282B392B4A2B5B2BCF
:10F85000220F331F441F551FC05EDE4F288339839C
:10F860004A835B83C052D1401A8259C13A81C95C34
:10F87000DE4F3883C753D140CA5CDE4F1882C6536F
:10F88000D1408B81C82EDD24CA5CDE4F488159816E
:10F89000C653D140C42AD52A933109F082C0CE5C28
:10F8A000DE4F88819981AA81BB81C253D1408050AB
:10F8B000904CA340B04030F583E0CE5CDE4FE88052
:10F8C000F9800A811B81C253D140F70100935B008C
:10F8D00080935700E89507B600FCFDCFCE5CDE4F65
:10F8E000088119812A813B81C253D14000501F4FAA
:10F8F0002F4F3F4FCE5CDE4F088319832A833B8313
:10F90000C253D140C05EDE4F488159816A817B81FC
:10F91000C052D140DE011B9631E08C9111962C91A2
:10F9200011971296C75CDE4F2883C953D140C85C3B
:10F93000DE4F1882C853D14090E0C85CDE4FE881AA
:10F94000F981C853D1408E2B9F2B0C01FA01609393
:10F950005B0030935700E89511244E5F5F4F6F4F67
:10F960007F4F0EEFE02E0FEFF02ECE0CDF1CC114F8
:10F97000D10499F685E0C05EDE4F088119812A81A5
:10F980003B81C052D140F80120935B008093570027
:10F99000E89507B600FCFDCF81E180935700E8951C
:10F9A00035C0C05EDE4F88819981AA81BB81C0527B
:10F9B000D140B695A795979587957C018601ABE0D8
:10F9C000AA2EB12CAC0EBD1E0BC0D5016D915D01F0
:10F9D000C7010F947FFE0894E11CF11C01501040F8
:10F9E0000115110591F7A60160E070E0440F551F65
:10F9F000661F771FC05EDE4FE880F9800A811B8199
:10FA0000C052D1404E0D5F1D601F711F1A82C05E33
:10FA1000DE4F488359836A837B83C052D1407FC0C5
:10FA2000FA80C55CDE4FF882CB53D140C65CDE4F16
:10FA30001882CA53D1408B81C82EDD24C65CDE4FAC
:10FA400008811981CA53D140C02AD12A1A828981DA
:10FA5000BE016D5F7F4F843121F59601C05EDE4FA0
:10FA6000E880F9800A811B81C052D1400BBFF701A9
:10FA700087919691DB018C9311969C936E5F7F4FDB
:10FA8000D801C7010296A11DB11DC05EDE4F88835B
:10FA90009983AA83BB83C052D14022503040F1F6F3
:10FAA00036C0C05EDE4F288139814A815B81C052F9
:10FAB000D1400894C108D108760100E010E0089414
:10FAC000C11CD11C0894E11CF11C011D111DE20E8A
:10FAD000F31E041F151F21BDBB27A52F942F832FB5
:10FAE00082BD2F5F3F4F4F4F5F4FF89A80B5DB01CC
:10FAF0008D93BD012E153F054007510761F7C05E8C
:10FB0000DE4F288339834A835B83C052D1409601FC
:10FB10002D5F3F4FFB01108204C080EC8A8322E0FE
:10FB200030E08BE18093C6008091C00086FFFCCF5F
:10FB30008091C00080648093C000C15DDE4FF88179
:10FB4000CF52D140F093C6008091C00086FFFCCF19
:10FB50008091C00080648093C000432F3093C60022
:10FB60008091C00086FFFCCF8091C00080648093AC
:10FB7000C000922F2093C6008091C00086FFFCCF6A
:10FB80008091C00080648093C0008EE08093C600A6
:10FB90008091C00086FFFCCF8091C000806480937C
:10FBA000C00065E1C15DDE4FE880CF52D1406E25D7
:10FBB00069276427FE01319610C090819093C6009A
:10FBC0008091C00086FFFCCF31968091C000806498
:10FBD0008093C0006927215030402115310569F715
:10FBE0006093C6008091C00086FFFCCF8091C0006A
:10FBF00080648093C00085B1805885B9772081F4F6
:10FC0000C15DDE4F0881CF52D1400F5FC15DDE4F35
:10FC10000883CF52D14090E0A0E0B0E00D941AF4F8
:10FC200027982F9880E090E020ED37E0F901319798
:10FC3000F1F7019684369105C9F700008091C00064
:10FC40008D7F8093C00081E180935700E895EE2777
:10FC5000FF270994FFCF90E00D941AF497FB092E2B
:10FC600007260AD077FD04D02ED006D000201AF443
:10FC7000709561957F4F0895F6F7909581959F4F08
:10FC80000895A1E21A2EAA1BBB1BFD010DC0AA1FDD
:10FC9000BB1FEE1FFF1FA217B307E407F50720F0F5
:10FCA000A21BB30BE40BF50B661F771F881F991F70
:10FCB0001A9469F760957095809590959B01AC01B9
:10FCC000BD01CF010895AA1BBB1B51E107C0AA1FAC
:10FCD000BB1FA617B70710F0A61BB70B881F991FED
:10FCE0005A95A9F780959095BC01CD010895F99991
:10FCF000FECF92BD81BDF89A992780B50895262F31
:10FD0000F999FECF1FBA92BD81BD20BD0FB6F89400
:0EFD1000FA9AF99A0FBE01960895F894FFCF63
:040000033000E000E9
:00000001FF
