:1000000045C100000C94670E0C943C0E0C94110E2C
:100010000C94E60D0C94BB0D0C94900D0C94650D96
:100020000C943A0D64C1000062C1000060C1000080
:100030005EC100005CC100005AC1000058C1000050
:1000400056C1000054C1000052C1000050C1000060
:100050004EC100004CC100004AC100000C94F00CDD
:1000600046C100000C94C60C0C949C0C40C10000CE
:100070003EC100003CC100003AC1000038C1000090
:1000800036C1000034C1000032C1000030C10000A0
:100090002EC100002CC100002AC1000028C10000B0
:1000A00026C1000024C1000022C1000020C10000C0
:1000B0001EC100001CC100001AC1000018C10000D0
:1000C00016C1000014C1000012C100000C94720C93
:1000D0000C94480C0CC100000C941E0C0C94F40BF6
:1000E00006C1000007634236B79BD8A71A39685685
:1000F00018AEBAAB558C1D3CB7CC5763BD6DEDFD4A
:10010000753EF6177231BF000000803F05A84CCD48
:10011000B2D44EB93836A9020C50B9918688083C41
:10012000A6AAAA2ABE000000803F08000000BE92D6
:100130002449123EABAAAA2ABECDCCCC4C3E00002C
:100140000080BEABAAAAAA3E00000000BF000000CB
:10015000803F0000000000084178D3BB4387D113E3
:100160003D190E3CC3BD4282AD2B3E68EC8276BE8B
:10017000D98FE1A93E4C80EFFFBE01C4FF7F3F0055
:100180000000000000002100240027002A002D00AC
:100190003000330001010000040107010A010000E2
:1001A0002200250028002B002E003100340002011F
:1001B0000000050108010B010505050507050808F4
:1001C0000808020202020A0A0808040404040101E1
:1001D00001010101010103030303030303030407F6
:1001E00007070C0C0C0C0C0C0C0C0202020206068D
:1001F0000606060606060B0B0B0B0B0B0B0B010280
:100200001020200808102040102040800201020128
:1002100008040201010204081020408080402010E0
:100220000804020180040201804020100804020139
:1002300008040201010204081020408001020408A1
:100240001020408000000A0B02090C0D0E08070365
:100250000401000000000000000000000000000099
:10026000000000000000000000000000000000008E
:10027000121110000000000000000000000000004B
:1002800000000000000000000000920E11241FBEBC
:10029000CFEFD1E2DEBFCDBF00E00CBF13E0A0E0A6
:1002A000B2E0E0E9FAE300E00BBF02C007900D9274
:1002B000A434B107D9F728E0A4E4B3E001C01D924B
:1002C000A034B207E1F711E0C6E4D1E000E006C0D7
:1002D00021970109802FFE010E94F81BC534D10728
:1002E00080E00807A9F70E94B6100C94461D88CE3E
:1002F000109292031092930310929403109295031C
:1003000010928E0310928F0310929003109291031B
:1003100010928A0310928B0310928C0310928D031B
:10032000109286031092870310928803109289031B
:1003300008954091920350919303609194037091BA
:10034000950380918E0390918F03A0919003B091BB
:10035000910384179507A607B707B8F48FEF80932A
:100360004C038091920390919303A0919403B091D8
:1003700095030196A11DB11D809392039093930361
:10038000A0939403B0939503089581E0E8CF809102
:100390008E0390918F03A0919003B09191030196E9
:1003A000A11DB11D80938E0390938F03A0939003A2
:1003B000B0939103089540918A0350918B0360910B
:1003C0008C0370918D038091860390918703A09197
:1003D0008803B091890384179507A607B707B8F477
:1003E0008FEF80934D0380918A0390918B03A091AE
:1003F0008C03B0918D030196A11DB11D80938A03DA
:1004000090938B03A0938C03B0938D03089581E0A8
:10041000E8CF8091860390918703A0918803B091E3
:1004200089030196A11DB11D8093860390938703D4
:10043000A0938803B09389030895AF92BF92CF929F
:10044000DF92EF92FF920F931F93CF93DF936C0194
:100450007B018B01040F151FEB015E01AE18BF0875
:10046000C017D10759F06991D601ED91FC91019027
:10047000F081E02DC6011995892B79F7C501DF912F
:10048000CF911F910F91FF90EF90DF90CF90BF9091
:10049000AF900895FC01A089B1898C91A689B78994
:1004A00082FD0FC09C91818D8F5F8F73228D82178B
:1004B00049F0A18DAE0FBF2FB11D5D969C93818F2A
:1004C00008958C910895FC01538D448D252F30E0C3
:1004D000842F90E0821B930B541710F0CF96089551
:1004E00001970895FC01918D828D981761F0A28D7E
:1004F000AE0FBF2FB11D5D968C91928D9F5F9F7344
:10050000928F90E008958FEF9FEF0895FC01918DF9
:10051000828D981731F0828DE80FF11D858D90E066
:1005200008958FEF9FEF0895FC01918D228D892F03
:1005300090E0805C9F4F821B91098F7399270895EB
:1005400086E993E0F1DF21E0892B09F420E0822F96
:10055000089583E394E0E8DF21E0892B09F420E0AB
:10056000822F089580ED94E0DFDF21E0892B09F4EC
:1005700020E0822F0895CF92DF92EF92FF921F9397
:10058000CF93DF93EC016A017B01122FE889F9898F
:1005900082E08083C11481EED806E104F104B1F158
:1005A00060E079E08DE390E0A70196010E94E017FA
:1005B000215031094109510956954795379527959D
:1005C000EC85FD851082EE85FF852083188EEC89F1
:1005D000FD891083EA89FB89808180618083EA89B3
:1005E000FB89808188608083EA89FB8980818068BB
:1005F0008083EA89FB8980818F7D8083DF91CF9121
:100600001F91FF90EF90DF90CF900895E889F989CE
:10061000108220E1D5CFFC01A48DA80FB92FB11D08
:10062000A35ABF4F2C91848D90E001968F73992728
:10063000848FA689B7892C93A089B1898C91837006
:1006400080648C93938D848D981306C00288F389FF
:10065000E02D80818F7D80830895EF92FF920F932C
:100660001F93CF93DF93EC0181E0888F9B8D8C8D5E
:1006700098131AC0E889F989808185FF15C09FB752
:10068000F894EE89FF896083E889F9898081837015
:10069000806480839FBF81E090E0DF91CF911F91C4
:1006A0000F91FF90EF900895F62E0B8D10E00F5FE5
:1006B0001F4F0F731127E02E8C8D8E110BC00FB6BC
:1006C00007FCFACFE889F989808185FFF5CFCE0153
:1006D000A2DFF2CFEB8DEC0FFD2FF11DE35AFF4FA0
:1006E000F0829FB7F8940B8FEA89FB898081806242
:1006F000D0CFCF93DF93EC01888D8823B1F0AA8906
:10070000BB89E889F9898C9185FD03C0808186FDCC
:100710000CC00FB607FCF7CF8C9185FFF2CF80811C
:1007200085FFEDCFCE0177DFEACFDF91CF9108953E
:1007300080915D0390915E03A0915F03B09160038F
:100740000196A11DB11D80935D0390935E03A0935C
:100750005F03B09360030895282F30E0F901EC5B4C
:10076000FD4F9491F901E250FE4F449128543E4FC1
:10077000F9012491222309F435C0992311F19150F4
:100780009231F8F4E92FF0E08827E653FC4F8F4FC1
:100790000C94F81BFB03FF03DC03F303F703E103F3
:1007A000020408040C04120416041A04200424048D
:1007B000E10328042E043204809180008F77809317
:1007C0008000E22FF0E0EE0FFF1FE256FE4FA591F2
:1007D000B4918FB7F894EC91611148C040954E23C5
:1007E0004C938FBF0895809180008F7DE8CF8091DA
:1007F0008000877FE4CF84B58F7784BDE2CF84B556
:100800008F7DFBCF8091B0008F778093B000D9CFE0
:100810008091B0008F7DF9CF809190008F77809389
:100820009000CFCF809190008F7DF9CF8091900084
:10083000877FF5CF8091A0008F778093A000C1CFF4
:100840008091A0008F7DF9CF8091A000877FF5CFA8
:10085000809120018F7780932001B3CF8091200178
:100860008F7DF9CF80912001877FF5CF4E2BB8CFB8
:10087000CF93DF9390E0FC01E250FE4F2491885427
:100880009E4FFC0184918823D1F090E0880F991F3E
:10089000FC01EC57FE4FA591B491FC01E256FE4FCE
:1008A000C591D491623071F49FB7F8943C91822F36
:1008B000809583238C93E8812E2B28839FBFDF9123
:1008C000CF9108958FB7F894EC912E2B2C938FBF76
:1008D000F6CF90917B00977F90937B00806480930C
:1008E0007C0080917A00806480937A0080917A0005
:1008F00086FDFCCF809178009091790008953FB7F4
:10090000F89480914F0390915003A0915103B091BE
:10091000520326B5A89B05C02F3F19F00196A11DD3
:10092000B11D3FBFBA2FA92F982F8827BC01CD0139
:10093000620F711D811D911D42E0660F771F881F98
:10094000991F4A95D1F708958F929F92AF92BF92C7
:10095000CF92DF92EF92FF924B015C01D0DF6B01EF
:100960007C01CDDF6C197D098E099F09683E7340BB
:1009700081059105B0F321E0821A9108A108B10820
:1009800088EEC80E83E0D81EE11CF11C811491048E
:10099000A104B10431F7FF90EF90DF90CF90BF90AA
:1009A000AF909F908F9008950895CF92DF92EF922D
:1009B000FF92CF93DF93EC016A017B01F89461E031
:1009C0008881CADE20E030E04AEF53ECC701B6016F
:1009D0000E94C91920E030E049EB54E40E9412184B
:1009E0000E94E2186230710548F0660F771F660FAB
:1009F000771F65507109CB010197F1F760E088819D
:100A0000ABDE7894DF91CF91FF90EF90DF90CF90A5
:100A10000895CF93DF93EC0161E0888129DF60E0E6
:100A200088819ADE40E050E0BA01CE01BEDF60E08E
:100A3000888192DE19821A821B821C82DF91CF91FB
:100A40000895CF9380919805823011F5C3E080918D
:100A5000990590919A05DC01ED91FC910084F18556
:100A6000E02D1995892BA1F080919805833081F0B4
:100A70008091990590919A05DC01ED91FC91028499
:100A8000F385E02D1995892B11F7C0939805DFCFD9
:100A9000C0919805C33039F58091990590919A05D8
:100AA000DC01ED91FC910084F185E02D1995892BF5
:100AB000D1F08091990590919A05DC01ED91FC911E
:100AC0000284F385E02D19958F3009F08AC181E009
:100AD0008093980510929605EDE7F5E01192B5E048
:100AE000E339FB07D9F780919805813009F077C188
:100AF0008091990590919A05DC01ED91FC9100841B
:100B0000F185E02D199520919605892B19F0283152
:100B100008F46CC1283109F062C1809194058111FB
:100B20007BC11092960540917E0550E080917D0535
:100B300090917E05977090939C0580939B052091E2
:100B40007F0530E0C90165E0880F991F6A95E1F7DC
:100B500073E0559547957A95E1F7842B952B97701F
:100B600090939E0580939D054091810550E0909162
:100B70008005B4E09B9FC0011124BA01762F66273F
:100B8000770F770F862B972BF6E035952795FA95FB
:100B9000E1F7822B932B97709093A00580939F058C
:100BA0002091820530E0C9019695982F8827979566
:100BB000879555954795482B592B57705093A2050B
:100BC0004093A1056091830570E0AB01C4E0440F40
:100BD000551FCA95E1F784E0359527958A95E1F789
:100BE000242B352B37703093A4052093A305409117
:100BF000850550E090918405892F90E0880F991F1A
:100C00009A01322F2227330F822B932B660F672FE7
:100C1000661F770B862B972B97709093A605809372
:100C2000A5058091860590E09C01A6E0220F331F68
:100C3000AA95E1F75595479555954795242B352B62
:100C400037703093A8052093A7052091870548E0C9
:100C5000249F90011124C5E095958795CA95E1F7E9
:100C6000822B932B9093AA058093A9054091890527
:100C700050E0809188059091890597709093AC051C
:100C80008093AB0520918A0530E0C90165E0880FAB
:100C9000991F6A95E1F773E0559547957A95E1F7C5
:100CA000842B952B97709093AE058093AD05409162
:100CB0008C0550E090918B0564E0969FC001112453
:100CC000BA01762F6627770F770F862B972BF6E0E2
:100CD00035952795FA95E1F7822B932B9770909392
:100CE000B0058093AF0520918D0530E0C901969540
:100CF000982F88279795879555954795482B592B79
:100D000057705093B2054093B10540918E0550E065
:100D1000CA01C4E0880F991FCA95E1F764E03595D0
:100D200027956A95E1F7282B392B37703093B40556
:100D30002093B3052091900530E090918F05892F85
:100D400090E0880F991FB901762F6627770F862BC1
:100D5000972B440F452F441F550B842B952B9770D1
:100D60009093B6058093B5058091910590E0AC0114
:100D7000A6E0440F551FAA95E1F7359527953595BF
:100D80002795242B352B37703093B8052093B70562
:100D900020919205A8E02A9F90011124C5E0959525
:100DA0008795CA95E1F7822B932B9093BA05809390
:100DB000B90580919305282F207830E03093BC0549
:100DC0002093BB05282F207430E03093BE0520937C
:100DD000BD058F738093970583E080939805CF912D
:100DE00008958111C2E0C09398057DCE8091990548
:100DF00090919A05DC01ED91FC910284F385E02D40
:100E00001995E091960591E09E0F90939605F0E07C
:100E1000E358FA4F80836CCE82E0DFCFA3DB8111F1
:100E200087DC80E090E0892B49F080E090E0892B1E
:100E300029F00E94000081110E9400008ADB8111CC
:100E400000DE80E090E0892B21F07ADB81110C94A8
:100E500000000895CF92DF92EF92FF9269017A012C
:100E60006093790570937A0580937B0590937C0558
:100E7000AB01BC0188E795E098DDC0927405D09283
:100E80007505E0927605F0927705B701A60183E734
:100E900095E0FF90EF90DF90CF9087CDFC01118619
:100EA0001086138212821582148215A214A280E188
:100EB00097E2978F868F0895DC015A96ED91FC9109
:100EC00020E030E0A901CA01B9011994CF93DF9362
:100ED000EC01EA8DFB8D20E030E0A901CA01B901E7
:100EE0001995EC8DFD8DDF91CF9119940895FB013B
:100EF00001900020E9F73197AF01461B570B9DCABF
:100F00008F929F92AF92BF92EF92FF920F931F9397
:100F1000CF93DF93CDB7DEB7A1970FB6F894DEBFBE
:100F20000FBECDBF7C01FA01CB0119A2223008F41B
:100F30002AE08E010F5D1F4F822E912CB12CA12C27
:100F4000BF01A50194010E94E017F901CA016A30AE
:100F500004F5605DD8016E938D01232B242B252B86
:100F600079F790E080E0109719F0BD01C701BFDF6D
:100F7000A1960FB6F894DEBF0FBECDBFDF91CF9123
:100F80001F910F91FF90EF90BF90AF909F908F9027
:100F90000895695CDFCFCF92DF92EF92FF920F93BB
:100FA0001F93CF93DF93EC016A017B016DE255DB68
:100FB0008C0144275527BA014C195D096E097F0938
:100FC0002AE0CE019DDF800F911FDF91CF911F910D
:100FD0000F91FF90EF90DF90CF900895CF93DF9324
:100FE000BC0186E993E083DFEC0165E472E086E909
:100FF00093E07DDF8C0F9D1FDF91CF9108952F929D
:101000003F924F925F926F927F928F929F92AF9298
:10101000BF92CF92DF92EF92FF920F931F93CF93E5
:10102000DF9300D000D000D0CDB7DEB78C01DC015B
:1010300018968D919C9119970097D9F0019721F1FD
:1010400029960FB6F894DEBF0FBECDBFDF91CF91CA
:101050001F910F91FF90EF90DF90CF90BF90AF90D6
:101060009F908F907F906F905F904F903F902F90C8
:10107000089588E492E0B2DF81E090E0F801918782
:10108000808715A214A2DCCF1296AD90BC90139766
:101090001696ED91FC911797F887EF835A962D914C
:1010A0003C915B973C832B83AE16BF0644F41496A9
:1010B0008D919C919A838983E817F9075CF520E06C
:1010C00030E0A901CA01B901EB81FC81199582E0E8
:1010D00090E0D80119969C938E9318975C96ED91A9
:1010E000FC9129960FB6F894DEBF0FBECDBFDF91FD
:1010F000CF911F910F91FF90EF90DF90CF90BF9015
:10110000AF909F908F907F906F905F904F903F90A7
:101110002F901994F80164A175A1072E000C880B7B
:10112000990B0E9415192AE037ED43E25CE30E9417
:10113000C9196B017C01D8011E965C901E971F9601
:101140006C901F9750967C90509751964C90252DFF
:10115000362D472D542D0E94761887FF04C05C2C35
:101160006D2C7E2C4F2C69817A816A0D7B1D072E98
:10117000000C880B990B0E94151920E030E040E02C
:101180005FE30E94C9196B017C01EF81F885BF0103
:10119000FF0F880B990B0E94151923E333E343E7F4
:1011A0005FE30E94C9194B018D839E836F8178850F
:1011B0006431710514F464E170E064517109072E23
:1011C000000C880B990B0E9415191B0189879F83BE
:1011D0009B01AC01B4018D819E810E94761887FF2E
:1011E00005C01401FD81F9872E812F83A701960187
:1011F000B10189859F810E94761887FF3DC02DEC43
:101200003CEC4CEC5EE3652D762D872D942D0E94F1
:10121000C51918168CF5910149855F81C701B60182
:101220000E9411182DEC3CEC4CE45EEB0E94C919B5
:101230009B01AC0160E070E080E090E40E942C1A19
:101240009B01AC01652D762D872D942D0E94C91927
:10125000562E672E782E492E2DEC3CEC4CEC5EE39E
:101260000E94C519181644F08DEC582E9CEC692E7E
:101270002CEC722E3EE3432ED8011A96CD90DD90D1
:10128000ED90FC901D97B501BB0C880B990B0E944B
:101290001519A70196010E94C9194B015C01E9814A
:1012A000FA81BF01FF0F880B990B0E9415199B0152
:1012B000AC01C501B4010E9411180E94E2187A83A2
:1012C0006983072E000C880B990B0E9415194B019E
:1012D0005C0120E030E040EA51E40E94761887FF8C
:1012E000B1C020E030E040EA51ECC501B4010E94F9
:1012F000C519181624F02CEE3FEF3A832983D80144
:101300005E966D917C91072E000C880B990B0E94C4
:10131000151920E030E44CE156E40E94C51987FD20
:1013200005C029813A81F801378F268FD8015E9652
:101330008D919C9169817A81681B790B072E000C35
:10134000880B990B0E941519F80122A533A544A515
:1013500055A50E94C9194B015C0129813A81B90147
:10136000330F880B990B0E941519D80196962D9171
:101370003D914D915C9199970E94C9199B01AC01D7
:10138000C501B4010E9412184B015C0120E030E05D
:1013900040E85FE3C701B6010E9412189B01AC014F
:1013A000652D762D872D942D0E947A186B017C0176
:1013B000AC019B01652D762D872D942D0E9411186F
:1013C0002B013C0120E030E040E85FE3C501B401BF
:1013D0000E941218A30192010E94C919F8012689DE
:1013E0003789408D518D0E94C9192B013C01A501FF
:1013F000940160E070E080E89FE30E941118A7016B
:1014000096010E94C919D80152962D913D914D9196
:101410005C9155970E94C919A3019201EB81FC814F
:101420001995E981FA81D8015F96FC93EE935E9756
:1014300094968D919C919597019695969C938E93F9
:101440009497FECD84E190E09A83898358CF4FCD65
:101450004F925F926F927F928F929F92AF92BF92C4
:10146000CF92DF92EF92FF92CF936B017C01842E9B
:10147000AC019B010E947E1A6CE572E0811126C0CE
:1014800026013701E89477F82FEF3FEF4FE75FE74A
:10149000C301B2010E947E1A81110CC02FEF3FEFF1
:1014A0004FE75FE7C301B2010E94761860E672E081
:1014B000181664F02FEF3FEF4FE75FE4C701B60166
:1014C0000E94C519181694F464E672E086E993E068
:1014D000CF91FF90EF90DF90CF90BF90AF909F9013
:1014E0008F907F906F905F904F9001CD2FEF3FEFE7
:1014F0004FE75FECC701B6010E94761887FDE4CF85
:1015000020E030E0A901C701B6010E947618B12C95
:10151000A12C87FF09C06DE286E993E09ED85C01AB
:10152000F7FAF094F7F8F094C82D60E070E080E0EE
:101530009FE3912C20E030E040E251E40E947A18D1
:1015400093949814B8F3A70196010E9412182B01E6
:101550003C010E94E7186B017C010E9413199B015A
:10156000AC01C301B2010E9411182B013C012AE019
:10157000B701A60186E993E0C3DC7C016EE286E94F
:1015800093E06BD8E80EF91EEA0CFB1CC15020F169
:1015900020E030E040E251E4C301B2010E94C919E9
:1015A0002B013C010E94E7184B01B12CA12C2AE031
:1015B000B501A40186E993E0A3DCE80EF91EC5019C
:1015C000B4010E9413199B01AC01C301B2010E9436
:1015D00011182B013C01DACFC701CF91FF90EF909A
:1015E000DF90CF90BF90AF909F908F907F906F9043
:1015F0005F904F900895CF93DF93EC01888199819C
:10160000009759F54F8558892D813E81429FC00131
:10161000439F900D529F900D11242B853C85280FE0
:10162000391F8B819C8101974817590798F44F5FA8
:101630005F4F588B4F87CB014D815E81B9010E946E
:101640003D1D89899A8901979A8B898B81E0DF9169
:10165000CF910895188A1F86EECF0197F9F42D8552
:101660003E8521153105A1F0215031093E872D8796
:101670004D815E812D853E85429FC001439F900D27
:10168000529F900D11242B853C85280F391FD3CFF5
:101690008B819C8101979E878D87EACF80E0D7CF91
:1016A000CF93DF93EC018A81811107C04B815C816C
:1016B00029893A8942175307D9F14D815E812D85D9
:1016C0003E85429FC001439F900D529F900D112473
:1016D0002B853C85820F931F0E943D1D2B813C81F1
:1016E0008D859E85A901415051098417950768F49D
:1016F00001969E878D8789899A892817390741F035
:1017000001969A8B898B81E013C01E861D86F3CFCC
:101710008A818823C1F328813981232B49F42F85BD
:1017200038892417350738F42F5F3F4F388B2F87C0
:10173000DF91CF910895188A1F86FACF88E692E04C
:101740004DDC1092790510927A0510927B0510926B
:101750007C0540E050E0BA0188E795E026D9109278
:10176000740510927505109276051092770540E089
:1017700050E0BA0183E795E018D9E3E6F3E088EC9E
:1017800080838091100281831282809192039091D4
:101790009303A0919403B0919503948383838091E4
:1017A0008A0390918B03A0918C03B0918D03968353
:1017B0008583BF01809134089091350871DF69E716
:1017C00072E086E993E043DE4091100250E070E061
:1017D00060E02AE086E993E093DB65E472E086E965
:1017E00093E085CB0E94391D1F920F920FB60F9286
:1017F00011240BB60F922F933F934F935F936F93E8
:101800007F938F939F93AF93BF93EF93FF9386E95B
:1018100093E00E940B03FF91EF91BF91AF919F91D5
:101820008F917F916F915F914F913F912F910F9089
:101830000BBE0F900FBE0F901F9018951F920F9226
:101840000FB60F9211240BB60F922F933F934F9325
:101850005F936F937F938F939F93AF93BF93EF9318
:10186000FF9386E993E00E944A02FF91EF91BF91B6
:10187000AF919F918F917F916F915F914F913F9128
:101880002F910F900BBE0F900FBE0F901F901895C9
:101890001F920F920FB60F9211240BB60F922F9337
:1018A0003F934F935F936F937F938F939F93AF93E8
:1018B000BF93EF93FF9383E394E00E940B03FF91A8
:1018C000EF91BF91AF919F918F917F916F915F91B8
:1018D0004F913F912F910F900BBE0F900FBE0F9025
:1018E0001F9018951F920F920FB60F9211240BB6EE
:1018F0000F922F933F934F935F936F937F938F93A9
:101900009F93AF93BF93EF93FF9383E394E00E9481
:101910004A02FF91EF91BF91AF919F918F917F917B
:101920006F915F914F913F912F910F900BBE0F9050
:101930000FBE0F901F9018951F920F920FB60F9227
:1019400011240BB60F922F933F934F935F936F9396
:101950007F938F939F93AF93BF93EF93FF9380ED0C
:1019600094E00E940B03FF91EF91BF91AF919F9183
:101970008F917F916F915F914F913F912F910F9038
:101980000BBE0F900FBE0F901F9018951F920F92D5
:101990000FB60F9211240BB60F922F933F934F93D4
:1019A0005F936F937F938F939F93AF93BF93EF93C7
:1019B000FF9380ED94E00E944A02FF91EF91BF9166
:1019C000AF919F918F917F916F915F914F913F91D7
:1019D0002F910F900BBE0F900FBE0F901F90189578
:1019E0001F920F920FB60F9211242F933F938F9354
:1019F0009F93AF93BF938091530390915403A09111
:101A00005503B091560330914E0323E0230F2D3739
:101A100058F50196A11DB11D20934E0380935303E9
:101A200090935403A0935503B093560380914F03B2
:101A300090915003A0915103B09152030196A11DC2
:101A4000B11D80934F0390935003A0935103B09323
:101A50005203BF91AF919F918F913F912F910F9022
:101A60000FBE0F901F90189526E8230F0296A11D18
:101A7000B11DD2CF1F920F920FB60F9211240BB649
:101A80000F922F933F934F935F936F937F938F9317
:101A90009F93AF93BF93EF93FF93E0910E02F0916A
:101AA0000F021995FF91EF91BF91AF919F918F9187
:101AB0007F916F915F914F913F912F910F900BBE4E
:101AC0000F900FBE0F901F9018951F920F920FB698
:101AD0000F9211240BB60F922F933F934F935F9366
:101AE0006F937F938F939F93AF93BF93EF93FF93E6
:101AF000E0910C02F0910D021995FF91EF91BF91C9
:101B0000AF919F918F917F916F915F914F913F9195
:101B10002F910F900BBE0F900FBE0F901F90189536
:101B20001F920F920FB60F9211240BB60F922F93A4
:101B30003F934F935F936F937F938F939F93AF9355
:101B4000BF93EF93FF93E0910202F0910302199586
:101B5000FF91EF91BF91AF919F918F917F916F9185
:101B60005F914F913F912F910F900BBE0F900FBE41
:101B70000F901F9018951F920F920FB60F9211247D
:101B80000BB60F922F933F934F935F936F937F9377
:101B90008F939F93AF93BF93EF93FF93E0910002D6
:101BA000F09101021995FF91EF91BF91AF919F9133
:101BB0008F917F916F915F914F913F912F910F90F6
:101BC0000BBE0F900FBE0F901F9018951F920F9293
:101BD0000FB60F9211240BB60F922F933F934F9392
:101BE0005F936F937F938F939F93AF93BF93EF9385
:101BF000FF93E0910A02F0910B021995FF91EF918A
:101C0000BF91AF919F918F917F916F915F914F9114
:101C10003F912F910F900BBE0F900FBE0F901F9012
:101C200018951F920F920FB60F9211240BB60F92B8
:101C30002F933F934F935F936F937F938F939F93D4
:101C4000AF93BF93EF93FF93E0910802F0910902E5
:101C50001995FF91EF91BF91AF919F918F917F91D6
:101C60006F915F914F913F912F910F900BBE0F900D
:101C70000FBE0F901F9018951F920F920FB60F92E4
:101C800011240BB60F922F933F934F935F936F9353
:101C90007F938F939F93AF93BF93EF93FF93E091C5
:101CA0000602F09107021995FF91EF91BF91AF9154
:101CB0009F918F917F916F915F914F913F912F9164
:101CC0000F900BBE0F900FBE0F901F9018951F9294
:101CD0000F920FB60F9211240BB60F922F933F93D2
:101CE0004F935F936F937F938F939F93AF93BF9324
:101CF000EF93FF93E0910402F09105021995FF9193
:101D0000EF91BF91AF919F918F917F916F915F9173
:101D10004F913F912F910F900BBE0F900FBE0F90E0
:101D20001F9018954F925F926F927F928F929F9221
:101D3000AF92BF92CF92DF92EF92FF920F931F93D9
:101D4000CF93DF93109299031092980348EE53E0DB
:101D500060E070E040939A0350939B0360939C0370
:101D600070939D038FE192E0909397038093960385
:101D700025E331E03093A3032093A20324E331E071
:101D80003093A5032093A40320E331E03093A7030D
:101D90002093A60321E331E03093A9032093A80305
:101DA00022E331E03093AB032093AA0326E331E032
:101DB0003093AD032093AC031092AF031092B003A5
:101DC0001092B1031092B2031092360410923504AF
:101DD00040933704509338046093390470933A0465
:101DE000909334048093330425ED30E03093400425
:101DF00020933F0424ED30E03093420420934104CB
:101E000020ED30E0309344042093430421ED30E092
:101E1000309346042093450422ED30E0309348048B
:101E20002093470426ED30E030934A042093490480
:101E300010924C0410924D0410924E0410924F04D4
:101E40001092D3041092D2044093D4045093D5043A
:101E50006093D6047093D7049093D1048093D004F8
:101E600085EC90E09093DD048093DC0484EC90E0BA
:101E70009093DF048093DE0480EC90E09093E10483
:101E80008093E00481EC90E09093E3048093E2047B
:101E900082EC90E09093E5048093E40486EC90E07B
:101EA0009093E7048093E6041092E9041092EA0408
:101EB0001092EB041092EC041092C1051092C00530
:101EC0008BE98093C20588E08093C50580E091E0AE
:101ED0009093C4058093C3050E94141C9093C7057A
:101EE0008093C60530E020E08091C3059091C40541
:101EF00028173907E0F46091C20570E0C90148E095
:101F000050E0FC01E078FF27880F991FEF2B11F0BC
:101F10008627972741505109A1F7E091C605F09116
:101F2000C705E20FF31F80832F5F3F4FDDCF109275
:101F3000C4071092C5071092C7071092C6071092E7
:101F4000CA071092CB071092CC071092CD071092BF
:101F5000CE071092C1051092C00504E318E088E393
:101F6000482E88E0582E9AE0692E712C23E2C22E6A
:101F7000D12C3EE5832E99249394A12CB12C45EAD3
:101F8000E42E4AE5F42E85E190E00E94141CEC0159
:101F90007C826B82DE82CD82198218821A821C8A30
:101FA0001B8A8EE591E00E94141C9C878B87892BED
:101FB00009F0C2C01F82188619861A86D801CD93EF
:101FC000DD938D0185E190E00E94141CEC017C8280
:101FD0006B82DE82CD82198218821A821C8A1B8A49
:101FE0008EE591E00E94141C9C878B87892B09F059
:101FF000B0C01F82188619861A86F801D383C2835F
:102000004016510609F0BFCF1092960584E68093E2
:1020100097051092980580E090E0A8ECB2EC8093D0
:10202000790590937A05A0937B05B0937C0527E111
:10203000209378058093740590937505A093760599
:10204000B093770586E18093730584E290E00E9467
:10205000141CFC0184E2DF011D928A95E9F71186C8
:102060001086128A138A148A158A168A178A108E85
:10207000118E89E392E091838083F0937205E0935F
:1020800071058EE290E00E94141CFC0111861086FE
:10209000128A138A148A158A168A178A108E118E4C
:1020A00081E392E0918380838DEC9CECACE4BDE312
:1020B00086A397A3A0A7B1A78AE097EDA3E2BCE30C
:1020C00082A793A7A4A7B5A70AE217E0138F028FF0
:1020D000CEE9DBE0D58FC48FF0937005E0936F05F8
:1020E00084E290E00E94141CFC0111861086128A82
:1020F000138A148A158A168A178A108E118E81E423
:1021000092E091838083138F028FD58FC48FF093D9
:102110006E05E0936D05DF91CF911F910F91FF90B8
:10212000EF90DF90CF90BF90AF909F908F907F9077
:102130006F905F904F9008958F829886A986BA8697
:10214000FC8AEB8A1E861D86188A1F861A8A198ABF
:1021500035CF8F829886A986BA86FC8AEB8A1E863E
:102160001D86188A1F861A8A198A47CFCF93DF9354
:10217000CDB7DEB7AF970FB6F894DEBF0FBECDBFB9
:10218000789484B5826084BD84B5816084BD85B552
:10219000826085BD85B5816085BD80916E0081605E
:1021A00080936E0010928100809181008260809304
:1021B0008100809181008160809381008091800006
:1021C0008160809380008091B10084608093B10031
:1021D0008091B00081608093B00080919100826016
:1021E0008093910080919100816080939100809113
:1021F00090008160809390008091A1008260809324
:10220000A1008091A10081608093A1008091A00035
:1022100081608093A00080912101826080932101E0
:102220008091210181608093210180912001816052
:102230008093200180917A00846080937A0080915D
:102240007A00826080937A0080917A008160809326
:102250007A0080917A00806880937A001092C100A1
:1022600026E040E855E260E070E080ED94E00E94F6
:10227000BB0280ED94E09093C9078093C8072EE2DB
:1022800040EA56E861E070E083E394E00E94BB021C
:1022900083E394E090939A05809399052EE240EAB7
:1022A00056E861E070E00E94BB0282E080939805EE
:1022B00026E040E05BE460E070E086E993E00E94A5
:1022C000BB0284E992E00E94EE0788E795E00E9455
:1022D000090583E795E00E94090562E082E10E941A
:1022E000380462E083E10E94380462E084E10E94E5
:1022F000380462E085E10E94380489E991E0909316
:102300000B0280930A0280916900806C80936900BF
:10231000EB9A87EC91E090930902809308028091F8
:102320006900806380936900EA9A8BED91E0909355
:10233000070280930602809169008C608093690097
:10234000E99A89E092E090930502809304028091DB
:102350006900836080936900E89A80E00E946904C4
:102360008C0181E00E946904B801680F791F072E73
:10237000000C880B990B611571058105910509F019
:10238000D4D590E080E0DAD58A32B9F06AE290E004
:1023900080E0DCD57ED5EEEFCE2ED12CE12CF12CD9
:1023A000A7019601E1D581E090E0D0D572D5A701D3
:1023B0009601DAD582E090E0C9D564E170E080E072
:1023C00090E00E94A4041092790510927A05109270
:1023D0007B0510927C0540E050E0BA0188E795E06B
:1023E0000E94D5041092740510927505109276051E
:1023F0001092770540E050E0BA0183E795E00E9433
:10240000D50464E170E080E090E00E94A404809133
:10241000710590917205909362038093610362E06D
:10242000262E312C8091C8079091C907DC01ED91CF
:10243000FC910084F185E02D1995892B39F41092D7
:10244000C4071092C5070CC18093CB078091C807C1
:102450009091C907DC01ED91FC910084F185E02D9C
:102460001995892B09F43EC18091C8079091C9073D
:10247000DC01ED91FC910284F385E02D1995182F74
:10248000482F50E070E060E02AE086E993E00E9487
:1024900080076DEA72E086E993E00E94270A409186
:1024A000C6075091C707052E000C660B770B77FF08
:1024B0003AC086E993E00E94CB076FEA72E086E9B2
:1024C00093E00E94270A8091C6079091C707823047
:1024D000910509F460C068F5009709F44AC00197B6
:1024E00009F452C061EC72E080ED94E00E94270A8A
:1024F0004091C6075091C707052E000C660B770B5D
:1025000077FFEAC080ED94E00E94CB0765E472E0BB
:1025100080ED94E00E9477071092C4071092C707DD
:102520001092C60793CF2AE086E993E00E948007C5
:10253000C4CF8430910509F45AC008F441C005970E
:1025400089F61092C7071092C607113809F0C0C06B
:102550008091CD078F3F09F474C02EE7E82FF0E09B
:10256000EA53F94F9081992309F469C02083890FB8
:10257000F5CF1E3731F4E1E0F0E0F093C707E093C8
:10258000C6071092CB0762CF1093CD073092C707D2
:102590002092C6075BCF1F3F49F01093CA0783E024
:1025A00090E09093C7078093C60750CF1092C4075E
:1025B0001092C7071092C6078EEF8093C50750C0D0
:1025C0008091CB079091CA07891780F7E82FF0E038
:1025D000EA53F94F10838F5F981336CF1092CB07D1
:1025E000A4E0B0E0B093C707A093C6072FCF209117
:1025F000CA074091C6055091C705A6ECB6E090E029
:1026000080E0E0E030E08217930740F46D91E62728
:10261000E40FF52FF11DE0810196F5CF1E1307C0E1
:10262000E5E0F0E0F093C707E093C6070FCF109204
:10263000C4071092C7071092C6078FEFBECF8EE770
:1026400080838091CA078093C40781E08093C50787
:1026500082EB92E00E94EE078091CA07811146C08A
:10266000E091BF05F0E0EE0FFF1FEC5CF74F8081BB
:102670009181DC0151962D913C91232B09F4ACC042
:1026800068EC75E00E94FB0A8FEF8093CC07A8EC02
:10269000B5E0FD0180E091919E3711F48093CC0765
:1026A0008F5F8332C1F7EBEEF5E082E292919E37C5
:1026B000A9F5EFEBF5E022E230E043A54E3719F43F
:1026C000821B83A7C901319721503109B0F728C077
:1026D0001092C4078DEF71CF2AE080ED94E00E9444
:1026E000800714CF1092C40782E067CF4091C407DF
:1026F00050E04432510510F043E250E066EC76E0E1
:10270000CE0101960E943D1DBE016F5F7F4F8091FB
:102710003808909139080E94500BA2CF815030F6B2
:102720002091C6053091C7058BEE95E010E0ED9144
:10273000E127E20FF32FF11D10818A179B07B9F7EC
:102740008091C8079091C907DC01ED91FC9101903F
:10275000F081E02D6EE719958091C8079091C90727
:10276000DC01ED91FC910190F081E02D6091CC07AE
:1027700019958091C8079091C907DC01ED91FC91F2
:102780000190F081E02D63E219958091C807909146
:10279000C907DC01ED91FC910280F381E02D43E259
:1027A00050E068EC75E019958091C8079091C907D1
:1027B000DC01ED91FC910190F081E02D612F1995E4
:1027C0008091C8079091C907DC01ED91FC910190BF
:1027D000F081E02D61E819958091BF0590E00196A8
:1027E000817099278093BF058091380890913908AE
:1027F000FC0121893289232B09F454C063E673E07C
:102800000E94FB0A882309F44DC06AED72E086E954
:1028100093E00E94270A4091630350E070E060E07B
:102820002AE086E993E00E94800765E472E086E989
:1028300093E00E94770780916303843609F4FBC01C
:10284000863609F491C2853009F0D7C28EE193E053
:102850000E94EE0780916D0590916E059093620342
:10286000809361032091640320931002DC01ED91B9
:10287000FC910190F081E02D19950E9478012FB70D
:10288000F8948091530390915403A0915503B09113
:1028900056032FBF80935D0390935E03A0935F0365
:1028A000B093600300915B0310915C03C80164E680
:1028B00070E08BD7892B09F082C082E0809363039C
:1028C0008091970590E09093650380936403892B32
:1028D000A9F4E9E9F5E0A6E6B3E089EB95E02191FA
:1028E00031912D933D938E179F07C9F763E673E0EF
:1028F00080913408909135080E94500B809192038A
:1029000090919303A0919403B091950340918A0311
:1029100050918B0360918C0370918D03840F951FF0
:10292000A61FB71F40915703509158036091590358
:1029300070915A0384179507A607B70709F43FC09B
:1029400083E0809363038091920390919303A0911D
:102950009403B091950390936503809364038091F1
:102960008A0390918B03A0918C03B0918D03909377
:1029700067038093660363E673E080913408909167
:1029800035080E94500B8091920390919303A0917F
:102990009403B091950340918A0350918B03609109
:1029A0008C0370918D03840F951FA61FB71F809312
:1029B000570390935803A0935903B0935A03C80147
:1029C00064E170E002D7892B21F5A0916103B091F9
:1029D000620340918A0350918B0360918C03709144
:1029E0008D030091920310919303209194033091F1
:1029F000950313961C930E93129715965C934E9322
:102A00001497ED91FC9111970280F381E02DCD0197
:102A1000199580915B0390915C03019690935C0300
:102A200080935B0361E070E080E090E00E94A4048A
:102A30000E940E07F7CC87E492E00E94EE0764EE56
:102A400072E086E993E00E94270A4091630350E018
:102A500070E060E02AE086E993E00E9480076091E0
:102A6000640370916503072E000C880B990BDDD36E
:102A700020E030E04AE754E4D4D220E030E04AE7F6
:102A800054E438D36B017C01609166037091670355
:102A9000072E000C880B990BC8D320E030EA4CE0DD
:102AA00056E4BFD220E030EA4CE056E423D36CA7D2
:102AB0007DA78EA79FA7009168031091690380915D
:102AC0006A0380931002A0916F05B0917005B093D6
:102AD0006203A093610318968D919C9119970197B9
:102AE00009F09AC013961C921E92129715961C928A
:102AF0001E92149720E030E040E05FE36CA57DA5D6
:102B00008EA59FA546D42BED3FE049E450E441D487
:102B1000EFD49B01AC01C701B6013BD42B013C01B2
:102B200020E030E0A901C701B6012FD420E030E059
:102B3000A90118160CF079C0C301B20126D4A30173
:102B4000920118160CF05058C701B6016AD24B0119
:102B50005C0120E030E040E05FE3C301B20119D442
:102B60002B013C01AC019B01C501B4015AD26CA3FD
:102B70007DA38EA39FA3A5019401C301B20152D2EC
:102B800068A779A78AA79BA720E030E0A901AED269
:102B9000812C912C40E8A42E4FEBB42E87FD13C05E
:102BA00020E030E0A90168A579A58AA59BA5EDD311
:102BB000812C912C5401181634F4812C912C30E87E
:102BC000A32E3FE3B32E20E030E0A9016CA17DA14C
:102BD0008EA19FA18BD287FDBCC020E030E0A9016F
:102BE0006CA17DA18EA19FA1D0D3412C512C32018B
:102BF00018160CF0B4C020E030E0A901C501B40102
:102C0000C4D31816F4F0412C512C80E8682E8FE3C1
:102C1000782EC301B20124C0ED91FC91119701906F
:102C2000F081E02DCD01199565CFC301B201ADD37F
:102C3000A301920118160CF05058C701B601F2D149
:102C400086CF2CA13DA14EA15FA168A579A58AA53B
:102C50009BA550D2412C512C20E8622E2FE3722EDE
:102C6000E0916103F091620317830683C686D786DD
:102C7000E08AF18A828A938AA48AB58A468A578A28
:102C8000608E718E62877387848795870E94780132
:102C900060EB72E086E993E00E94270A42E050E090
:102CA000C701B6010E94280A60EB72E086E993E052
:102CB0000E94270A42E050E06CA57DA58EA59FA545
:102CC0000E94280A60EB72E086E993E00E94270ADE
:102CD000A80170E060E02AE086E993E00E948007A6
:102CE00060EB72E086E993E00E94270A42E050E040
:102CF000C501B4010E94280A60EB72E086E993E006
:102D00000E94270A42E050E0C301B2010E94280A53
:102D100060EB72E086E993E00E94270A42E050E00F
:102D200068A579A58AA59BA50E94280A60EB72E098
:102D300086E993E00E94270A42E050E06CA17DA161
:102D40008EA19FA10E94280A87E492E00E94EE07CC
:102D500096CD412C512C90E8692E9FEB792E60E0A6
:102D600070E080E89FE37CCF62EF72E086E993E059
:102D70000E94270A6091640370916503072E000C7E
:102D8000880B990B52D220E030E04AE754E4B2D1EC
:102D900020E030E040E05FE344D14B015C0120E003
:102DA00030E040E85FE33ED16B017C01E0916103DC
:102DB000F0916203C286D386E486F5868281938190
:102DC00091A380A38481958193A382A365E073E09E
:102DD00086E993E00E94270A4AE050E0C501B40169
:102DE0000E94280A61E173E086E993E00E94270AC5
:102DF0004AE050E0C701B601A5CF84E393E0A6CF37
:102E00008F929F92AF92BF92CF92DF92EF92FF92FA
:102E1000CF93DF93EC01688179818A819B81611571
:102E200071058105910521F464E279ED8BE597E068
:102E30002DE133EF41E050E097D049015A019B0169
:102E4000AC01A7EAB1E4ACD06B017C01ACEEB4EF0D
:102E5000A5019401B1D0C60ED71EE81EF91EF7FEDB
:102E600006C081E0C81AD108E10880E8F80AC882E3
:102E7000D982EA82FB82C701B6019F77DF91CF91A9
:102E8000FF90EF90DF90CF90BF90AF909F908F908A
:102E900008958F929F92AF92BF92CF92DF92EF925E
:102EA000FF92609111027091120280911302909131
:102EB0001402611571058105910521F464E279ED33
:102EC0008BE597E02DE133EF41E050E04DD0490133
:102ED0005A019B01AC01A7EAB1E462D06B017C010D
:102EE000ACEEB4EFA501940167D0C60ED71EE81E64
:102EF000F91EF7FE06C081E0C81AD108E10880E893
:102F0000F80AC0921102D0921202E0921302F092DB
:102F10001402C701B6019F77FF90EF90DF90CF902A
:102F2000BF90AF909F908F9008956093110270931F
:102F3000120280931302909314020895F999FECF20
:102F400092BD81BDF89A992780B50895262FF999E9
:102F5000FECF1FBA92BD81BD20BD0FB6F894FA9A7C
:102F6000F99A0FBE01960895052E97FB16F400946A
:102F70000FD057FD05D024D007FC02D046F408C07E
:102F800050954095309521953F4F4F4F5F4F089595
:102F900090958095709561957F4F8F4F9F4F0895C5
:102FA00031D0A59F900DB49F900DA49F800D911DD1
:102FB00011240895B7FFF4CFF3DF821B930B08951C
:102FC000A1E21A2EAA1BBB1BFD010DC0AA1FBB1F2D
:102FD000EE1FFF1FA217B307E407F50720F0A21B9F
:102FE000B30BE40BF50B661F771F881F991F1A940C
:102FF00069F760957095809590959B01AC01BD0136
:10300000CF010895A29FB001B39FC001A39F700D8F
:10301000811D1124911DB29F700D811D1124911DE0
:1030200008955058BB27AA270ED075C166D130F03D
:103030006BD120F031F49F3F11F41EF45BC10EF40C
:10304000E095E7FB51C1E92F77D180F3BA1762070A
:1030500073078407950718F071F49EF58FC10EF47D
:10306000E0950B2EBA2FA02D0B01B90190010C0198
:10307000CA01A0011124FF27591B99F0593F50F4B0
:10308000503E68F11A16F040A22F232F342F442708
:10309000585FF3CF469537952795A795F040539500
:1030A000C9F77EF41F16BA0B620B730B840BBAF0D0
:1030B0009150A1F0FF0FBB1F661F771F881FC2F73B
:1030C0000EC0BA0F621F731F841F48F4879577954F
:1030D0006795B795F7959E3F08F0B3CF9395880F06
:1030E00008F09927EE0F979587950895D9D008F4A1
:1030F00081E008950CD00FC107D140F0FED030F030
:1031000021F45F3F19F0F0C0511139C1F3C014D15F
:1031100098F39923C9F35523B1F3951B550BBB279E
:10312000AA2762177307840738F09F5F5F4F220F4B
:10313000331F441FAA1FA9F333D00E2E3AF0E0E844
:1031400030D091505040E695001CCAF729D0FE2F90
:1031500027D0660F771F881FBB1F26173707480722
:10316000AB07B0E809F0BB0B802DBF01FF279358D8
:103170005F4F2AF09E3F510568F0B6C000C15F3F27
:10318000ECF3983EDCF3869577956795B795F795C0
:103190009F5FC9F7880F911D9695879597F90895B8
:1031A000E1E0660F771F881FBB1F62177307840754
:1031B000BA0720F0621B730B840BBA0BEE1F88F763
:1031C000E095089504D06894B111D9C00895BCD099
:1031D00088F09F5790F0B92F9927B751A0F0D1F000
:1031E000660F771F881F991F1AF0BA95C9F712C08A
:1031F000B13081F0C3D0B1E00895C0C0672F782FFF
:103200008827B85F39F0B93FCCF3869577956795F5
:10321000B395D9F73EF490958095709561957F4F61
:103220008F4F9F4F0895E89409C097FB3EF4909507
:103230008095709561957F4F8F4F9F4F9923A9F08F
:10324000F92F96E9BB279395F6958795779567951E
:10325000B795F111F8CFFAF4BB0F11F460FF1BC062
:103260006F5F7F4F8F4F9F4F16C0882311F096E9F5
:1032700011C0772321F09EE8872F762F05C06623A3
:1032800071F096E8862F70E060E02AF09A95660F5C
:10329000771F881FDAF7880F9695879597F9089515
:1032A000990F0008550FAA0BE0E8FEEF1616170657
:1032B000E807F907C0F012161306E407F50798F0BF
:1032C000621B730B840B950B39F40A2661F0232BD8
:1032D000242B252B21F408950A2609F4A140A69554
:1032E0008FEF811D811D089597F99F6780E870E039
:1032F00060E008959FEF80EC089500240A9416166C
:10330000170618060906089500240A9412161306D3
:10331000140605060895092E0394000C11F4882361
:1033200052F0BB0F40F4BF2B11F460FF04C06F5F7D
:103330007F4F8F4F9F4F089557FD9058440F551F53
:1033400059F05F3F71F04795880F97FB991F61F027
:103350009F3F79F087950895121613061406551F9E
:10336000F2CF4695F1DF08C0161617061806991F0A
:10337000F1CF86957105610508940895E894BB27FF
:1033800066277727CB0197F908958ADF08F48FEF36
:1033900008950BD0C0CFB1DF28F0B6DF18F0952329
:1033A00009F0A2CFA7CF1124EACFC6DFA0F3959FE3
:1033B000D1F3950F50E0551F629FF001729FBB271C
:1033C000F00DB11D639FAA27F00DB11DAA1F649FC8
:1033D0006627B00DA11D661F829F2227B00DA11D7B
:1033E000621F739FB00DA11D621F839FA00D611D01
:1033F000221F749F3327A00D611D231F849F600D22
:10340000211D822F762F6A2F11249F5750408AF05A
:10341000E1F088234AF0EE0FFF1FBB1F661F771FE6
:10342000881F91505040A9F79E3F510570F05CCF26
:10343000A6CF5F3FECF3983EDCF3869577956795D2
:10344000B795F795E7959F5FC1F7FE2B880F911D04
:103450009695879597F90895FA01EE0FFF1F30961C
:103460002105310599F16115710561F48038BFE3DB
:103470009B0749F168949038810561F08038BFEF6F
:103480009B0741F0992342F5FF3FE10531052105F6
:1034900011F1E8940894E795D901AA2329F4AB2FF8
:1034A000BE2FF85FD0F310C0FF5F70F4A695E0F771
:1034B000F73950F019F0FF3A38F49F779F930CD00A
:1034C0000F9007FC905808953EF014CF60E070E034
:1034D00080E89FE308954FE79F775F934F933F9373
:1034E0002F93E1D02F913F914F915F9152DF0FC009
:1034F0009F935FD00F9007FCEE5F82C0D1DE880BF8
:10350000990B089519F40EF0EFCE38CFF3CE1CDFEF
:10351000C8F39638C0F707F80F92E8942BE33AEA1D
:1035200048EB5FE744DF0F920F920F924DB75EB703
:103530000F92F9D0E4EEF0E016D04F915F91EF9149
:10354000FF91E595EE1FFF1F49F0FE57E068442705
:10355000EE0F441FFA95E1F74195550B6BD00F9094
:1035600007FE5FC00895DF93CF931F930F93FF92E1
:10357000EF92DF927B018C01689405C0DA2EEF0197
:1035800014DFFE01E894A59125913591459155915F
:10359000AEF3EF0158DDFE019701A801DA9479F747
:1035A000DF90EF90FF900F911F91CF91DF910895E1
:1035B000A1CECADEE8F3E894E0E0BB279F57F0F025
:1035C0002AED3FE049EC06C0EE0FBB0F661F771FE8
:1035D000881F28F0B23A62077307840728F0B25AAE
:1035E000620B730B840BE3959A9572F7803830F475
:1035F0009A95BB0F661F771F881FD2F79048C8C0E7
:10360000EF93E0FF06C0A2EA2AED3FE049EC5FEB52
:103610001ADD81DE0F90039401FC9058ECE0F1E09C
:10362000C3C09B01AC0160E070E080E89FE362CD25
:103630005BCEACC089DEE8F39923D9F3940F511D1A
:10364000BBF39150504094F059F0882332F0660F4C
:10365000771F881F91505040C1F79E3F510544F796
:10366000880F911D9695879597F908955F3FACF067
:10367000983E9CF0BB27869577956795B79508F49B
:10368000B1609395C1F7BB0F58F711F460FFE8CF15
:103690006F5F7F4F8F4F9F4FE3CF71CE0EF076C09D
:1036A00029CE689421CE50DEC8F39923D1F3C6F316
:1036B000DF93CF931F930F93FF92C92FDD278823AA
:1036C0002AF02197660F771F881FDAF720E030E095
:1036D00040E85FEB9FE3883920F0803E30F0219690
:1036E0008F77A0DCEAE2F1E003C09CDCE7E5F1E0E3
:1036F0003ADF8B01BE01EC01FB2E6F577109759506
:10370000771F880B990B91DD28E132E741E35FE3F6
:103710004CDEAF2D9801AE01FF900F911F91CF911C
:10372000DF9191DCF8CDFA01DC01AA0FBB1F9B01F0
:10373000AC01BF5728F422273327442750781FC0F5
:10374000B75188F4AB2F0024469537952795011C77
:10375000A395D2F3002069F0220F331F441FB395C5
:10376000DAF30DD05ECC61307105A0E88A07B94666
:1037700030F49B01AC016627772788279078309634
:1037800021F0208331834283538308959F3F31F09A
:10379000915020F4879577956795B795880F911D7F
:1037A0009695879597F908959F938F937F936F933D
:1037B000FF93EF939B01AC01ECDDEF91FF91D3DE22
:1037C0002F913F914F915F91E4CD97FB072E16F417
:1037D000009406D077FD08D013D007FC05D03EF446
:1037E000909581959F4F0895709561957F4F0895AD
:1037F000EE0FFF1F881F8BBF0790F691E02D1994E5
:10380000AA1BBB1B51E107C0AA1FBB1FA617B70706
:1038100010F0A61BB70B881F991F5A95A9F7809522
:103820009095BC01CD0108950F931F93CF93DF9323
:103830008230910510F482E090E0E0913E08F09132
:103840003F0830E020E0B0E0A0E0309799F4211587
:10385000310509F44AC0281B390B24303105D8F54D
:103860008A819B816115710589F1FB0193838283B4
:10387000FE0111C04081518102811381481759070F
:10388000E0F04817590799F4109761F012960C93DD
:10389000129713961C933296CF01DF91CF911F910F
:1038A0000F91089500933E0810933F08F4CF21151F
:1038B000310551F04217530738F0A901DB019A0195
:1038C000BD01DF01F801C1CFEF01F9CF90933F08AF
:1038D00080933E08CDCFFE01E20FF31F81939193B9
:1038E0002250310939832883D7CF20913C08309169
:1038F0003D08232B41F42091170230911802309398
:103900003D0820933C0820911502309116022115A4
:10391000310541F42DB73EB74091190250911A027A
:10392000241B350BE0913C08F0913D08E217F307AA
:10393000A0F42E1B3F0B2817390778F0AC014E5F1F
:103940005F4F2417350748F04E0F5F1F50933D0817
:1039500040933C08819391939FCFF0E0E0E09CCFAF
:10396000CF93DF930097E9F0FC0132971382128224
:10397000A0913E08B0913F08ED0130E020E01097A3
:10398000A1F420813181820F931F20913C08309156
:103990003D082817390709F061C0F0933D08E0930E
:1039A0003C08DF91CF910895EA01CE17DF07E8F5D3
:1039B0004A815B819E0141155105B1F7E901FB8305
:1039C000EA8349915991C40FD51FEC17FD0761F4A3
:1039D000808191810296840F951FE90199838883E4
:1039E000828193819B838A83F0E0E0E012968D913F
:1039F0009C9113970097B9F52D913C911197CD01AA
:103A00000296820F931F20913C0830913D082817A1
:103A1000390739F6309751F510923F0810923E0859
:103A2000B0933D08A0933C08BCCFD383C2834081B0
:103A30005181840F951FC817D90761F44E5F5F4FFE
:103A400088819981480F591F518340838A819B81C6
:103A5000938382832115310509F0B0CFF0933F089D
:103A6000E0933E089ECFFD01DC01C0CF138212829D
:103A7000D7CF81E090E0F89409C0FB01DC0102C0DF
:103A800001900D9241505040D8F70895F894FFCF1F
:103A9000D404D404D404D404D404D404D404D40466
:103AA000FF01000000000040088000000000002D21
:103AB000031D026302790394027202860200000071
:103AC000004E07FF070000000076077607000000A1
:103AD0000066075C070D0A005374617274696E67B3
:103AE000204D6F7665204163696F6E006E616E00D8
:103AF000696E66006F766600416374696F6E20437D
:103B00006F6D706C65746564005265706C792063CC
:103B10006F6D6D616E6420636F6D706C657465644C
:103B200020746F00696E697469616C697A656420DC
:103B300053657269616C3320506F7274002C002CD5
:103B40002000666F756E6420656E6420627974650E
:103B5000004552524F523A20556E646566696E6553
:103B6000642073746174653A2000436F6D6D616EFB
:103B7000643A2000434F4D4D414E445F4D4F5645F2
:103B80002000434F4D4D414E445F504154485F45E6
:103B900052524F520070617468206572726F723DAC
:103BA00000776865656C20726174696F3D007265AD
:103BB0006365697665642053544F50206D65737357
:103BC00061676500494E56414C494420434F4D4D75
:043BD000414E44001E
:00000001FF
