:1000000045C100000C945F0E0C94340E0C94090E44
:100010000C94DE0D0C94B30D0C94880D0C945D0DB6
:100020000C94320D64C1000062C1000060C1000088
:100030005EC100005CC100005AC1000058C1000050
:1000400056C1000054C1000052C1000050C1000060
:100050004EC100004CC100004AC100000C94E80CE5
:1000600046C100000C94BE0C0C94940C40C10000DE
:100070003EC100003CC100003AC1000038C1000090
:1000800036C1000034C1000032C1000030C10000A0
:100090002EC100002CC100002AC1000028C10000B0
:1000A00026C1000024C1000022C1000020C10000C0
:1000B0001EC100001CC100001AC1000018C10000D0
:1000C00016C1000014C1000012C100000C946A0C9B
:1000D0000C94400C0CC100000C94160C0C94EC0B0E
:1000E00006C1000007634236B79BD8A71A39685685
:1000F00018AEBAAB558C1D3CB7CC5763BD6DEDFD4A
:10010000753EF6177231BF000000803F05A84CCD48
:10011000B2D44EB93836A9020C50B9918688083C41
:10012000A6AAAA2ABE000000803F08000000BE92D6
:100130002449123EABAAAA2ABECDCCCC4C3E00002C
:100140000080BEABAAAAAA3E00000000BF000000CB
:10015000803F0000000000084178D3BB4387D113E3
:100160003D190E3CC3BD4282AD2B3E68EC8276BE8B
:10017000D98FE1A93E4C80EFFFBE01C4FF7F3F0055
:100180000000000000002100240027002A002D00AC
:100190003000330001010000040107010A010000E2
:1001A0002200250028002B002E003100340002011F
:1001B0000000050108010B010505050507050808F4
:1001C0000808020202020A0A0808040404040101E1
:1001D00001010101010103030303030303030407F6
:1001E00007070C0C0C0C0C0C0C0C0202020206068D
:1001F0000606060606060B0B0B0B0B0B0B0B010280
:100200001020200808102040102040800201020128
:1002100008040201010204081020408080402010E0
:100220000804020180040201804020100804020139
:1002300008040201010204081020408001020408A1
:100240001020408000000A0B02090C0D0E08070365
:100250000401000000000000000000000000000099
:10026000000000000000000000000000000000008E
:10027000121110000000000000000000000000004B
:10028000000000000000000000008A0E11241FBEC4
:10029000CFEFD1E2DEBFCDBF00E00CBF13E0A0E0A6
:1002A000B2E0EAE0FAE300E00BBF02C007900D9273
:1002B000A434B107D9F728E0A4E4B3E001C01D924B
:1002C000A034B207E1F711E0C6E4D1E000E006C0D7
:1002D00021970109802FFE010E94B51BC534D1076B
:1002E00080E00807A9F70E94A8100C94031D88CE8F
:1002F000109292031092930310929403109295031C
:1003000010928E0310928F0310929003109291031B
:1003100010928A0310928B0310928C0310928D031B
:10032000109286031092870310928803109289031B
:1003300008954091920350919303609194037091BA
:10034000950380918E0390918F03A0919003B091BB
:10035000910384179507A607B707B8F48FEF80932A
:100360004C038091920390919303A0919403B091D8
:1003700095030196A11DB11D809392039093930361
:10038000A0939403B0939503089581E0E8CF809102
:100390008E0390918F03A0919003B09191030196E9
:1003A000A11DB11D80938E0390938F03A0939003A2
:1003B000B0939103089540918A0350918B0360910B
:1003C0008C0370918D038091860390918703A09197
:1003D0008803B091890384179507A607B707B8F477
:1003E0008FEF80934D0380918A0390918B03A091AE
:1003F0008C03B0918D030196A11DB11D80938A03DA
:1004000090938B03A0938C03B0938D03089581E0A8
:10041000E8CF8091860390918703A0918803B091E3
:1004200089030196A11DB11D8093860390938703D4
:10043000A0938803B09389030895AF92BF92CF929F
:10044000DF92EF92FF920F931F93CF93DF936C0194
:100450007B018B01040F151FEB015E01AE18BF0875
:10046000C017D10759F06991D601ED91FC91019027
:10047000F081E02DC6011995892B79F7C501DF912F
:10048000CF911F910F91FF90EF90DF90CF90BF9091
:10049000AF900895FC01A089B1898C91A689B78994
:1004A00082FD0FC09C91818D8F5F8F73228D82178B
:1004B00049F0A18DAE0FBF2FB11D5D969C93818F2A
:1004C00008958C910895FC01538D448D252F30E0C3
:1004D000842F90E0821B930B541710F0CF96089551
:1004E00001970895FC01918D828D981761F0A28D7E
:1004F000AE0FBF2FB11D5D968C91928D9F5F9F7344
:10050000928F90E008958FEF9FEF0895FC01918DF9
:10051000828D981731F0828DE80FF11D858D90E066
:1005200008958FEF9FEF0895FC01918D228D892F03
:1005300090E0805C9F4F821B91098F7399270895EB
:1005400086E993E0F1DF21E0892B09F420E0822F96
:10055000089583E394E0E8DF21E0892B09F420E0AB
:10056000822F089580ED94E0DFDF21E0892B09F4EC
:1005700020E0822F0895CF92DF92EF92FF921F9397
:10058000CF93DF93EC016A017B01122FE889F9898F
:1005900082E08083C11481EED806E104F104B1F158
:1005A00060E079E08DE390E0A70196010E949D173D
:1005B000215031094109510956954795379527959D
:1005C000EC85FD851082EE85FF852083188EEC89F1
:1005D000FD891083EA89FB89808180618083EA89B3
:1005E000FB89808188608083EA89FB8980818068BB
:1005F0008083EA89FB8980818F7D8083DF91CF9121
:100600001F91FF90EF90DF90CF900895E889F989CE
:10061000108220E1D5CFFC01A48DA80FB92FB11D08
:10062000A35ABF4F2C91848D90E001968F73992728
:10063000848FA689B7892C93A089B1898C91837006
:1006400080648C93938D848D981306C00288F389FF
:10065000E02D80818F7D80830895EF92FF920F932C
:100660001F93CF93DF93EC0181E0888F9B8D8C8D5E
:1006700098131AC0E889F989808185FF15C09FB752
:10068000F894EE89FF896083E889F9898081837015
:10069000806480839FBF81E090E0DF91CF911F91C4
:1006A0000F91FF90EF900895F62E0B8D10E00F5FE5
:1006B0001F4F0F731127E02E8C8D8E110BC00FB6BC
:1006C00007FCFACFE889F989808185FFF5CFCE0153
:1006D000A2DFF2CFEB8DEC0FFD2FF11DE35AFF4FA0
:1006E000F0829FB7F8940B8FEA89FB898081806242
:1006F000D0CFCF93DF93EC01888D8823B1F0AA8906
:10070000BB89E889F9898C9185FD03C0808186FDCC
:100710000CC00FB607FCF7CF8C9185FFF2CF80811C
:1007200085FFEDCFCE0177DFEACFDF91CF9108953E
:1007300080915D0390915E03A0915F03B09160038F
:100740000196A11DB11D80935D0390935E03A0935C
:100750005F03B09360030895282F30E0F901EC5B4C
:10076000FD4F9491F901E250FE4F449128543E4FC1
:10077000F9012491222309F435C0992311F19150F4
:100780009231F8F4E92FF0E08827E653FC4F8F4FC1
:100790000C94B51BFB03FF03DC03F303F703E10336
:1007A000020408040C04120416041A04200424048D
:1007B000E10328042E043204809180008F77809317
:1007C0008000E22FF0E0EE0FFF1FE256FE4FA591F2
:1007D000B4918FB7F894EC91611148C040954E23C5
:1007E0004C938FBF0895809180008F7DE8CF8091DA
:1007F0008000877FE4CF84B58F7784BDE2CF84B556
:100800008F7DFBCF8091B0008F778093B000D9CFE0
:100810008091B0008F7DF9CF809190008F77809389
:100820009000CFCF809190008F7DF9CF8091900084
:10083000877FF5CF8091A0008F778093A000C1CFF4
:100840008091A0008F7DF9CF8091A000877FF5CFA8
:10085000809120018F7780932001B3CF8091200178
:100860008F7DF9CF80912001877FF5CF4E2BB8CFB8
:10087000CF93DF9390E0FC01E250FE4F2491885427
:100880009E4FFC0184918823D1F090E0880F991F3E
:10089000FC01EC57FE4FA591B491FC01E256FE4FCE
:1008A000C591D491623071F49FB7F8943C91822F36
:1008B000809583238C93E8812E2B28839FBFDF9123
:1008C000CF9108958FB7F894EC912E2B2C938FBF76
:1008D000F6CF90917B00977F90937B00806480930C
:1008E0007C0080917A00806480937A0080917A0005
:1008F00086FDFCCF809178009091790008953FB7F4
:10090000F89480914F0390915003A0915103B091BE
:10091000520326B5A89B05C02F3F19F00196A11DD3
:10092000B11D3FBFBA2FA92F982F8827BC01CD0139
:10093000620F711D811D911D42E0660F771F881F98
:10094000991F4A95D1F708958F929F92AF92BF92C7
:10095000CF92DF92EF92FF924B015C01D0DF6B01EF
:100960007C01CDDF6C197D098E099F09683E7340BB
:1009700081059105B0F321E0821A9108A108B10820
:1009800088EEC80E83E0D81EE11CF11C811491048E
:10099000A104B10431F7FF90EF90DF90CF90BF90AA
:1009A000AF909F908F9008950895CF92DF92EF922D
:1009B000FF92CF93DF93EC016A017B01F89461E031
:1009C0008881CADE20E030E04AEF53ECC701B6016F
:1009D0000E94861920E030E049EB54E40E94CF17D2
:1009E0000E949F186230710548F0660F771F660FEE
:1009F000771F65507109CB010197F1F760E088819D
:100A0000ABDE7894DF91CF91FF90EF90DF90CF90A5
:100A10000895CF93DF93EC0161E0888129DF60E0E6
:100A200088819ADE40E050E0BA01CE01BEDF60E08E
:100A3000888192DE19821A821B821C82DF91CF91FB
:100A40000895CF9380919805823011F5C3E080918D
:100A5000990590919A05DC01ED91FC910084F18556
:100A6000E02D1995892BA1F080919805833081F0B4
:100A70008091990590919A05DC01ED91FC91028499
:100A8000F385E02D1995892B11F7C0939805DFCFD9
:100A9000C0919805C33039F58091990590919A05D8
:100AA000DC01ED91FC910084F185E02D1995892BF5
:100AB000D1F08091990590919A05DC01ED91FC911E
:100AC0000284F385E02D19958F3009F08AC181E009
:100AD0008093980510929605EDE7F5E01192B5E048
:100AE000E339FB07D9F780919805813009F077C188
:100AF0008091990590919A05DC01ED91FC9100841B
:100B0000F185E02D199520919605892B19F0283152
:100B100008F46CC1283109F062C1809194058111FB
:100B20007BC11092960540917E0550E080917D0535
:100B300090917E05977090939C0580939B052091E2
:100B40007F0530E0C90165E0880F991F6A95E1F7DC
:100B500073E0559547957A95E1F7842B952B97701F
:100B600090939E0580939D054091810550E0909162
:100B70008005B4E09B9FC0011124BA01762F66273F
:100B8000770F770F862B972BF6E035952795FA95FB
:100B9000E1F7822B932B97709093A00580939F058C
:100BA0002091820530E0C9019695982F8827979566
:100BB000879555954795482B592B57705093A2050B
:100BC0004093A1056091830570E0AB01C4E0440F40
:100BD000551FCA95E1F784E0359527958A95E1F789
:100BE000242B352B37703093A4052093A305409117
:100BF000850550E090918405892F90E0880F991F1A
:100C00009A01322F2227330F822B932B660F672FE7
:100C1000661F770B862B972B97709093A605809372
:100C2000A5058091860590E09C01A6E0220F331F68
:100C3000AA95E1F75595479555954795242B352B62
:100C400037703093A8052093A7052091870548E0C9
:100C5000249F90011124C5E095958795CA95E1F7E9
:100C6000822B932B9093AA058093A9054091890527
:100C700050E0809188059091890597709093AC051C
:100C80008093AB0520918A0530E0C90165E0880FAB
:100C9000991F6A95E1F773E0559547957A95E1F7C5
:100CA000842B952B97709093AE058093AD05409162
:100CB0008C0550E090918B0564E0969FC001112453
:100CC000BA01762F6627770F770F862B972BF6E0E2
:100CD00035952795FA95E1F7822B932B9770909392
:100CE000B0058093AF0520918D0530E0C901969540
:100CF000982F88279795879555954795482B592B79
:100D000057705093B2054093B10540918E0550E065
:100D1000CA01C4E0880F991FCA95E1F764E03595D0
:100D200027956A95E1F7282B392B37703093B40556
:100D30002093B3052091900530E090918F05892F85
:100D400090E0880F991FB901762F6627770F862BC1
:100D5000972B440F452F441F550B842B952B9770D1
:100D60009093B6058093B5058091910590E0AC0114
:100D7000A6E0440F551FAA95E1F7359527953595BF
:100D80002795242B352B37703093B8052093B70562
:100D900020919205A8E02A9F90011124C5E0959525
:100DA0008795CA95E1F7822B932B9093BA05809390
:100DB000B90580919305282F207830E03093BC0549
:100DC0002093BB05282F207430E03093BE0520937C
:100DD000BD058F738093970583E080939805CF912D
:100DE00008958111C2E0C09398057DCE8091990548
:100DF00090919A05DC01ED91FC910284F385E02D40
:100E00001995E091960591E09E0F90939605F0E07C
:100E1000E358FA4F80836CCE82E0DFCFA3DB8111F1
:100E200087DC80E090E0892B49F080E090E0892B1E
:100E300029F00E94000081110E9400008ADB8111CC
:100E400000DE80E090E0892B21F07ADB81110C94A8
:100E500000000895CF92DF92EF92FF9269017A012C
:100E60006093790570937A0580937B0590937C0558
:100E7000AB01BC0188E795E098DDC0927405D09283
:100E80007505E0927605F0927705B701A60183E734
:100E900095E0FF90EF90DF90CF9087CDFC01118619
:100EA0001086138212821582148211A210A280E190
:100EB00097E2978F868F0895DC015A96ED91FC9109
:100EC00020E030E0A901CA01B9011994CF93DF9362
:100ED000EC01EA8DFB8D20E030E0A901CA01B901E7
:100EE0001995EC8DFD8DDF91CF9119940895FB013B
:100EF00001900020E9F73197AF01461B570B9DCABF
:100F00008F929F92AF92BF92EF92FF920F931F9397
:100F1000CF93DF93CDB7DEB7A1970FB6F894DEBFBE
:100F20000FBECDBF7C01FA01CB0119A2223008F41B
:100F30002AE08E010F5D1F4F822E912CB12CA12C27
:100F4000BF01A50194010E949D17F901CA016A30F1
:100F500004F5605DD8016E938D01232B242B252B86
:100F600079F790E080E0109719F0BD01C701BFDF6D
:100F7000A1960FB6F894DEBF0FBECDBFDF91CF9123
:100F80001F910F91FF90EF90BF90AF909F908F9027
:100F90000895695CDFCFCF92DF92EF92FF920F93BB
:100FA0001F93CF93DF93EC016A017B016DE255DB68
:100FB0008C0144275527BA014C195D096E097F0938
:100FC0002AE0CE019DDF800F911FDF91CF911F910D
:100FD0000F91FF90EF90DF90CF900895CF93DF9324
:100FE000BC0186E993E083DFEC0165E472E086E909
:100FF00093E07DDF8C0F9D1FDF91CF9108952F929D
:101000003F924F925F926F927F928F929F92AF9298
:10101000BF92CF92DF92EF92FF920F931F93CF93E5
:10102000DF93CDB7DEB72C970FB6F894DEBF0FBEB7
:10103000CDBF9C878B87DC011896CD90DC90C114C6
:10104000D104E9F0B1E0CB16D10429F12C960FB60A
:10105000F894DEBF0FBECDBFDF91CF911F910F91EE
:10106000FF90EF90DF90CF90BF90AF909F908F90C8
:101070007F906F905F904F903F902F90089588E4FD
:1010800092E0ACDF81E090E0EB85FC859187808782
:1010900011A210A2DBCFAB85BC8512960D90BC913E
:1010A000A02DBA83A983EB85FC85E680F780228D8D
:1010B000338D38872F83AE15BF053CF4848195812D
:1010C0009E838D83E816F90664F520E030E0A901DF
:1010D000CA01B901EF81F885199582E090E0AB85EE
:1010E000BC8519969C938E9318975C96ED91FC9114
:1010F0002C960FB6F894DEBF0FBECDBFDF91CF9117
:101100001F910F91FF90EF90DF90CF90BF90AF9025
:101110009F908F907F906F905F904F903F902F9017
:101120001994EB85FC8560A171A1072E000C880B3A
:10113000990B0E94D2182AE037ED43E25CE30E944B
:1011400086198B011C01AB85BC851E968C901E9761
:101150001F969C901F975096AC9050975196BC90BC
:101160009401A5010E94331887FD02C08401150176
:1011700069817A81ED81FE816E0F7F1F072E000C41
:10118000880B990B0E94D21820E030E040E05FE32A
:101190000E9486192B013C01B7010F2C000C880B13
:1011A000990B0E94D21823E333E343E75FE30E94E5
:1011B00086194B015C01B7016431710514F464E1D7
:1011C00070E064517109072E000C880B990B0E9486
:1011D000D21869877A877C019B01AC01B401C501F3
:1011E0000E94331887FD03C089849A845701A301A4
:1011F0009201B401C5010E94331887FF34C02DEC61
:101200003CEC4CEC5EE3B801C1010E948219181657
:1012100054F59401A501C301B2010E94CE172DEC33
:101220003CEC4CE45EEB0E9486199B01AC0160E053
:1012300070E080E090E40E94E9199B01AC01B801E4
:10124000C1010E9486198B011C012DEC3CEC4CEC79
:101250005EE30E948219181634F00DEC1CEC3CEC95
:10126000232E4EE3342EAB85BC851A968D909D902F
:10127000AD90BC901D97E981FA81BF01FF0F880BEB
:10128000990B0E94D218A50194010E9486192B0186
:101290003C012D813E81B901330F880B990B0E94CF
:1012A000D2189B01AC01C301B2010E94CE170E946B
:1012B0009F189B01AB014D5E5F4F84E190E0473288
:1012C000510540F4AB0137FF04C044275527461BA6
:1012D000570BCA0137FF03C0CC24CA94DC2C8C9D69
:1012E00070018D9DF00C9C9DF00C1124AB85BC858C
:1012F0005E966D917C91072E000C880B990B0E94D5
:10130000D21820E030E44CE156E40E94821987FDB7
:1013100004C0EB85FC85F78EE68EAB85BC855E96BA
:101320008D919C91B701681B790B072E000C880BDF
:10133000990B0E94D218EB85FC8526A137A140A508
:1013400051A50E9486192B013C01B7010F2C000CFE
:10135000880B990B0E94D218AB85BC8592962D9173
:101360003D914D915C9195970E9486199B01AC012E
:10137000C301B2010E94CF172B013C0120E030E0F5
:1013800040E85FE3C501B4010E94CF179B01AC01A7
:10139000B801C1010E9437184B015C01AC019B01EF
:1013A000B801C1010E94CE1769837A838B839C8325
:1013B00020E030E040E85FE3C301B2010E94CF17B4
:1013C00029813A814B815C810E948619EB85FC85DD
:1013D00026893789408D518D0E94861969837A83C9
:1013E0008B839C83A301920160E070E080E89FE31F
:1013F0000E94CE17A50194010E948619AB85BC8579
:1014000052962D913D914D915C9155970E94861970
:1014100029813A814B815C81EF81F8851995AB85F3
:10142000BC855F96FC92EE925E9790968D919C9112
:101430009197019691969C938E93909707CE57CD56
:101440004F925F926F927F928F929F92AF92BF92D4
:10145000CF92DF92EF92FF92CF936B017C01842EAB
:10146000AC019B010E943B1A6CE572E0811126C021
:1014700026013701E89477F82FEF3FEF4FE75FE75A
:10148000C301B2010E943B1A81110CC02FEF3FEF44
:101490004FE75FE7C301B2010E94331860E672E0D4
:1014A000181664F02FEF3FEF4FE75FE4C701B60176
:1014B0000E948219181694F464E672E086E993E0BB
:1014C000CF91FF90EF90DF90CF90BF90AF909F9023
:1014D0008F907F906F905F904F9009CD2FEF3FEFEF
:1014E0004FE75FECC701B6010E94331887FDE4CFD8
:1014F00020E030E0A901C701B6010E943318B12CE9
:10150000A12C87FF09C06DE286E993E0A6D85C01B3
:10151000F7FAF094F7F8F094C82D60E070E080E0FE
:101520009FE3912C20E030E040E251E40E94371824
:1015300093949814B8F3A70196010E94CF172B013A
:101540003C010E94A4186B017C010E94D0189B01F1
:10155000AC01C301B2010E94CE172B013C012AE06D
:10156000B701A60186E993E0CBDC7C016EE286E957
:1015700093E073D8E80EF91EEA0CFB1CC15020F171
:1015800020E030E040E251E4C301B2010E9486193C
:101590002B013C010E94A4184B01B12CA12C2AE084
:1015A000B501A40186E993E0ABDCE80EF91EC501A4
:1015B000B4010E94D0189B01AC01C301B2010E948A
:1015C000CE172B013C01DACFC701CF91FF90EF90EE
:1015D000DF90CF90BF90AF909F908F907F906F9053
:1015E0005F904F900895CF93DF93EC0188819981AC
:1015F000009759F54F8558892D813E81429FC00142
:10160000439F900D529F900D11242B853C85280FF0
:10161000391F8B819C8101974817590798F44F5FB8
:101620005F4F588B4F87CB014D815E81B9010E947E
:10163000FA1C89899A8901979A8B898B81E0DF91BD
:10164000CF910895188A1F86EECF0197F9F42D8562
:101650003E8521153105A1F0215031093E872D87A6
:101660004D815E812D853E85429FC001439F900D37
:10167000529F900D11242B853C85280F391FD3CF05
:101680008B819C8101979E878D87EACF80E0D7CFA1
:10169000CF93DF93EC018A81811107C04B815C817C
:1016A00029893A8942175307D9F14D815E812D85E9
:1016B0003E85429FC001439F900D529F900D112483
:1016C0002B853C85820F931F0E94FA1C2B813C8145
:1016D0008D859E85A901415051098417950768F4AD
:1016E00001969E878D8789899A892817390741F045
:1016F00001969A8B898B81E013C01E861D86F3CFDD
:101700008A818823C1F328813981232B49F42F85CD
:1017100038892417350738F42F5F3F4F388B2F87D0
:10172000DF91CF910895188A1F86FACF88E692E05C
:1017300055DC1092790510927A0510927B05109273
:101740007C0540E050E0BA0188E795E02ED9109280
:10175000740510927505109276051092770540E099
:1017600050E0BA0183E795E020D9E3E6F3E088ECA6
:1017700080838091100281831282809192039091E4
:101780009303A0919403B0919503948383838091F4
:101790008A0390918B03A0918C03B0918D03968363
:1017A0008583BF01809134089091350871DF69E726
:1017B00072E086E993E043DE4091100250E070E071
:1017C00060E02AE086E993E09BDB65E472E086E96D
:1017D00093E08DCB0E94F61C1F920F920FB60F92D2
:1017E00011240BB60F922F933F934F935F936F93F8
:1017F0007F938F939F93AF93BF93EF93FF9386E96C
:1018000093E00E940B03FF91EF91BF91AF919F91E5
:101810008F917F916F915F914F913F912F910F9099
:101820000BBE0F900FBE0F901F9018951F920F9236
:101830000FB60F9211240BB60F922F933F934F9335
:101840005F936F937F938F939F93AF93BF93EF9328
:10185000FF9386E993E00E944A02FF91EF91BF91C6
:10186000AF919F918F917F916F915F914F913F9138
:101870002F910F900BBE0F900FBE0F901F901895D9
:101880001F920F920FB60F9211240BB60F922F9347
:101890003F934F935F936F937F938F939F93AF93F8
:1018A000BF93EF93FF9383E394E00E940B03FF91B8
:1018B000EF91BF91AF919F918F917F916F915F91C8
:1018C0004F913F912F910F900BBE0F900FBE0F9035
:1018D0001F9018951F920F920FB60F9211240BB6FE
:1018E0000F922F933F934F935F936F937F938F93B9
:1018F0009F93AF93BF93EF93FF9383E394E00E9492
:101900004A02FF91EF91BF91AF919F918F917F918B
:101910006F915F914F913F912F910F900BBE0F9060
:101920000FBE0F901F9018951F920F920FB60F9237
:1019300011240BB60F922F933F934F935F936F93A6
:101940007F938F939F93AF93BF93EF93FF9380ED1C
:1019500094E00E940B03FF91EF91BF91AF919F9193
:101960008F917F916F915F914F913F912F910F9048
:101970000BBE0F900FBE0F901F9018951F920F92E5
:101980000FB60F9211240BB60F922F933F934F93E4
:101990005F936F937F938F939F93AF93BF93EF93D7
:1019A000FF9380ED94E00E944A02FF91EF91BF9176
:1019B000AF919F918F917F916F915F914F913F91E7
:1019C0002F910F900BBE0F900FBE0F901F90189588
:1019D0001F920F920FB60F9211242F933F938F9364
:1019E0009F93AF93BF938091530390915403A09121
:1019F0005503B091560330914E0323E0230F2D374A
:101A000058F50196A11DB11D20934E0380935303F9
:101A100090935403A0935503B093560380914F03C2
:101A200090915003A0915103B09152030196A11DD2
:101A3000B11D80934F0390935003A0935103B09333
:101A40005203BF91AF919F918F913F912F910F9032
:101A50000FBE0F901F90189526E8230F0296A11D28
:101A6000B11DD2CF1F920F920FB60F9211240BB659
:101A70000F922F933F934F935F936F937F938F9327
:101A80009F93AF93BF93EF93FF93E0910E02F0917A
:101A90000F021995FF91EF91BF91AF919F918F9197
:101AA0007F916F915F914F913F912F910F900BBE5E
:101AB0000F900FBE0F901F9018951F920F920FB6A8
:101AC0000F9211240BB60F922F933F934F935F9376
:101AD0006F937F938F939F93AF93BF93EF93FF93F6
:101AE000E0910C02F0910D021995FF91EF91BF91D9
:101AF000AF919F918F917F916F915F914F913F91A6
:101B00002F910F900BBE0F900FBE0F901F90189546
:101B10001F920F920FB60F9211240BB60F922F93B4
:101B20003F934F935F936F937F938F939F93AF9365
:101B3000BF93EF93FF93E0910202F0910302199596
:101B4000FF91EF91BF91AF919F918F917F916F9195
:101B50005F914F913F912F910F900BBE0F900FBE51
:101B60000F901F9018951F920F920FB60F9211248D
:101B70000BB60F922F933F934F935F936F937F9387
:101B80008F939F93AF93BF93EF93FF93E0910002E6
:101B9000F09101021995FF91EF91BF91AF919F9143
:101BA0008F917F916F915F914F913F912F910F9006
:101BB0000BBE0F900FBE0F901F9018951F920F92A3
:101BC0000FB60F9211240BB60F922F933F934F93A2
:101BD0005F936F937F938F939F93AF93BF93EF9395
:101BE000FF93E0910A02F0910B021995FF91EF919A
:101BF000BF91AF919F918F917F916F915F914F9125
:101C00003F912F910F900BBE0F900FBE0F901F9022
:101C100018951F920F920FB60F9211240BB60F92C8
:101C20002F933F934F935F936F937F938F939F93E4
:101C3000AF93BF93EF93FF93E0910802F0910902F5
:101C40001995FF91EF91BF91AF919F918F917F91E6
:101C50006F915F914F913F912F910F900BBE0F901D
:101C60000FBE0F901F9018951F920F920FB60F92F4
:101C700011240BB60F922F933F934F935F936F9363
:101C80007F938F939F93AF93BF93EF93FF93E091D5
:101C90000602F09107021995FF91EF91BF91AF9164
:101CA0009F918F917F916F915F914F913F912F9174
:101CB0000F900BBE0F900FBE0F901F9018951F92A4
:101CC0000F920FB60F9211240BB60F922F933F93E2
:101CD0004F935F936F937F938F939F93AF93BF9334
:101CE000EF93FF93E0910402F09105021995FF91A3
:101CF000EF91BF91AF919F918F917F916F915F9184
:101D00004F913F912F910F900BBE0F900FBE0F90F0
:101D10001F9018954F925F926F927F928F929F9231
:101D2000AF92BF92CF92DF92EF92FF920F931F93E9
:101D3000CF93DF93109299031092980348EE53E0EB
:101D400060E070E040939A0350939B0360939C0380
:101D500070939D038FE192E0909397038093960395
:101D600025E331E03093A3032093A20324E331E081
:101D70003093A5032093A40320E331E03093A7031D
:101D80002093A60321E331E03093A9032093A80315
:101D900022E331E03093AB032093AA0326E331E042
:101DA0003093AD032093AC031092AF031092B003B5
:101DB0001092B1031092B2031092360410923504BF
:101DC00040933704509338046093390470933A0475
:101DD000909334048093330425ED30E03093400435
:101DE00020933F0424ED30E03093420420934104DB
:101DF00020ED30E0309344042093430421ED30E0A3
:101E0000309346042093450422ED30E0309348049B
:101E10002093470426ED30E030934A042093490490
:101E200010924C0410924D0410924E0410924F04E4
:101E30001092D3041092D2044093D4045093D5044A
:101E40006093D6047093D7049093D1048093D00408
:101E500085EC90E09093DD048093DC0484EC90E0CA
:101E60009093DF048093DE0480EC90E09093E10493
:101E70008093E00481EC90E09093E3048093E2048B
:101E800082EC90E09093E5048093E40486EC90E08B
:101E90009093E7048093E6041092E9041092EA0418
:101EA0001092EB041092EC041092C1051092C00540
:101EB0008BE98093C20588E08093C50580E091E0BE
:101EC0009093C4058093C3050E94D11B9093C705CE
:101ED0008093C60530E020E08091C3059091C40551
:101EE00028173907E0F46091C20570E0C90148E0A5
:101EF00050E0FC01E078FF27880F991FEF2B11F0CD
:101F00008627972741505109A1F7E091C605F09126
:101F1000C705E20FF31F80832F5F3F4FDDCF109285
:101F2000C4071092C5071092C7071092C6071092F7
:101F3000CA071092CB071092CC071092CD071092CF
:101F4000CE071092C1051092C00504E318E088E3A3
:101F5000482E88E0582E9AE0692E712C23E2C22E7A
:101F6000D12C3EE5832E99249394A12CB12C45EAE3
:101F7000E42E4AE5F42E85E190E00E94D11BEC01AD
:101F80007C826B82DE82CD82198218821A821C8A40
:101F90001B8A8EE591E00E94D11B9C878B87892B41
:101FA00009F0BCC01F82188619861A86D801CD9305
:101FB000DD938D0185E190E00E94D11BEC017C82D4
:101FC0006B82DE82CD82198218821A821C8A1B8A59
:101FD0008EE591E00E94D11B9C878B87892B09F0AD
:101FE000AAC01F82188619861A86F801D383C28375
:101FF0004016510609F0BFCF1092960584E68093F3
:1020000097051092980580E090E0A8ECB2EC8093E0
:10201000790590937A05A0937B05B0937C0527E121
:10202000209378058093740590937505A0937605A9
:10203000B093770586E18093730580E290E00E947B
:10204000D11BFC0180E2DF011D928A95E9F7128A1B
:10205000138A148A158A168A178A108E118E89E3BC
:1020600092E091838083F0937205E09371058AE298
:1020700090E00E94D11BFC01128A138A148A158AEF
:10208000168A178A108E118E81E392E091838083E5
:102090008DEC9CECACE4BDE382A393A3A4A3B5A315
:1020A0008AE097EDA3E2BCE386A397A3A0A7B1A71C
:1020B0000AE217E0138F028FC6E9DBE0D58FC48FE9
:1020C000F0937005E0936F0580E290E00E94D11BD1
:1020D000FC01128A138A148A158A168A178A108EAE
:1020E000118E81E492E091838083138F028FD58FCC
:1020F000C48FF0936E05E0936D05DF91CF911F9132
:102100000F91FF90EF90DF90CF90BF90AF909F9096
:102110008F907F906F905F904F9008958F829886F8
:10212000A986BA86FC8AEB8A1E861D86188A1F86B7
:102130001A8A198A3BCF8F829886A986BA86FC8A2A
:10214000EB8A1E861D86188A1F861A8A198A4DCF29
:10215000CF93DF93CDB7DEB7AF970FB6F894DEBF5E
:102160000FBECDBF789484B5826084BD84B5816094
:1021700084BD85B5826085BD85B5816085BD809152
:102180006E00816080936E001092810080918100CA
:1021900082608093810080918100816080938100C2
:1021A000809180008160809380008091B100846084
:1021B0008093B1008091B00081608093B0008091E5
:1021C0009100826080939100809191008160809362
:1021D0009100809190008160809390008091A10097
:1021E00082608093A1008091A10081608093A10012
:1021F0008091A00081608093A00080912101826085
:10220000809321018091210181608093210180913F
:10221000200181608093200180917A008460809306
:102220007A0080917A00826080937A0080917A00AF
:10223000816080937A0080917A00806880937A0030
:102240001092C10026E040E855E260E070E080EDC9
:1022500094E00E94BB0280ED94E09093C9078093C4
:10226000C8072EE240EA56E861E070E083E394E0BC
:102270000E94BB0283E394E090939A0580939905B2
:102280002EE240EA56E861E070E00E94BB0282E084
:102290008093980526E040E05BE460E070E086E92A
:1022A00093E00E94BB0284E992E00E94EE0788E777
:1022B00095E00E94090583E795E00E94090562E028
:1022C00082E10E94380462E083E10E94380462E007
:1022D00084E10E94380462E085E10E94380489E9C3
:1022E00091E090930B0280930A0280916900806CC8
:1022F00080936900EB9A87EC91E0909309028093B8
:10230000080280916900806380936900EA9A8BEDEE
:1023100091E09093070280930602809169008C609F
:1023200080936900E99A89E092E090930502809396
:10233000040280916900836080936900E89A80E0DC
:102340000E9469048C0181E00E946904B801680F51
:10235000791F072E000C880B990B611571058105FB
:10236000910509F09FD590E080E0A5D58A32B9F0BB
:102370006AE290E080E0A7D549D5EEEFCE2ED12CD1
:10238000E12CF12CA7019601ACD581E090E09BD522
:102390003DD5A7019601A5D582E090E094D564E1F2
:1023A00070E080E090E00E94A40410927905109201
:1023B0007A0510927B0510927C0540E050E0BA014E
:1023C00088E795E00E94D504109274051092750577
:1023D000109276051092770540E050E0BA0183E74D
:1023E00095E00E94D50464E170E080E090E00E94F6
:1023F000A40480917105909172059093620380937B
:10240000610352E0252E312C8091C8079091C907B5
:10241000DC01ED91FC910084F185E02D1995892B6B
:1024200039F41092C4071092C5070CC18093CB07F2
:102430008091C8079091C907DC01ED91FC9100845F
:10244000F185E02D1995892B09F43EC18091C807CB
:102450009091C907DC01ED91FC910284F385E02D98
:102460001995182F482F50E070E060E02AE086E9C7
:1024700093E00E9480076DEA72E086E993E00E9493
:102480001F0A4091C6075091C707052E000C660B26
:10249000770B77FF3AC086E993E00E94CB076FEA9B
:1024A00072E086E993E00E941F0A8091C60790912E
:1024B000C7078230910509F460C068F5009709F4F8
:1024C0004AC0019709F452C061EC72E080ED94E0DB
:1024D0000E941F0A4091C6075091C707052E000CA5
:1024E000660B770B77FFEAC080ED94E00E94CB0784
:1024F00065E472E080ED94E00E9477071092C407D3
:102500001092C7071092C60793CF2AE086E993E09E
:102510000E948007C4CF8430910509F45AC008F4A2
:1025200041C0059789F61092C7071092C607113867
:1025300009F0C0C08091CD078F3F09F474C02EE729
:10254000E82FF0E0EA53F94F9081992309F469C02C
:102550002083890FF5CF1E3731F4E1E0F0E0F093EE
:10256000C707E093C6071092CB0762CF1093CD0741
:102570003092C7072092C6075BCF1F3F49F01093E8
:10258000CA0783E090E09093C7078093C60750CFB7
:102590001092C4071092C7071092C6078EEF80935F
:1025A000C50750C08091CB079091CA07891780F763
:1025B000E82FF0E0EA53F94F10838F5F981336CF7E
:1025C0001092CB07A4E0B0E0B093C707A093C60772
:1025D0002FCF2091CA074091C6055091C705A6ECA0
:1025E000B6E090E080E0E0E030E08217930740F44E
:1025F0006D91E627E40FF52FF11DE0810196F5CFEF
:102600001E1307C0E5E0F0E0F093C707E093C607AC
:102610000FCF1092C4071092C7071092C6078FEF12
:10262000BECF8EE780838091CA078093C40781E084
:102630008093C50782EB92E00E94EE078091CA0763
:10264000811146C0E091BF05F0E0EE0FFF1FEC5C8A
:10265000F74F80819181DC0151962D913C91232B84
:1026600009F4ACC068EC75E00E94F30A8FEF809328
:10267000CC07A8ECB5E0FD0180E091919E3711F404
:102680008093CC078F5F8332C1F7EBEEF5E082E2F7
:1026900092919E37A9F5EFEBF5E022E230E043A5F9
:1026A0004E3719F4821B83A7C90131972150310994
:1026B000B0F728C01092C4078DEF71CF2AE080EDEB
:1026C00094E00E94800714CF1092C40782E067CF85
:1026D0004091C40750E04432510510F043E250E00D
:1026E00066EC76E0CE0101960E94FA1CBE016F5F97
:1026F0007F4F80913808909139080E94480BA2CFF3
:10270000815030F62091C6053091C7058BEE95E0DB
:1027100010E0ED91E127E20FF32FF11D10818A17F0
:102720009B07B9F78091C8079091C907DC01ED912B
:10273000FC910190F081E02D6EE719958091C8071A
:102740009091C907DC01ED91FC910190F081E02DA1
:102750006091CC0719958091C8079091C907DC0159
:10276000ED91FC910190F081E02D63E2199580914B
:10277000C8079091C907DC01ED91FC910280F381BB
:10278000E02D43E250E068EC75E019958091C807B0
:102790009091C907DC01ED91FC910190F081E02D51
:1027A000612F19958091C8079091C907DC01ED91BF
:1027B000FC910190F081E02D61E819958091BF05B1
:1027C00090E00196817099278093BF058091380829
:1027D00090913908FC0121893289232B09F454C0D6
:1027E00063E673E00E94F30A882309F44DC06AEDA2
:1027F00072E086E993E00E941F0A4091630350E073
:1028000070E060E02AE086E993E00E94800765E4DA
:1028100072E086E993E00E94770780916303843633
:1028200009F4FBC0863609F464C2853009F0A2C2FF
:102830008EE193E00E94EE0780916D0590916E0508
:1028400090936203809361032091640320931002AC
:10285000DC01ED91FC910190F081E02D19950E9431
:1028600078012FB7F8948091530390915403A0916D
:102870005503B09156032FBF80935D0390935E0381
:10288000A0935F03B093600300915B0310915C031E
:10289000C80164E670E056D7892B09F082C082E057
:1028A000809363038091970590E0909365038093F4
:1028B0006403892BA9F4E9E9F5E0A6E6B3E089EB26
:1028C00095E0219131912D933D938E179F07C9F784
:1028D00063E673E080913408909135080E94480BBC
:1028E0008091920390919303A0919403B0919503EA
:1028F00040918A0350918B0360918C0370918D03FA
:10290000840F951FA61FB71F40915703509158037E
:102910006091590370915A0384179507A607B7076A
:1029200009F43FC083E08093630380919203909108
:102930009303A0919403B0919503909365038093C2
:10294000640380918A0390918B03A0918C03B091D2
:102950008D03909367038093660363E673E0809131
:102960003408909135080E94480B80919203909111
:102970009303A0919403B091950340918A035091E1
:102980008B0360918C0370918D03840F951FA61F9C
:10299000B71F8093570390935803A0935903B093A4
:1029A0005A03C80164E170E0CDD6892B21F5A091CE
:1029B0006103B091620340918A0350918B0360914F
:1029C0008C0370918D0300919203109193032091D9
:1029D00094033091950313961C930E9312971596BA
:1029E0005C934E931497ED91FC9111970280F381C3
:1029F000E02DCD01199580915B0390915C030196C8
:102A000090935C0380935B0361E070E080E090E072
:102A10000E94A4040E940E07F7CC87E492E00E9473
:102A2000EE0764EE72E086E993E00E941F0A40918F
:102A3000630350E070E060E02AE086E993E00E94E2
:102A400080076091640370916503072E000C880B6A
:102A5000990BA8D320E030E04AE754E49FD220E06D
:102A600030E04AE754E403D36B017C0160916603D4
:102A700070916703072E000C880B990B93D320E00D
:102A800030EA4CE056E48AD220E030EA4CE056E4EA
:102A9000EED26CA77DA78EA79FA700916803109127
:102AA000690380916A038093100280916F05909171
:102AB00070059093620380936103DC01ED91FC91BA
:102AC0000190F081E02D199520E030E040E05FE3D7
:102AD0006CA57DA58EA59FA519D42BED3FE049E4FB
:102AE00050E414D4C2D49B01AC01C701B6010ED48A
:102AF0002B013C0120E030E0A901C701B60102D45E
:102B000020E030E0A90118160CF0E7C0C301B201C3
:102B1000F9D3A301920118160CF05058C701B60161
:102B20003DD24B015C0120E030E040E05FE3C301B7
:102B3000B201ECD32B013C01AC019B01C501B401F6
:102B40002DD26CA37DA38EA39FA3A5019401C301E5
:102B5000B20125D268A779A78AA79BA720E030E019
:102B6000A90181D2812C912C30E8A32E3FEBB32E0A
:102B700087FD13C020E030E0A90168A579A58AA5EA
:102B80009BA5C0D3812C912C5401181634F4812CB0
:102B9000912C20E8A22E2FE3B22E20E030E0A901F4
:102BA0006CA17DA18EA19FA15ED2412C512C90E8F9
:102BB000692E9FEB792E87FD13C020E030E0A9013C
:102BC0006CA17DA18EA19FA19DD3412C512C3201DE
:102BD000181634F4412C512C80E8682E8FE3782E9F
:102BE000E0916103F09162031783068380E090E037
:102BF000A0E8BFE382879387A487B587C686D78678
:102C0000E08AF18A828A938AA48AB58A468A578A98
:102C1000608E718E0E94780160EB72E086E993E02D
:102C20000E941F0A42E050E0C701B6010E94200A3C
:102C300060EB72E086E993E00E941F0A42E050E0F8
:102C40006CA57DA58EA59FA50E94200A60EB72E071
:102C500086E993E00E941F0AA80170E060E02AE084
:102C600086E993E00E94800760EB72E086E993E0DA
:102C70000E941F0A42E050E0C501B4010E94200AF0
:102C800060EB72E086E993E00E941F0A42E050E0A8
:102C9000C301B2010E94200A60EB72E086E993E072
:102CA0000E941F0A42E050E068A579A58AA59BA56D
:102CB0000E94200A60EB72E086E993E00E941F0AFE
:102CC00042E050E06CA17DA18EA19FA10E94200A4C
:102CD00087E492E00E94EE07C4CDC301B20112D393
:102CE000A301920118160CF05058C701B60157D134
:102CF00018CF62EF72E086E993E00E941F0A6091AC
:102D0000640370916503072E000C880B990B4AD25F
:102D100020E030E04AE754E4AAD120E030E040E08F
:102D20005FE33CD14B015C0120E030E040E85FE331
:102D300036D16B017C01E0916103F0916203C286A0
:102D4000D386E486F58665E073E086E993E00E9429
:102D50001F0A4AE050E0C501B4010E94200A61E167
:102D600073E086E993E00E941F0A4AE050E0C70141
:102D7000B601ACCF84E393E0ADCF8F929F92AF9238
:102D8000BF92CF92DF92EF92FF92CF93DF93EC014D
:102D9000688179818A819B81611571058105910521
:102DA00021F464E279ED8BE597E02DE133EF41E02A
:102DB00050E097D049015A019B01AC01A7EAB1E468
:102DC000ACD06B017C01ACEEB4EFA5019401B1D0A5
:102DD000C60ED71EE81EF91EF7FE06C081E0C81A0F
:102DE000D108E10880E8F80AC882D982EA82FB8229
:102DF000C701B6019F77DF91CF91FF90EF90DF90F1
:102E0000CF90BF90AF909F908F9008958F929F9298
:102E1000AF92BF92CF92DF92EF92FF926091110238
:102E20007091120280911302909114026115710544
:102E30008105910521F464E279ED8BE597E02DE1C0
:102E400033EF41E050E04DD049015A019B01AC0104
:102E5000A7EAB1E462D06B017C01ACEEB4EFA5014E
:102E6000940167D0C60ED71EE81EF91EF7FE06C0F5
:102E700081E0C81AD108E10880E8F80AC09211027E
:102E8000D0921202E0921302F0921402C701B6012E
:102E90009F77FF90EF90DF90CF90BF90AF909F9083
:102EA0008F90089560931102709312028093130221
:102EB000909314020895F999FECF92BD81BDF89ABE
:102EC000992780B50895262FF999FECF1FBA92BD94
:102ED00081BD20BD0FB6F894FA9AF99A0FBE0196FB
:102EE0000895052E97FB16F400940FD057FD05D0DA
:102EF00024D007FC02D046F408C050954095309588
:102F000021953F4F4F4F5F4F089590958095709555
:102F100061957F4F8F4F9F4F089531D0A59F900DA2
:102F2000B49F900DA49F800D911D11240895B7FFAB
:102F3000F4CFF3DF821B930B0895A1E21A2EAA1B94
:102F4000BB1BFD010DC0AA1FBB1FEE1FFF1FA21759
:102F5000B307E407F50720F0A21BB30BE40BF50B56
:102F6000661F771F881F991F1A9469F760957095DF
:102F7000809590959B01AC01BD01CF010895A29F62
:102F8000B001B39FC001A39F700D811D1124911D3D
:102F9000B29F700D811D1124911D08955058BB27BB
:102FA000AA270ED075C166D130F06BD120F031F474
:102FB0009F3F11F41EF45BC10EF4E095E7FB51C195
:102FC000E92F77D180F3BA17620773078407950753
:102FD00018F071F49EF58FC10EF4E0950B2EBA2F08
:102FE000A02D0B01B90190010C01CA01A00111240F
:102FF000FF27591B99F0593F50F4503E68F11A16BB
:10300000F040A22F232F342F4427585FF3CF46954B
:1030100037952795A795F0405395C9F77EF41F166D
:10302000BA0B620B730B840BBAF09150A1F0FF0F37
:10303000BB1F661F771F881FC2F70EC0BA0F621F23
:10304000731F841F48F4879577956795B795F79513
:103050009E3F08F0B3CF9395880F08F09927EE0FA5
:10306000979587950895D9D008F481E008950CD0FC
:103070000FC107D140F0FED030F021F45F3F19F0CE
:10308000F0C0511139C1F3C014D198F39923C9F399
:103090005523B1F3951B550BBB27AA27621773075E
:1030A000840738F09F5F5F4F220F331F441FAA1F12
:1030B000A9F333D00E2E3AF0E0E830D091505040D2
:1030C000E695001CCAF729D0FE2F27D0660F771F80
:1030D000881FBB1F261737074807AB07B0E809F062
:1030E000BB0B802DBF01FF2793585F4F2AF09E3FF7
:1030F000510568F0B6C000C15F3FECF3983EDCF3C9
:10310000869577956795B795F7959F5FC9F7880F6F
:10311000911D9695879597F90895E1E0660F771FC1
:10312000881FBB1F621773078407BA0720F0621B52
:10313000730B840BBA0BEE1F88F7E095089504D04B
:103140006894B111D9C00895BCD088F09F5790F011
:10315000B92F9927B751A0F0D1F0660F771F881FBC
:10316000991F1AF0BA95C9F712C0B13081F0C3D0D7
:10317000B1E00895C0C0672F782F8827B85F39F075
:10318000B93FCCF3869577956795B395D9F73EF41B
:1031900090958095709561957F4F8F4F9F4F0895C3
:1031A000E89409C097FB3EF49095809570956195E1
:1031B0007F4F8F4F9F4F9923A9F0F92F96E9BB2797
:1031C0009395F695879577956795B795F111F8CF13
:1031D000FAF4BB0F11F460FF1BC06F5F7F4F8F4F7E
:1031E0009F4F16C0882311F096E911C0772321F074
:1031F0009EE8872F762F05C0662371F096E8862F0C
:1032000070E060E02AF09A95660F771F881FDAF762
:10321000880F9695879597F90895990F0008550F8F
:10322000AA0BE0E8FEEF16161706E807F907C0F04C
:1032300012161306E407F50798F0621B730B840B54
:10324000950B39F40A2661F0232B242B252B21F42E
:1032500008950A2609F4A140A6958FEF811D811DCE
:10326000089597F99F6780E870E060E008959FEF08
:1032700080EC089500240A9416161706180609060D
:10328000089500240A9412161306140605060895DC
:10329000092E0394000C11F4882352F0BB0F40F464
:1032A000BF2B11F460FF04C06F5F7F4F8F4F9F4FA4
:1032B000089557FD9058440F551F59F05F3F71F026
:1032C0004795880F97FB991F61F09F3F79F087958D
:1032D0000895121613061406551FF2CF4695F1DF16
:1032E00008C0161617061806991FF1CF86957105A6
:1032F000610508940895E894BB2766277727CB01DA
:1033000097F908958ADF08F48FEF08950BD0C0CFA6
:10331000B1DF28F0B6DF18F0952309F0A2CFA7CFD0
:103320001124EACFC6DFA0F3959FD1F3950F50E0AB
:10333000551F629FF001729FBB27F00DB11D639F67
:10334000AA27F00DB11DAA1F649F6627B00DA11D0D
:10335000661F829F2227B00DA11D621F739FB00DB3
:10336000A11D621F839FA00D611D221F749F332723
:10337000A00D611D231F849F600D211D822F762FBC
:103380006A2F11249F5750408AF0E1F088234AF0B9
:10339000EE0FFF1FBB1F661F771F881F9150504005
:1033A000A9F79E3F510570F05CCFA6CF5F3FECF3CD
:1033B000983EDCF3869577956795B795F795E795F1
:1033C0009F5FC1F7FE2B880F911D9695879597F902
:1033D0000895FA01EE0FFF1F30962105310599F18E
:1033E0006115710561F48038BFE39B0749F168946A
:1033F0009038810561F08038BFEF9B0741F0992339
:1034000042F5FF3FE1053105210511F1E8940894EB
:10341000E795D901AA2329F4AB2FBE2FF85FD0F38B
:1034200010C0FF5F70F4A695E0F7F73950F019F07F
:10343000FF3A38F49F779F930CD00F9007FC905879
:1034400008953EF014CF60E070E080E89FE30895B7
:103450004FE79F775F934F933F932F93E1D02F9147
:103460003F914F915F9152DF0FC09F935FD00F90BC
:1034700007FCEE5F82C0D1DE880B990B089519F42A
:103480000EF0EFCE38CFF3CE1CDFC8F39638C0F77E
:1034900007F80F92E8942BE33AEA48EB5FE744DF42
:1034A0000F920F920F924DB75EB70F92F9D0E4EEE4
:1034B000F0E016D04F915F91EF91FF91E595EE1FEF
:1034C000FF1F49F0FE57E0684427EE0F441FFA95AE
:1034D000E1F74195550B6BD00F9007FE5FC0089543
:1034E000DF93CF931F930F93FF92EF92DF927B01B5
:1034F0008C01689405C0DA2EEF0114DFFE01E89418
:10350000A5912591359145915591AEF3EF0158DD87
:10351000FE019701A801DA9479F7DF90EF90FF9010
:103520000F911F91CF91DF910895A1CECADEE8F3EC
:10353000E894E0E0BB279F57F0F02AED3FE049EC2C
:1035400006C0EE0FBB0F661F771F881F28F0B23A28
:1035500062077307840728F0B25A620B730B840B5F
:10356000E3959A9572F7803830F49A95BB0F661FF1
:10357000771F881FD2F79048C8C0EF93E0FF06C0BE
:10358000A2EA2AED3FE049EC5FEB1ADD81DE0F9005
:10359000039401FC9058ECE0F1E0C3C09B01AC0146
:1035A00060E070E080E89FE362CD5BCEACC089DE76
:1035B000E8F39923D9F3940F511DBBF39150504078
:1035C00094F059F0882332F0660F771F881F9150CE
:1035D0005040C1F79E3F510544F7880F911D9695C5
:1035E000879597F908955F3FACF0983E9CF0BB2714
:1035F000869577956795B79508F4B1609395C1F76F
:10360000BB0F58F711F460FFE8CF6F5F7F4F8F4F0C
:103610009F4FE3CF71CE0EF076C029CE689421CEB5
:1036200050DEC8F39923D1F3C6F3DF93CF931F93F2
:103630000F93FF92C92FDD2788232AF02197660F69
:10364000771F881FDAF720E030E040E85FEB9FE368
:10365000883920F0803E30F021968F77A0DCEAE2B6
:10366000F1E003C09CDCE7E5F1E03ADF8B01BE014D
:10367000EC01FB2E6F5771097595771F880B990B1D
:1036800091DD28E132E741E35FE34CDEAF2D9801A5
:10369000AE01FF900F911F91CF91DF9191DCF8CD9A
:1036A000FA01DC01AA0FBB1F9B01AC01BF5728F434
:1036B00022273327442750781FC0B75188F4AB2FF7
:1036C0000024469537952795011CA395D2F3002039
:1036D00069F0220F331F441FB395DAF30DD05ECC8F
:1036E00061307105A0E88A07B94630F49B01AC014E
:1036F0006627772788279078309621F020833183BA
:103700004283538308959F3F31F0915020F4879571
:1037100077956795B795880F911D9695879597F939
:1037200008959F938F937F936F93FF93EF939B01E4
:10373000AC01ECDDEF91FF91D3DE2F913F914F91E2
:103740005F91E4CD97FB072E16F4009406D077FD29
:1037500008D013D007FC05D03EF4909581959F4F7B
:103760000895709561957F4F0895EE0FFF1F881F94
:103770008BBF0790F691E02D1994AA1BBB1B51E15A
:1037800007C0AA1FBB1FA617B70710F0A61BB70BD1
:10379000881F991F5A95A9F780959095BC01CD0176
:1037A00008950F931F93CF93DF938230910510F408
:1037B00082E090E0E0913E08F0913F0830E020E0A8
:1037C000B0E0A0E0309799F42115310509F44AC022
:1037D000281B390B24303105D8F58A819B8161156E
:1037E000710589F1FB0193838283FE0111C0408141
:1037F00051810281138148175907E0F04817590792
:1038000099F4109761F012960C93129713961C93EB
:103810003296CF01DF91CF911F910F9108950093C0
:103820003E0810933F08F4CF2115310551F042179F
:10383000530738F0A901DB019A01BD01DF01F8014E
:10384000C1CFEF01F9CF90933F0880933E08CDCFD1
:10385000FE01E20FF31F81939193225031093983C6
:103860002883D7CF20913C0830913D08232B41F489
:10387000209117023091180230933D0820933C08A4
:1038800020911502309116022115310541F42DB712
:103890003EB74091190250911A02241B350BE0915A
:1038A0003C08F0913D08E217F307A0F42E1B3F0BF4
:1038B0002817390778F0AC014E5F5F4F24173507A2
:1038C00048F04E0F5F1F50933D0840933C08819392
:1038D00091939FCFF0E0E0E09CCFCF93DF930097F0
:1038E000E9F0FC01329713821282A0913E08B09158
:1038F0003F08ED0130E020E01097A1F420813181F4
:10390000820F931F20913C0830913D0828173907FA
:1039100009F061C0F0933D08E0933C08DF91CF913E
:103920000895EA01CE17DF07E8F54A815B819E0121
:1039300041155105B1F7E901FB83EA83499159919A
:10394000C40FD51FEC17FD0761F4808191810296A9
:10395000840F951FE90199838883828193819B83DA
:103960008A83F0E0E0E012968D919C911397009786
:10397000B9F52D913C911197CD010296820F931FBD
:1039800020913C0830913D082817390739F63097C7
:1039900051F510923F0810923E08B0933D08A09355
:1039A0003C08BCCFD383C28340815181840F951FD3
:1039B000C817D90761F44E5F5F4F88819981480F1E
:1039C000591F518340838A819B8193838283211570
:1039D000310509F0B0CFF0933F08E0933E089ECF49
:1039E000FD01DC01C0CF13821282D7CF81E090E0CD
:1039F000F89409C0FB01DC0102C001900D92415016
:0A3A00005040D8F70895F894FFCF66
:103A0A00D404D404D404D404D404D404D404D404EC
:103A1A00FF01000000000040088000000000002DA7
:103A2A00031D0263027903940272028602000000F7
:103A3A00004E07FF07000000007607760700000027
:103A4A000066075C070D0A005374617274696E6739
:103A5A00204D6F7665204163696F6E006E616E005E
:103A6A00696E66006F766600416374696F6E204303
:103A7A006F6D706C65746564005265706C79206353
:103A8A006F6D6D616E6420636F6D706C65746564D3
:103A9A0020746F00696E697469616C697A65642063
:103AAA0053657269616C3320506F7274002C002C5C
:103ABA002000666F756E6420656E64206279746595
:103ACA00004552524F523A20556E646566696E65DA
:103ADA00642073746174653A2000436F6D6D616E82
:103AEA00643A2000434F4D4D414E445F4D4F564579
:103AFA002000434F4D4D414E445F504154485F456D
:103B0A0052524F520070617468206572726F723D32
:103B1A0000776865656C20726174696F3D00726533
:103B2A006365697665642053544F50206D657373DD
:103B3A0061676500494E56414C494420434F4D4DFB
:043B4A00414E4400A4
:020000023000CC
:10E000000D9489F10D94B2F10D94B2F10D94B2F129
:10E010000D94B2F10D94B2F10D94B2F10D94B2F1F0
:10E020000D94B2F10D94B2F10D94B2F10D94B2F1E0
:10E030000D94B2F10D94B2F10D94B2F10D94B2F1D0
:10E040000D94B2F10D94B2F10D94B2F10D94B2F1C0
:10E050000D94B2F10D94B2F10D94B2F10D94B2F1B0
:10E060000D94B2F10D94B2F10D94B2F10D94B2F1A0
:10E070000D94B2F10D94B2F10D94B2F10D94B2F190
:10E080000D94B2F10D94B2F10D94B2F10D94B2F180
:10E090000D94B2F10D94B2F10D94B2F10D94B2F170
:10E0A0000D94B2F10D94B2F10D94B2F10D94B2F160
:10E0B0000D94B2F10D94B2F10D94B2F10D94B2F150
:10E0C0000D94B2F10D94B2F10D94B2F10D94B2F140
:10E0D0000D94B2F10D94B2F10D94B2F10D94B2F130
:10E0E0000D94B2F141546D656761323536300041AF
:10E0F000726475696E6F206578706C6F72657220DE
:10E1000073746B3530305632206279204D4C530099
:10E11000426F6F746C6F616465723E004875683F52
:10E1200000436F6D70696C6564206F6E203D200048
:10E130004350552054797065202020203D20005FF9
:10E140005F4156525F415243485F5F3D2000415658
:10E1500052204C696243205665723D20004743437C
:10E160002056657273696F6E203D20004350552024
:10E1700049442020202020203D20004C6F7720663D
:10E18000757365202020203D20004869676820665F
:10E190007573652020203D200045787420667573D6
:10E1A00065202020203D20004C6F636B2066757336
:10E1B000652020203D20004D617220203720323024
:10E1C000313300312E362E3800342E332E350056A2
:10E1D00023202020414444522020206F7020636F70
:10E1E00064652020202020696E73747275637469E1
:10E1F0006F6E2061646472202020496E74657272B3
:10E20000757074006E6F20766563746F7200726A49
:10E210006D702020006A6D70200057686174207056
:10E220006F72743A00506F7274206E6F7420737541
:10E2300070706F72746564004D7573742062652030
:10E2400061206C6574746572002000577269747483
:10E25000696E672045450052656164696E672045B7
:10E26000450045452065727220636E743D00504F35
:10E27000525400303D5A65726F2061646472003FF1
:10E280003D43505520737461747300403D454550C3
:10E29000524F4D207465737400423D426C696E6B41
:10E2A000204C454400453D44756D70204545505215
:10E2B0004F4D00463D44756D7020464C415348001B
:10E2C000483D48656C70004C3D4C69737420492F83
:10E2D0004F20506F72747300513D51756974005234
:10E2E0003D44756D702052414D00563D73686F7707
:10E2F00020696E7465727275707420566563746FF0
:10E30000727300593D506F727420626C696E6B00BD
:10E310002A0011241FBECFEFD1E2DEBFCDBF01E046
:10E320000CBF12E0A0E0B2E0EEE1FDEF03E00BBFB6
:10E3300002C007900D92A030B107D9F712E0A0E01B
:10E34000B2E001C01D92AE30B107E1F70F9460F367
:10E350000D948DFE01E20EBF0FEF0DBF11241FBE05
:10E360000D9460F30D9400F020E030E040ED57E0B4
:10E3700005C0FA013197F1F72F5F3F4F2817390792
:10E38000C0F308959C01260F311DC901A0E0B0E043
:10E390002F5F3F4FABBFFC018791882361F08093D3
:10E3A000C6008091C00086FFFCCF8091C0008064D1
:10E3B0008093C000EACF08958DE08093C6008091DD
:10E3C000C00086FFFCCF8091C00080648093C000B5
:10E3D0008AE08093C6008091C00086FFFCCF8091C8
:10E3E000C00080648093C00008950F94C2F10F9420
:10E3F000DCF10895FC019081992359F09093C600B7
:10E400008091C00086FFFCCF8091C0008064809323
:10E41000C0003196992379F70895282F982F929567
:10E420009F70892F805D8A3308F0895F8093C600D2
:10E430008091C00086FFFCCF8091C00080648093F3
:10E44000C000822F8F70982F905D9A3308F0995FEB
:10E450009093C6008091C00086FFFCCF8091C000E1
:10E4600080648093C00008959C01FB01853691056E
:10E470001CF46330710594F0C90164E670E00F94F8
:10E480002EFE605D7F4F6093C6008091C00086FFC6
:10E49000FCCF8091C00080648093C0002B30310598
:10E4A00014F43297B4F0C90164E670E00F942EFEC4
:10E4B0006AE070E00F942EFE605D7F4F6093C600AF
:10E4C0008091C00086FFFCCF8091C0008064809363
:10E4D000C000C9016AE070E00F942EFEC0968093E0
:10E4E000C6008091C00086FFFCCF8091C000806490
:10E4F0008093C00008951F93182F8EE692EE60E07F
:10E500000F94C2F11093C6008091C00086FFFCCF2B
:10E510008091C00080648093C0000F94DCF11F9153
:10E5200008952F923F924F925F926F927F928F92B7
:10E530009F92AF92BF92CF92DF92EF92FF920F9392
:10E540001F93DF93CF93CDB7DEB762970FB6F894E2
:10E55000DEBF0FBECDBF382E622ECA01DB015C01CB
:10E560006D01772420E2222E2E010894411C511CBB
:10E570008BC081E0A81680E0B80681E0C80680E084
:10E58000D80628F0C601AA27BB270F940DF2BB2797
:10E59000AD2D9C2D8B2D0F940DF28A2D0F940DF225
:10E5A0002092C6008091C00086FFFCCF8091C00001
:10E5B00080648093C0009DE29093C6008091C0006B
:10E5C00086FFFCCF8091C00080648093C0002092C1
:10E5D000C6008091C00086FFFCCF8091C00080649F
:10E5E0008093C00019828601750188249924A1E0D6
:10E5F0003A1651F03A1620F0B2E03B1661F409C029
:10E600000BBFF701779007C0C7010F9477FE782EF4
:10E6100002C0F7017080872D0F940DF22092C60082
:10E620008091C00086FFFCCF8091C0008064809301
:10E63000C000872D8052F401EF70F0708F3520F408
:10E64000E40DF51D708204C0E40DF51D8EE280839B
:10E650000894E11CF11C011D111D0894811C911CE2
:10E6600090E18916910409F0C2CF80E190E0A0E02A
:10E67000B0E0A80EB91ECA1EDB1E198AC2010F9493
:10E68000FAF10F94DCF16A94662009F072CF629679
:10E690000FB6F894DEBF0FBECDBFCF91DF911F91B3
:10E6A0000F91FF90EF90DF90CF90BF90AF909F9031
:10E6B0008F907F906F905F904F903F902F90089534
:10E6C0002F923F924F925F926F927F928F929F9282
:10E6D000AF92BF92CF92DF92EF92FF920F931F9370
:10E6E000DF93CF93CDB7DEB7CD53D1400FB6F894BB
:10E6F000DEBF0FBECDBF01E20EBF0FEF0DBF94B75F
:10E70000F894A89514BE80916000886180936000A1
:10E7100010926000789493FF05C0E0910002F091A0
:10E7200001021995279A2F9A8091C00082608093E8
:10E73000C00080E18093C40088E18093C1000000A4
:10E74000EE24FF24870144E0A42EB12CCC24DD2448
:10E7500024C0C5010197F1F70894E11CF11C011DCB
:10E76000111D21E2E2162EE4F20620E0020720E06D
:10E77000120718F031E0C32ED12CC801B70127ECE5
:10E780003BE140E050E00F9441FE611571058105C9
:10E79000910519F485B1805885B98091C00087FD35
:10E7A00003C0C114D104A9F2A6014F5F5F4FC25E3E
:10E7B000DE4F59834883CE51D140C25EDE4F8881FF
:10E7C0009981CE51D140019711F00D9410FEC05D9A
:10E7D000DE4F19821882C053D14060E0C15DDE4F28
:10E7E0001882CF52D14088249924C35DDE4F19820C
:10E7F0001882CD52D140C05EDE4F188219821A8233
:10E800001B82C052D140CE5CDE4F188219821A8220
:10E810001B82C253D140EE24FF2487010BBFF701B6
:10E8200007911691C45CDE4F19830883CC53D14005
:10E830000D940BFEC25EDE4F28813981CE51D1404E
:10E840002130310509F52091C600C25EDE4F1982E4
:10E850001882CE51D14022C02F5F3F4F4F4F5F4FA4
:10E86000213082E138078AE7480780E0580780F0C6
:10E87000C45CDE4FE881F981CC53D140EF5FFF4F9C
:10E8800019F0EE27FF27099420E030E040E050E047
:10E890008091C00087FFE0CF2091C600C35DDE4FAE
:10E8A00048815981CD52D1404F5F5F4FC35DDE4FEC
:10E8B00059834883CD52D140213209F063C64A3092
:10E8C000510508F05FC60894811C911C53E0851621
:10E8D000910409F059C600E010E018C081E280936D
:10E8E000C6008091C00086FFFCCF8091C00080648C
:10E8F0008093C0002F5F3F4F2931310579F70F9486
:10E90000DCF10F5F1F4F0530110519F020E030E0FA
:10E91000E5CF10920A0210920B0210920C02109294
:10E920000D02109206021092070210920802109235
:10E930000902109202021092030210920402109235
:10E9400005028FEE90EE60E00F94F5F180E191EE1C
:10E9500060E00F94C2F18091C00087FFFCCF9091DE
:10E96000C600903608F09F759032B8F09093C600BC
:10E970008091C00086FFFCCF8091C00080648093AE
:10E98000C000A0E2A093C6008091C00086FFFCCF2B
:10E990008091C00080648093C000983409F4D7C18E
:10E9A0009934B8F4923409F459C1933458F490333B
:10E9B00019F1903308F4E3C59F33A1F1903409F0C5
:10E9C000DEC5BDC0953409F470C1963409F0D7C5D1
:10E9D00098C1923509F42BC2933538F49C3409F46C
:10E9E000F5C1913509F0CBC518C2963509F445C279
:10E9F000993509F0C4C567C483E792EE62E00F94CD
:10EA0000F5F110920602109207021092080210927D
:10EA1000090210920A0210920B0210920C0210923C
:10EA20000D0213C18FE792EE62E00F94F5F18FEEC5
:10EA300090EE60E00F94F5F181E291EE60E00F94CA
:10EA4000C2F187EB91EE60E00F94F5F180E391EE77
:10EA500060E00F94C2F184EE90EE60E00F94F5F167
:10EA60008FE391EE60E00F94C2F186E090E061E008
:10EA700070E00F9434F20F94DCF18DE591EE60E0DC
:10EA80000F94C2F189EC91EE60E00F94F5F18EE401
:10EA900091EE60E00F94C2F183EC91EE60E00F9490
:10EAA000F5F18CE691EE60E00F94C2F18EE10F94E7
:10EAB0000DF288E90F940DF281E00F940DF20F949E
:10EAC000DCF18BE791EE60E00F94C2F119E0E0E039
:10EAD000F0E010935700E4918E2F0F940DF20F94F5
:10EAE000DCF18AE891EE60E00F94C2F1E3E0F0E03F
:10EAF00010935700E4918E2F0F940DF20F94DCF1D8
:10EB000089E991EE60E00F94C2F1E2E0F0E0109349
:10EB10005700E4918E2F0F940DF20F94DCF188EAE8
:10EB200091EE60E00F94C2F1E1E0F0E01093570045
:10EB30001491812F0F940DF20F94DCF107CF8BE825
:10EB400092EE62E00F94F5F18BE492EE60E00F94A8
:10EB5000F5F10F94DCF100E010E019C0C8016F2D51
:10EB60000F947FFEFF2031F489E492EE60E00F9471
:10EB7000C2F10BC0F092C6008091C00086FFFCCFAE
:10EB80008091C00080648093C0000F5F1F4FC80158
:10EB900081519F41A0E0B0E0ABBFFC01F790BAE229
:10EBA000FB1621F0E2E000301E07C1F60F94DCF105
:10EBB0000F94DCF187E592EE60E00F94F5F10F948D
:10EBC000DCF1CC24DD2400E010E01EC0C8010F946D
:10EBD00077FEF82E882331F489E492EE60E00F94FA
:10EBE000C2F10BC08093C6008091C00086FFFCCFAD
:10EBF0008091C00080648093C000FE1419F00894D6
:10EC0000C11CD11C0F5F1F4FC80181519F41A0E063
:10EC1000B0E0ABBFFC01E790FAE2EF1621F022E092
:10EC20000030120799F60F94DCF10F94DCF182E6C4
:10EC300092EE60E00F94C2F1C60161E070E00F94C3
:10EC400034F20F94DCF10F94DCF110920202109276
:10EC50000302109204021092050278CE89E992EE26
:10EC600062E00F94F5F1279A2F9A16C02F9880E052
:10EC700090E0E0EDF7E03197F1F7019684369105E9
:10EC8000C1F72F9A80E090E0E0EDF7E03197F1F7DF
:10EC9000019684369105C1F78091C00087FFE6CFC9
:10ECA0008091C00087FFFCCF64C485EA92EE62E0E9
:10ECB0000F94F5F140910202509103026091040219
:10ECC0007091050281E020E10F9491F2809102029F
:10ECD00090910302A0910402B091050280509F4FD1
:10ECE000AF4FBF4F8093020290930302A0930402A0
:10ECF000B093050280509041A040B04008F426CE69
:10ED0000A4CF83EB92EE62E00F94F5F140910602FE
:10ED100050910702609108027091090280E020E1A1
:10ED20000F9491F28091060290910702A09108023F
:10ED3000B091090280509F4FAF4FBF4F80930602A2
:10ED400090930702A0930802B0930902FFCD80ECD4
:10ED500092EE62E00F94F5F183E792EE60E00F949B
:10ED6000F5F18FE792EE60E00F94F5F18BE892EE0B
:10ED700060E00F94F5F189E992EE60E00F94F5F10F
:10ED800085EA92EE60E00F94F5F183EB92EE60E09D
:10ED90000F94F5F180EC92EE60E00F94F5F187ECC2
:10EDA00092EE60E00F94F5F188ED92EE60E00F9442
:10EDB000F5F18FED92EE60E00F94F5F18AEE92EEB0
:10EDC00060E00F94F5F183E093EEBDCD87EC92EE19
:10EDD00062E00F94F5F181E40F947BF282E40F94EA
:10EDE0007BF283E40F947BF284E40F947BF285E45E
:10EDF0000F947BF286E40F947BF287E40F947BF20E
:10EE000088E40F947BF28AE40F947BF28BE40F94F6
:10EE10007BF28CE40F947BF299CD88ED92EE62E068
:10EE20000F94F5F1772473948824992409C48FED05
:10EE300092EE62E00F94F5F140910A0250910B02BC
:10EE400060910C0270910D0282E020E10F9491F22A
:10EE500080910A0290910B02A0910C02B0910D02D8
:10EE600080509F4FAF4FBF4F80930A0290930B0289
:10EE7000A0930C02B0930D0269CD8AEE92EE62E08F
:10EE80000F94F5F184EE90EE60E00F94F5F18FECC5
:10EE900091EE60E00F94F5F1662477244301CC5D98
:10EEA000DE4F19821882C452D140D401C301B695F5
:10EEB000A79597958795CA5DDE4F88839983AA8326
:10EEC000BB83C652D140CC5DDE4FA881B981C4520C
:10EED000D1401196CC5DDE4FB983A883C452D14096
:10EEE000CD0162E070E00F9434F2B0E2B093C6005E
:10EEF0008091C00086FFFCCF8091C0008064809329
:10EF0000C000EDE2E093C6008091C00086FFFCCF18
:10EF10008091C00080648093C000F0E2F093C6004E
:10EF20008091C00086FFFCCF8091C00080648093F8
:10EF3000C000CA5DDE4FE880F9800A811B81C6529D
:10EF4000D140BB27A12F902F8F2D0F940DF2CA5DBA
:10EF5000DE4F8881C652D1400F940DF2B0E2FB2EF5
:10EF6000F092C6008091C00086FFFCCF8091C00067
:10EF700080648093C0000DE30093C6008091C000C0
:10EF800086FFFCCF8091C00080648093C00010E2B7
:10EF90001093C6008091C00086FFFCCF8091C00016
:10EFA00080648093C0008BBEF3012791C65DDE4F65
:10EFB0002883CA52D140A22EBB24CC24DD2408943D
:10EFC000611C711C811C911C8BBEF3018791282E42
:10EFD0003324442455240894611C711C811C911C09
:10EFE0008BBEF3013791C55DDE4F3883CB52D140E4
:10EFF0000894611C711C811C911C8BBEF30147910C
:10F00000C45DDE4F4883CC52D140ADEFEA2EAFEF66
:10F01000FA2EAFEF0A2FAFEF1A2F6E0C7F1C801E57
:10F02000911E142D032DF22CEE24EA0CFB1C0C1D5A
:10F030001D1D0F940DF220E22093C6008091C000A8
:10F0400086FFFCCF8091C00080648093C000C65DC5
:10F05000DE4F8881CA52D1400F940DF230E23093D6
:10F06000C6008091C00086FFFCCF8091C000806404
:10F070008093C000C45DDE4F8881CC52D1400F9494
:10F080000DF240E24093C6008091C00086FFFCCFA5
:10F090008091C00080648093C000C55DDE4F888190
:10F0A000CB52D1400F940DF250E25093C6008091A4
:10F0B000C00086FFFCCF8091C00080648093C000B8
:10F0C0008FEFE8168FEFF80680E0080780E018075A
:10F0D00031F484E092EE60E00F94C2F1DFC0D80119
:10F0E000C7018070907CA070B0708050904CA040A0
:10F0F000B040D1F52FEF3FE340E050E0E222F322B1
:10F1000004231523CA5DDE4FA880B980CA80DB8046
:10F11000C652D140AE0CBF1CC01ED11EAA0CBB1CD7
:10F12000CC1CDD1C8EE092EE60E00F94C2F1BB2798
:10F13000A12F902F8F2D0F940DF28E2D0F940DF285
:10F1400030E23093C6008091C00086FFFCCF8091F2
:10F15000C00080648093C0004EE34093C60080915D
:10F16000C00086FFFCCF87C08EE09EEFA0E0B0E03D
:10F17000E822F9220A231B239CE0E91694E9F90608
:10F1800090E0090790E0190709F088C0C45DDE4FE0
:10F19000A881CC52D140EA2EFF2400E010E0102FCD
:10F1A0000F2DFE2CEE24C55DDE4FB881CB52D14031
:10F1B000EB0EF11C011D111DD601C501817090706F
:10F1C000A070B070DC0199278827E80EF91E0A1F8D
:10F1D0001B1F20EF30E040E050E0A222B322C42207
:10F1E000D52241E1AA0CBB1CCC1CDD1C4A95D1F7F1
:10F1F000EA0CFB1C0C1D1D1D81E090E0A0E0B0E0BE
:10F20000282239224A225B2235E1220C331C441C7D
:10F21000551C3A95D1F7E20CF31C041D151D57013E
:10F220006801AA0CBB1CCC1CDD1C85E192EE60E0E1
:10F230000F94C2F1C801AA27BB270F940DF2BB2778
:10F24000A12F902F8F2D0F940DF28E2D0F940DF274
:10F2500090E29093C6008091C00086FFFCCF809121
:10F26000C00080648093C000AEE3A093C60080918C
:10F27000C00086FFFCCF8091C00080648093C000F6
:10F28000C601AA27BB270F940DF2BB27AD2D9C2DDD
:10F290008B2D0F940DF28A2D0F940DF20F94DCF14B
:10F2A000CC5DDE4FE881F981C452D140F99709F471
:10F2B0004DCBF4E0EF2EF12C012D112D6E0C7F1CA7
:10F2C000801E911EF2CD83E093EE62E00F94F5F183
:10F2D0008AE192EE60E00F94C2F18091C00087FF56
:10F2E000FCCF1091C6001F751093C6008091C0001E
:10F2F00086FFFCCF8091C00080648093C0000F9493
:10F30000DCF1812F81548A3108F036C1163409F4BA
:10F3100095C0173490F4133409F44EC0143430F40B
:10F320001134F1F0123409F01DC130C0143409F465
:10F3300059C0153409F016C16BC01A3409F4C4C0A1
:10F340001B3438F4173409F48FC0183409F00AC19B
:10F35000A1C01B3409F4D2C01C3409F003C1E8C0B9
:10F360008FEF81B90DC082B1809582B980E090E0C5
:10F37000E0EDF7E03197F1F70196883C9105C1F790
:10F380008091C00087FFEFCF12B8EFC08FEF84B934
:10F390000DC085B1809585B980E090E0E0EDF7E0A3
:10F3A0003197F1F70196883C9105C1F78091C00033
:10F3B00087FFEFCF15B8D9C08FEF87B90DC088B1DF
:10F3C000809588B980E090E0E0EDF7E03197F1F7C3
:10F3D0000196883C9105C1F78091C00087FFEFCF6F
:10F3E00018B8C3C08FEF8AB90DC08BB180958BB9A7
:10F3F00080E090E0E0EDF7E03197F1F70196883C8E
:10F400009105C1F78091C00087FFEFCF1BB8ADC059
:10F410008FEF8DB90DC08EB180958EB980E090E0F0
:10F42000E0EDF7E03197F1F70196883C9105C1F7DF
:10F430008091C00087FFEFCF1EB897C08FEF80BBD1
:10F440000DC081B3809581BB80E090E0E0EDF7E0F6
:10F450003197F1F70196883C9105C1F78091C00082
:10F4600087FFEFCF11BA81C08FEF83BB0DC084B38C
:10F47000809584BB80E090E0E0EDF7E03197F1F714
:10F480000196883C9105C1F78091C00087FFEFCFBE
:10F4900014BA6BC08FEF809301010FC080910201FD
:10F4A00080958093020180E090E0E0EDF7E03197F5
:10F4B000F1F70196883C9105C1F78091C00087FF64
:10F4C000EDCF1092020151C08FEF809304010FC065
:10F4D0008091050180958093050180E090E0E0ED4A
:10F4E000F7E03197F1F70196883C9105C1F78091DB
:10F4F000C00087FFEDCF1092050137C08FEF8093DA
:10F5000007010FC08091080180958093080180E079
:10F5100090E0E0EDF7E03197F1F70196883C910536
:10F52000C1F78091C00087FFEDCF109208011DC088
:10F530008FEF80930A010FC080910B01809580931B
:10F540000B0180E090E0E0EDF7E03197F1F70196F4
:10F55000883C9105C1F78091C00087FFEDCF1092E4
:10F560000B0103C085E292EEEEC98091C00087FFD7
:10F57000FCCF8091C600EAC988E392EEE4C98CE131
:10F5800091EEE1C988249924933011F1943028F444
:10F59000913089F09230B8F408C0953061F195301F
:10F5A000F0F0963009F048C043C02B3109F042C951
:10F5B00091E06BE13FC96227C15DDE4F2883CF52E6
:10F5C000D14092E037C9B22FA0E0622793E032C960
:10F5D000822F90E0A82BB92B622794E02BC92E3004
:10F5E00009F039C3622795E0C05DDE4F19821882A9
:10F5F000C053D1401FC9E1E0F0E0EC0FFD1FC05D3A
:10F60000DE4F08811981C053D140E00FF11F2083E4
:10F610000F5F1F4FC05DDE4F19830883C053D14079
:10F6200062270A171B0709F005C9D80196E002C92D
:10F63000261709F010C303C0973009F0FBC87724E0
:10F640009981933109F412C19431C8F4963009F4C8
:10F65000D8C0973050F4923009F406C1933009F4C1
:10F660006DC0913009F059C253C0913109F477C08F
:10F67000923108F0BBC0903109F04FC2F5C098310B
:10F6800009F487C0993150F4953109F4EFC09531F0
:10F6900008F4C6C1963109F040C2C2C19A3109F4DA
:10F6A0006CC09A3108F491C09B3109F45BC09D3164
:10F6B00009F033C29D81903359F48F81882311F46E
:10F6C0009EE11CC0813011F091E018C098E916C08D
:10F6D000892F807591F0903539F4E0E0F0E089E011
:10F6E0008093570094910AC0983539F4E3E0F0E034
:10F6F00089E080935700949101C090E01A821B82A8
:10F700008D818C831D829E831F8227E030E009C299
:10F710001A8288E08B8381E48C8386E58D8382E581
:10F720008E8389E48F8383E5888780E589878FE5E9
:10F730008A8782E38B872BE030E0F3C18A818139AD
:10F7400041F0823941F0803911F48FE005C080E04A
:10F7500003C082E001C08AE01A828B8344C0772410
:10F76000739482C08D81882311F48EE12CC0813086
:10F7700011F081E028C088E926C01A82E1E0F0E0BB
:10F7800089E08093570084918B831C8224E030E0D1
:10F79000C8C18B81803589F48C81883039F4E2E0EE
:10F7A000F0E089E08093570084910DC0E0E0F0E044
:10F7B00089E080935700849106C0E3E0F0E089E09F
:10F7C0008093570084911A82DFCF8D81836C99E0FA
:10F7D000E1E0F0E0082E90935700E89507B600FCB2
:10F7E000FDCF1A821B8223E030E09BC180EC8A832C
:10F7F000CE5CDE4F188219821A821B82C253D1401E
:10F800008EC18A8190E0A0E0B0E0582F44273327D2
:10F8100022278B8190E0A0E0B0E0DC0199278827C7
:10F82000282B392B4A2B5B2B8D8190E0A0E0B0E098
:10F83000282B392B4A2B5B2B8C8190E0A0E0B0E089
:10F84000BA2FA92F982F8827282B392B4A2B5B2BCF
:10F85000220F331F441F551FC05EDE4F288339839C
:10F860004A835B83C052D1401A8259C13A81C95C34
:10F87000DE4F3883C753D140CA5CDE4F1882C6536F
:10F88000D1408B81C82EDD24CA5CDE4F488159816E
:10F89000C653D140C42AD52A933109F082C0CE5C28
:10F8A000DE4F88819981AA81BB81C253D1408050AB
:10F8B000904CA340B04030F583E0CE5CDE4FE88052
:10F8C000F9800A811B81C253D140F70100935B008C
:10F8D00080935700E89507B600FCFDCFCE5CDE4F65
:10F8E000088119812A813B81C253D14000501F4FAA
:10F8F0002F4F3F4FCE5CDE4F088319832A833B8313
:10F90000C253D140C05EDE4F488159816A817B81FC
:10F91000C052D140DE011B9631E08C9111962C91A2
:10F9200011971296C75CDE4F2883C953D140C85C3B
:10F93000DE4F1882C853D14090E0C85CDE4FE881AA
:10F94000F981C853D1408E2B9F2B0C01FA01609393
:10F950005B0030935700E89511244E5F5F4F6F4F67
:10F960007F4F0EEFE02E0FEFF02ECE0CDF1CC114F8
:10F97000D10499F685E0C05EDE4F088119812A81A5
:10F980003B81C052D140F80120935B008093570027
:10F99000E89507B600FCFDCF81E180935700E8951C
:10F9A00035C0C05EDE4F88819981AA81BB81C0527B
:10F9B000D140B695A795979587957C018601ABE0D8
:10F9C000AA2EB12CAC0EBD1E0BC0D5016D915D01F0
:10F9D000C7010F947FFE0894E11CF11C01501040F8
:10F9E0000115110591F7A60160E070E0440F551F65
:10F9F000661F771FC05EDE4FE880F9800A811B8199
:10FA0000C052D1404E0D5F1D601F711F1A82C05E33
:10FA1000DE4F488359836A837B83C052D1407FC0C5
:10FA2000FA80C55CDE4FF882CB53D140C65CDE4F16
:10FA30001882CA53D1408B81C82EDD24C65CDE4FAC
:10FA400008811981CA53D140C02AD12A1A828981DA
:10FA5000BE016D5F7F4F843121F59601C05EDE4FA0
:10FA6000E880F9800A811B81C052D1400BBFF701A9
:10FA700087919691DB018C9311969C936E5F7F4FDB
:10FA8000D801C7010296A11DB11DC05EDE4F88835B
:10FA90009983AA83BB83C052D14022503040F1F6F3
:10FAA00036C0C05EDE4F288139814A815B81C052F9
:10FAB000D1400894C108D108760100E010E0089414
:10FAC000C11CD11C0894E11CF11C011D111DE20E8A
:10FAD000F31E041F151F21BDBB27A52F942F832FB5
:10FAE00082BD2F5F3F4F4F4F5F4FF89A80B5DB01CC
:10FAF0008D93BD012E153F054007510761F7C05E8C
:10FB0000DE4F288339834A835B83C052D1409601FC
:10FB10002D5F3F4FFB01108204C080EC8A8322E0FE
:10FB200030E08BE18093C6008091C00086FFFCCF5F
:10FB30008091C00080648093C000C15DDE4FF88179
:10FB4000CF52D140F093C6008091C00086FFFCCF19
:10FB50008091C00080648093C000432F3093C60022
:10FB60008091C00086FFFCCF8091C00080648093AC
:10FB7000C000922F2093C6008091C00086FFFCCF6A
:10FB80008091C00080648093C0008EE08093C600A6
:10FB90008091C00086FFFCCF8091C000806480937C
:10FBA000C00065E1C15DDE4FE880CF52D1406E25D7
:10FBB00069276427FE01319610C090819093C6009A
:10FBC0008091C00086FFFCCF31968091C000806498
:10FBD0008093C0006927215030402115310569F715
:10FBE0006093C6008091C00086FFFCCF8091C0006A
:10FBF00080648093C00085B1805885B9772081F4F6
:10FC0000C15DDE4F0881CF52D1400F5FC15DDE4F35
:10FC10000883CF52D14090E0A0E0B0E00D941AF4F8
:10FC200027982F9880E090E020ED37E0F901319798
:10FC3000F1F7019684369105C9F700008091C00064
:10FC40008D7F8093C00081E180935700E895EE2777
:10FC5000FF270994FFCF90E00D941AF497FB092E2B
:10FC600007260AD077FD04D02ED006D000201AF443
:10FC7000709561957F4F0895F6F7909581959F4F08
:10FC80000895A1E21A2EAA1BBB1BFD010DC0AA1FDD
:10FC9000BB1FEE1FFF1FA217B307E407F50720F0F5
:10FCA000A21BB30BE40BF50B661F771F881F991F70
:10FCB0001A9469F760957095809590959B01AC01B9
:10FCC000BD01CF010895AA1BBB1B51E107C0AA1FAC
:10FCD000BB1FA617B70710F0A61BB70B881F991FED
:10FCE0005A95A9F780959095BC01CD010895F99991
:10FCF000FECF92BD81BDF89A992780B50895262F31
:10FD0000F999FECF1FBA92BD81BD20BD0FB6F89400
:0EFD1000FA9AF99A0FBE01960895F894FFCF63
:040000033000E000E9
:00000001FF
