:1000000045C100000C94FB0E0C94D00E0C94A50E70
:100010000C947A0E0C944F0E0C94240E0C94F90D43
:100020000C94CE0D64C1000062C1000060C10000EC
:100030005EC100005CC100005AC1000058C1000050
:1000400056C1000054C1000052C1000050C1000060
:100050004EC100004CC100004AC100000C94840D48
:1000600046C100000C945A0D0C94300D40C10000A4
:100070003EC100003CC100003AC1000038C1000090
:1000800036C1000034C1000032C1000030C10000A0
:100090002EC100002CC100002AC1000028C10000B0
:1000A00026C1000024C1000022C1000020C10000C0
:1000B0001EC100001CC100001AC1000018C10000D0
:1000C00016C1000014C1000012C100000C94060DFE
:1000D0000C94DC0C0CC100000C94B20C0C94880C39
:1000E00006C1000007634236B79BD8A71A39685685
:1000F00018AEBAAB558C1D3CB7CC5763BD6DEDFD4A
:10010000753EF6177231BF000000803F05A84CCD48
:10011000B2D44EB93836A9020C50B9918688083C41
:10012000A6AAAA2ABE000000803F08000000BE92D6
:100130002449123EABAAAA2ABECDCCCC4C3E00002C
:100140000080BEABAAAAAA3E00000000BF000000CB
:10015000803F0000000000084178D3BB4387D113E3
:100160003D190E3CC3BD4282AD2B3E68EC8276BE8B
:10017000D98FE1A93E4C80EFFFBE01C4FF7F3F0055
:100180000000000000002100240027002A002D00AC
:100190003000330001010000040107010A010000E2
:1001A0002200250028002B002E003100340002011F
:1001B0000000050108010B010505050507050808F4
:1001C0000808020202020A0A0808040404040101E1
:1001D00001010101010103030303030303030407F6
:1001E00007070C0C0C0C0C0C0C0C0202020206068D
:1001F0000606060606060B0B0B0B0B0B0B0B010280
:100200001020200808102040102040800201020128
:1002100008040201010204081020408080402010E0
:100220000804020180040201804020100804020139
:1002300008040201010204081020408001020408A1
:100240001020408000000A0B02090C0D0E08070365
:100250000401000000000000000000000000000099
:10026000000000000000000000000000000000008E
:10027000121110000000000000000000000000004B
:1002800000000000000000000000260F11241FBE27
:10029000CFEFD1E2DEBFCDBF00E00CBF13E0A0E0A6
:1002A000B2E0EEE4FAE300E00BBF02C007900D926B
:1002B000A630B107D9F728E0A6E0B3E001C01D924F
:1002C000A230B207E1F711E0C6E4D1E000E006C0D9
:1002D00021970109802FFE010E94D71BC534D10749
:1002E00080E00807A9F70E9444110C94251D88CED0
:1002F0001092540310925503109256031092570314
:100300001092500310925103109252031092530313
:1003100010924C0310924D0310924E0310924F0313
:10032000109248031092490310924A0310924B0313
:100330000895409154035091550360915603709174
:1003400057038091500390915103A0915203B091B3
:10035000530384179507A607B707B8F48FEF809368
:100360000E038091540390915503A0915603B091D0
:1003700057030196A11DB11D80935403909355031B
:10038000A0935603B0935703089581E0E8CF80917E
:10039000500390915103A0915203B09153030196E1
:1003A000A11DB11D8093500390935103A09352035C
:1003B000B0935303089540914C0350914D036091C5
:1003C0004E0370914F038091480390914903A0918F
:1003D0004A03B0914B0384179507A607B707B8F4F3
:1003E0008FEF80930F0380914C0390914D03A09168
:1003F0004E03B0914F030196A11DB11D80934C0394
:1004000090934D03A0934E03B0934F03089581E062
:10041000E8CF8091480390914903A0914A03B0919D
:100420004B030196A11DB11D80934803909349038E
:10043000A0934A03B0934B030895AF92BF92CF921B
:10044000DF92EF92FF920F931F93CF93DF936C0194
:100450007B018B01040F151FEB015E01AE18BF0875
:10046000C017D10759F06991D601ED91FC91019027
:10047000F081E02DC6011995892B79F7C501DF912F
:10048000CF911F910F91FF90EF90DF90CF90BF9091
:10049000AF900895FC01A089B1898C91A689B78994
:1004A00082FD0FC09C91818D8F5F8F73228D82178B
:1004B00049F0A18DAE0FBF2FB11D5D969C93818F2A
:1004C00008958C910895FC01538D448D252F30E0C3
:1004D000842F90E0821B930B541710F0CF96089551
:1004E00001970895FC01918D828D981761F0A28D7E
:1004F000AE0FBF2FB11D5D968C91928D9F5F9F7344
:10050000928F90E008958FEF9FEF0895FC01918DF9
:10051000828D981731F0828DE80FF11D858D90E066
:1005200008958FEF9FEF0895FC01918D228D892F03
:1005300090E0805C9F4F821B91098F7399270895EB
:1005400088E593E0F1DF21E0892B09F420E0822F98
:10055000089585EF93E0E8DF21E0892B09F420E09E
:10056000822F089582E994E0DFDF21E0892B09F4EE
:1005700020E0822F0895CF92DF92EF92FF921F9397
:10058000CF93DF93EC016A017B01122FE889F9898F
:1005900082E08083C11481EED806E104F104B1F158
:1005A00060E079E08DE390E0A70196010E94BF171B
:1005B000215031094109510956954795379527959D
:1005C000EC85FD851082EE85FF852083188EEC89F1
:1005D000FD891083EA89FB89808180618083EA89B3
:1005E000FB89808188608083EA89FB8980818068BB
:1005F0008083EA89FB8980818F7D8083DF91CF9121
:100600001F91FF90EF90DF90CF900895E889F989CE
:10061000108220E1D5CFFC01A48DA80FB92FB11D08
:10062000A35ABF4F2C91848D90E001968F73992728
:10063000848FA689B7892C93A089B1898C91837006
:1006400080648C93938D848D981306C00288F389FF
:10065000E02D80818F7D80830895EF92FF920F932C
:100660001F93CF93DF93EC0181E0888F9B8D8C8D5E
:1006700098131AC0E889F989808185FF15C09FB752
:10068000F894EE89FF896083E889F9898081837015
:10069000806480839FBF81E090E0DF91CF911F91C4
:1006A0000F91FF90EF900895F62E0B8D10E00F5FE5
:1006B0001F4F0F731127E02E8C8D8E110BC00FB6BC
:1006C00007FCFACFE889F989808185FFF5CFCE0153
:1006D000A2DFF2CFEB8DEC0FFD2FF11DE35AFF4FA0
:1006E000F0829FB7F8940B8FEA89FB898081806242
:1006F000D0CFCF93DF93EC01888D8823B1F0AA8906
:10070000BB89E889F9898C9185FD03C0808186FDCC
:100710000CC00FB607FCF7CF8C9185FFF2CF80811C
:1007200085FFEDCFCE0177DFEACFDF91CF9108953E
:1007300080911F0390912003A0912103B091220387
:100740000196A11DB11D80931F0390932003A093D8
:100750002103B09322030895282F30E0F901EC5BC8
:10076000FD4F9491F901E250FE4F449128543E4FC1
:10077000F9012491222309F435C0992311F19150F4
:100780009231F8F4E92FF0E08827E653FC4F8F4FC1
:100790000C94D71BFB03FF03DC03F303F703E10314
:1007A000020408040C04120416041A04200424048D
:1007B000E10328042E043204809180008F77809317
:1007C0008000E22FF0E0EE0FFF1FE256FE4FA591F2
:1007D000B4918FB7F894EC91611148C040954E23C5
:1007E0004C938FBF0895809180008F7DE8CF8091DA
:1007F0008000877FE4CF84B58F7784BDE2CF84B556
:100800008F7DFBCF8091B0008F778093B000D9CFE0
:100810008091B0008F7DF9CF809190008F77809389
:100820009000CFCF809190008F7DF9CF8091900084
:10083000877FF5CF8091A0008F778093A000C1CFF4
:100840008091A0008F7DF9CF8091A000877FF5CFA8
:10085000809120018F7780932001B3CF8091200178
:100860008F7DF9CF80912001877FF5CF4E2BB8CFB8
:10087000CF93DF9390E0FC01E250FE4F2491885427
:100880009E4FFC0184918823D1F090E0880F991F3E
:10089000FC01EC57FE4FA591B491FC01E256FE4FCE
:1008A000C591D491623071F49FB7F8943C91822F36
:1008B000809583238C93E8812E2B28839FBFDF9123
:1008C000CF9108958FB7F894EC912E2B2C938FBF76
:1008D000F6CF90917B00977F90937B00806480930C
:1008E0007C0080917A00806480937A0080917A0005
:1008F00086FDFCCF809178009091790008953FB7F4
:10090000F8948091110390911203A0911303B09178
:10091000140326B5A89B05C02F3F19F00196A11D11
:10092000B11D3FBFBA2FA92F982F8827BC01CD0139
:10093000620F711D811D911D42E0660F771F881F98
:10094000991F4A95D1F708958F929F92AF92BF92C7
:10095000CF92DF92EF92FF924B015C01D0DF6B01EF
:100960007C01CDDF6C197D098E099F09683E7340BB
:1009700081059105B0F321E0821A9108A108B10820
:1009800088EEC80E83E0D81EE11CF11C811491048E
:10099000A104B10431F7FF90EF90DF90CF90BF90AA
:1009A000AF909F908F9008950895CF92DF92EF922D
:1009B000FF92CF93DF93EC016A017B01F89461E031
:1009C0008881CADE20E030E04AEF53ECC701B6016F
:1009D0000E94A81920E030E049EB54E40E94F1178E
:1009E0000E94C1186230710548F0660F771F660FCC
:1009F000771F65507109CB010197F1F760E088819D
:100A0000ABDE7894DF91CF91FF90EF90DF90CF90A5
:100A10000895CF93DF93EC0161E0888129DF60E0E6
:100A200088819ADE40E050E0BA01CE01BEDF60E08E
:100A3000888192DE19821A821B821C82DF91CF91FB
:100A40000895CF9380915A05823011F5C3E08091CB
:100A50005B0590915C05DC01ED91FC910084F185D2
:100A6000E02D1995892BA1F080915A05833081F0F2
:100A700080915B0590915C05DC01ED91FC91028415
:100A8000F385E02D1995892B11F7C0935A05DFCF17
:100A9000C0915A05C33039F580915B0590915C0592
:100AA000DC01ED91FC910084F185E02D1995892BF5
:100AB000D1F080915B0590915C05DC01ED91FC919A
:100AC0000284F385E02D19958F3009F08AC181E009
:100AD00080935A0510925805EFE3F5E01192B5E0C6
:100AE000E535FB07D9F780915A05813009F077C1C8
:100AF00080915B0590915C05DC01ED91FC91008497
:100B0000F185E02D199520915805892B19F0283190
:100B100008F46CC1283109F062C180915605811139
:100B20007BC1109258054091400550E080913F05EF
:100B300090914005977090935E0580935D0520919C
:100B4000410530E0C90165E0880F991F6A95E1F71A
:100B500073E0559547957A95E1F7842B952B97701F
:100B60009093600580935F054091430550E090911C
:100B70004205B4E09B9FC0011124BA01762F66277D
:100B8000770F770F862B972BF6E035952795FA95FB
:100B9000E1F7822B932B9770909362058093610508
:100BA0002091440530E0C9019695982F88279795A4
:100BB000879555954795482B592B57705093640549
:100BC000409363056091450570E0AB01C4E0440FBC
:100BD000551FCA95E1F784E0359527958A95E1F789
:100BE000242B352B37703093660520936505409193
:100BF000470550E090914605892F90E0880F991F96
:100C00009A01322F2227330F822B932B660F672FE7
:100C1000661F770B862B972B9770909368058093B0
:100C200067058091480590E09C01A6E0220F331FE4
:100C3000AA95E1F75595479555954795242B352B62
:100C4000377030936A05209369052091490548E083
:100C5000249F90011124C5E095958795CA95E1F7E9
:100C6000822B932B90936C0580936B0540914B05E1
:100C700050E080914A0590914B05977090936E05D6
:100C800080936D0520914C0530E0C90165E0880F27
:100C9000991F6A95E1F773E0559547957A95E1F7C5
:100CA000842B952B97709093700580936F054091DE
:100CB0004E0550E090914D0564E0969FC0011124CF
:100CC000BA01762F6627770F770F862B972BF6E0E2
:100CD00035952795FA95E1F7822B932B9770909392
:100CE00072058093710520914F0530E0C9019695FA
:100CF000982F88279795879555954795482B592B79
:100D0000577050937405409373054091500550E01F
:100D1000CA01C4E0880F991FCA95E1F764E03595D0
:100D200027956A95E1F7282B392B37703093760594
:100D3000209375052091520530E090915105892F3F
:100D400090E0880F991FB901762F6627770F862BC1
:100D5000972B440F452F441F550B842B952B9770D1
:100D600090937805809377058091530590E0AC01CE
:100D7000A6E0440F551FAA95E1F7359527953595BF
:100D80002795242B352B377030937A0520937905DE
:100D900020915405A8E02A9F90011124C5E0959563
:100DA0008795CA95E1F7822B932B90937C058093CE
:100DB0007B0580915505282F207830E030937E0503
:100DC00020937D05282F207430E0309380052093F8
:100DD0007F058F738093590583E080935A05CF91E7
:100DE00008958111C2E0C0935A057DCE80915B05C4
:100DF00090915C05DC01ED91FC910284F385E02D7E
:100E00001995E091580591E09E0F90935805F0E0F8
:100E1000E15CFA4F80836CCE82E0DFCFA3DB8111EF
:100E200087DC80E090E0892B49F080E090E0892B1E
:100E300029F00E94000081110E9400008ADB8111CC
:100E400000DE80E090E0892B21F07ADB81110C94A8
:100E500000000895CF92DF92EF92FF9269017A012C
:100E600060933B0570933C0580933D0590933E0550
:100E7000AB01BC018AE395E098DDC0923605D092C3
:100E80003705E0923805F0923905B701A60185E3F0
:100E900095E0FF90EF90DF90CF9087CDFC01118619
:100EA0001086138212821582148211A210A280E190
:100EB00097E2978F868F0895DC015A96ED91FC9109
:100EC00020E030E0A901CA01B9011994CF93DF9362
:100ED000EC01EA8DFB8D20E030E0A901CA01B901E7
:100EE0001995EC8DFD8DDF91CF9119940895FB013B
:100EF00001900020E9F73197AF01461B570B9DCABF
:100F00008F929F92AF92BF92EF92FF920F931F9397
:100F1000CF93DF93CDB7DEB7A1970FB6F894DEBFBE
:100F20000FBECDBF7C01FA01CB0119A2223008F41B
:100F30002AE08E010F5D1F4F822E912CB12CA12C27
:100F4000BF01A50194010E94BF17F901CA016A30CF
:100F500004F5605DD8016E938D01232B242B252B86
:100F600079F790E080E0109719F0BD01C701BFDF6D
:100F7000A1960FB6F894DEBF0FBECDBFDF91CF9123
:100F80001F910F91FF90EF90BF90AF909F908F9027
:100F90000895695CDFCFCF93DF93BC0188E593E0D0
:100FA000A6DFEC0165E472E088E593E0A0DF8C0F3A
:100FB0009D1FDF91CF9108959ACFCF92DF92EF924C
:100FC000FF920F931F93CF93DF9377FF1BC06A01AC
:100FD0007B01EC016DE241DB8C0144275527BA010E
:100FE0004C195D096E097F092AE0CE0189DF800F67
:100FF000911FDF91CF911F910F91FF90EF90DF90A4
:10100000CF9008952AE0DF91CF911F910F91FF902B
:10101000EF90DF90CF9074CF4F925F926F927F925C
:101020008F929F92AF92BF92CF92DF92EF92FF92F8
:101030000F931F93CF936B017C01742EAC019B0126
:101040000E945D1A68E472E0811126C046015701D2
:10105000E894B7F82FEF3FEF4FE75FE7C501B40122
:101060000E945D1A81110CC02FEF3FEF4FE75FE741
:10107000C501B4010E9455186CE472E0181664F0C2
:101080002FEF3FEF4FE75FE4C701B6010E94A419BD
:101090001816A4F460E572E088E593E0CF911F9103
:1010A0000F91FF90EF90DF90CF90BF90AF909F9007
:1010B0008F907F906F905F904F9019CF2FEF3FEF01
:1010C0004FE75FECC701B6010E94551887FDE2CFDC
:1010D00020E030E0A901C701B6010E94551810E0D8
:1010E00000E087FF09C06DE288E593E0B6DA8C0185
:1010F000F7FAF094F7F8F094C0E060E070E080E078
:101100009FE37C1641F020E030E040E251E40E9491
:101110005918CF5FF6CFA70196010E94F1172B0156
:101120003C010E94C6184B015C012AE0BC01A401ED
:1011300088E593E0E5DE7C01E00EF11ECC23C1F1F1
:10114000C501B4010E94F2189B01AC01C301B201B8
:101150000E94F0174B015C016EE288E593E07DDAB6
:10116000E80EF91EC15020F120E030E040E251E4E9
:10117000C501B4010E94A8192B013C010E94C618A8
:101180004B01B12CA12C2AE0B501A40188E593E024
:10119000B7DEE80EF91EC501B4010E94F2189B01EA
:1011A000AC01C301B2010E94F0174B015C01DACF20
:1011B000C701CF911F910F91FF90EF90DF90CF90DB
:1011C000BF90AF909F908F907F906F905F904F9067
:1011D00008952F923F924F925F926F927F928F92DB
:1011E0009F92AF92BF92CF92DF92EF92FF920F93B6
:1011F0001F93CF93DF93CDB7DEB72F970FB6F89439
:10120000DEBF0FBECDBF9F878E87DC0118960D9085
:10121000BC91A02DBA83A9831097D9F0119729F119
:101220002F960FB6F894DEBF0FBECDBFDF91CF91E2
:101230001F910F91FF90EF90DF90CF90BF90AF90F4
:101240009F908F907F906F905F904F903F902F90E6
:10125000089584E592E09FDE81E090E0EE85FF85D1
:101260009187808711A210A2DBCFAE85BF85129631
:101270000D90BC91A02DBE83AD83EE85FF85E680E9
:10128000F780AE15BF052CF424803580E214F304FA
:101290006CF5AE85BF855A96ED91FC9120E030E06B
:1012A000A901CA01B901199582E090E0EE85FF8598
:1012B00091878087048CF58DE02D2F960FB6F894DA
:1012C000DEBF0FBECDBFDF91CF911F910F91FF9079
:1012D000EF90DF90CF90BF90AF909F908F907F90D6
:1012E0006F905F904F903F902F901994EE85FF85FF
:1012F00060A171A1072E000C880B990B0E94F418B5
:101300002AE037ED43E25CE30E94A8193B018C011F
:10131000AE85BF851E96AC901E971F96BC901F97FA
:101320005096CC9050975196DC909501A6010E9462
:10133000551887FD02C0350186016D817E81620DE1
:10134000731D072E000C880B990B0E94F41820E0E7
:1013500030E040E05FE30E94A8194B015C01B70157
:101360000F2C000C880B990B0E94F41823E333E335
:1013700043E75FE30E94A8192B016C01B7016431B8
:10138000710514F464E170E064517109072E000CDA
:10139000880B990B0E94F41869877D877C019B015B
:1013A000AC01B201C6010E94551887FD03C04984F3
:1013B0005D846701A5019401B201C6010E94551820
:1013C00087FF34C02DEC3CEC4CEC5EE3B301C8016C
:1013D0000E94A419181654F59201A601C501B40182
:1013E0000E94F0172DEC3CEC4CE45EEB0E94A81937
:1013F0009B01AC0160E070E080E090E40E940B1A79
:101400009B01AC01B301C8010E94A8193B018C01EA
:101410002DEC3CEC4CEC5EE30E94A419181634F061
:101420008DEC682E9CEC792E0CEC1EE3EE85FF858E
:1014300082849384A484B5842D813E81B901330FC5
:10144000880B990B0E94F418A50194010E94A81919
:101450006B017C01B101330C880B990B0E94F418CD
:101460009B01AC01C701B6010E94F0170E94C11890
:101470009B01AB014D5E5F4F84E190E04732510527
:1014800040F4AB0137FF04C044275527461B570BD8
:10149000CA0137FF04C0AFEFBFEFBA83A983E98168
:1014A000FA818E9F10018F9F300C9E9F300C11246B
:1014B000AE85BF855E966D917C91072E000C880BE2
:1014C000990B0E94F41820E030E44CE156E40E94AD
:1014D000A41987FD04C0EE85FF85378E268EAE8564
:1014E000BF855E968D919C91B101681B790B072E8B
:1014F000000C880B990B0E94F418EE85FF8526A13D
:1015000037A140A551A50E94A8196B017C01B1012A
:10151000032C000C880B990B0E94F418AE85BF8534
:1015200092962D913D914D915C9195970E94A819AD
:101530009B01AC01C701B6010E94F1176B017C0150
:1015400020E030E040E85FE3C501B4010E94F117FC
:101550009B01AC01B301C8010E9459184B015C0109
:10156000AC019B01B301C8010E94F0172B013C01A3
:10157000A701960160E070E080E89FE30E94F01709
:10158000A50194010E94A8194B015C0120E030E004
:1015900040E85FE3C701B6010E94F117A301920181
:1015A0000E94A8192B013C01EE85FF852689378909
:1015B000408D518D0E94A8196B017C01AE85BF85BD
:1015C00052962D913D914D915C915597C501B40175
:1015D0000E94A819AE85BF855A96ED91FC91A7018E
:1015E00096011995AE85BF8556968D919D910D906A
:1015F000BC91A02D89839A83AB83BC83EE85FF8544
:1016000064817581072E000C880B990B0E94F418D9
:1016100029813A814B815C810E94A8190E94C118DE
:101620006D837E838F839887AE85BF855296CD90DC
:10163000DD90ED90FC90559712966D917C91072E60
:10164000000C880B990B0E94F418A70196010E94C8
:10165000A8190E94C11869877A878B879C87A30184
:10166000920169817A818B819C810E94A8192B014A
:101670003C01A5019401C701B6010E94A8194B01C4
:101680005C01EE85FF8540A151A1052E000C660B83
:10169000770B88E593E091DC68E672E088E593E0FB
:1016A0008BDC42E0C501B401B7DC68E672E088E596
:1016B00093E082DC42E0C301B201AEDC68E672E096
:1016C00088E593E079DC29853A85A901330F660B1B
:1016D000770B88E593E071DC68E672E088E593E0DB
:1016E0006BDC8D819E81AC01990F660B770B88E5D1
:1016F00093E063DC65E472E088E593E0F8DBAE85B7
:10170000BF855F963C922E925E9790968D919C91AC
:101710009197019691969C938E93909781CDCF93BC
:10172000DF93EC0188819981009759F54F8558899D
:101730002D813E81429FC001439F900D529F900D8D
:1017400011242B853C85280F391F8B819C810197A3
:101750004817590798F44F5F5F4F588B4F87CB015D
:101760004D815E81B9010E941C1D89899A8901976A
:101770009A8B898B81E0DF91CF910895188A1F861B
:10178000EECF0197F9F42D853E8521153105A1F0A5
:10179000215031093E872D874D815E812D853E8503
:1017A000429FC001439F900D529F900D11242B85A5
:1017B0003C85280F391FD3CF8B819C8101979E8751
:1017C0008D87EACF80E0D7CFCF93DF93EC018A817A
:1017D000811107C04B815C8129893A8942175307DF
:1017E000D9F14D815E812D853E85429FC001439F89
:1017F000900D529F900D11242B853C85820F931FD5
:101800000E941C1D2B813C818D859E85A901415024
:1018100051098417950768F401969E878D878989F9
:101820009A892817390741F001969A8B898B81E0B4
:1018300013C01E861D86F3CF8A818823C1F32881B9
:101840003981232B49F42F8538892417350738F43B
:101850002F5F3F4F388B2F87DF91CF910895188AE4
:101860001F86FACF8AE692E096DB10923B05109233
:101870003C0510923D0510923E0540E050E0BA0153
:101880008AE395E092D810923605109237051092AF
:1018900038051092390540E050E0BA0185E395E043
:1018A00084D8E5E2F3E088EC8083809110028183A4
:1018B00012828091540390915503A0915603B091E8
:1018C00057039483838380914C0390914D03A0919F
:1018D0004E03B0914F0396838583BF018091F60735
:1018E0009091F70771DF6BE772E088E593E064DBC6
:1018F0004091100250E070E060E02AE088E593E05B
:10190000FFDA65E472E088E593E0F1CA0E94181DF1
:101910001F920F920FB60F9211240BB60F922F93B6
:101920003F934F935F936F937F938F939F93AF9367
:10193000BF93EF93FF9388E593E00E940B03FF9121
:10194000EF91BF91AF919F918F917F916F915F9137
:101950004F913F912F910F900BBE0F900FBE0F90A4
:101960001F9018951F920F920FB60F9211240BB66D
:101970000F922F933F934F935F936F937F938F9328
:101980009F93AF93BF93EF93FF9388E593E00E94FB
:101990004A02FF91EF91BF91AF919F918F917F91FB
:1019A0006F915F914F913F912F910F900BBE0F90D0
:1019B0000FBE0F901F9018951F920F920FB60F92A7
:1019C00011240BB60F922F933F934F935F936F9316
:1019D0007F938F939F93AF93BF93EF93FF9385EF85
:1019E00093E00E940B03FF91EF91BF91AF919F9104
:1019F0008F917F916F915F914F913F912F910F90B8
:101A00000BBE0F900FBE0F901F9018951F920F9254
:101A10000FB60F9211240BB60F922F933F934F9353
:101A20005F936F937F938F939F93AF93BF93EF9346
:101A3000FF9385EF93E00E944A02FF91EF91BF91DF
:101A4000AF919F918F917F916F915F914F913F9156
:101A50002F910F900BBE0F900FBE0F901F901895F7
:101A60001F920F920FB60F9211240BB60F922F9365
:101A70003F934F935F936F937F938F939F93AF9316
:101A8000BF93EF93FF9382E994E00E940B03FF91D1
:101A9000EF91BF91AF919F918F917F916F915F91E6
:101AA0004F913F912F910F900BBE0F900FBE0F9053
:101AB0001F9018951F920F920FB60F9211240BB61C
:101AC0000F922F933F934F935F936F937F938F93D7
:101AD0009F93AF93BF93EF93FF9382E994E00E94AB
:101AE0004A02FF91EF91BF91AF919F918F917F91AA
:101AF0006F915F914F913F912F910F900BBE0F907F
:101B00000FBE0F901F9018951F920F920FB60F9255
:101B100011242F933F938F939F93AF93BF93809103
:101B2000150390911603A0911703B09118033091FB
:101B3000100323E0230F2D3758F50196A11DB11D89
:101B4000209310038093150390931603A09317031B
:101B5000B09318038091110390911203A091130385
:101B6000B09114030196A11DB11D809311039093B0
:101B70001203A0931303B0931403BF91AF919F91ED
:101B80008F913F912F910F900FBE0F901F9018953E
:101B900026E8230F0296A11DB11DD2CF1F920F92EE
:101BA0000FB60F9211240BB60F922F933F934F93C2
:101BB0005F936F937F938F939F93AF93BF93EF93B5
:101BC000FF93E0910E02F0910F021995FF91EF91B2
:101BD000BF91AF919F918F917F916F915F914F9145
:101BE0003F912F910F900BBE0F900FBE0F901F9043
:101BF00018951F920F920FB60F9211240BB60F92E9
:101C00002F933F934F935F936F937F938F939F9304
:101C1000AF93BF93EF93FF93E0910C02F0910D020D
:101C20001995FF91EF91BF91AF919F918F917F9106
:101C30006F915F914F913F912F910F900BBE0F903D
:101C40000FBE0F901F9018951F920F920FB60F9214
:101C500011240BB60F922F933F934F935F936F9383
:101C60007F938F939F93AF93BF93EF93FF93E091F5
:101C70000202F09103021995FF91EF91BF91AF918C
:101C80009F918F917F916F915F914F913F912F9194
:101C90000F900BBE0F900FBE0F901F9018951F92C4
:101CA0000F920FB60F9211240BB60F922F933F9302
:101CB0004F935F936F937F938F939F93AF93BF9354
:101CC000EF93FF93E0910002F09101021995FF91CB
:101CD000EF91BF91AF919F918F917F916F915F91A4
:101CE0004F913F912F910F900BBE0F900FBE0F9011
:101CF0001F9018951F920F920FB60F9211240BB6DA
:101D00000F922F933F934F935F936F937F938F9394
:101D10009F93AF93BF93EF93FF93E0910A02F091EB
:101D20000B021995FF91EF91BF91AF919F918F9108
:101D30007F916F915F914F913F912F910F900BBECB
:101D40000F900FBE0F901F9018951F920F920FB615
:101D50000F9211240BB60F922F933F934F935F93E3
:101D60006F937F938F939F93AF93BF93EF93FF9363
:101D7000E0910802F09109021995FF91EF91BF914E
:101D8000AF919F918F917F916F915F914F913F9113
:101D90002F910F900BBE0F900FBE0F901F901895B4
:101DA0001F920F920FB60F9211240BB60F922F9322
:101DB0003F934F935F936F937F938F939F93AF93D3
:101DC000BF93EF93FF93E0910602F09107021995FC
:101DD000FF91EF91BF91AF919F918F917F916F9103
:101DE0005F914F913F912F910F900BBE0F900FBEBF
:101DF0000F901F9018951F920F920FB60F921124FB
:101E00000BB60F922F933F934F935F936F937F93F4
:101E10008F939F93AF93BF93EF93FF93E09104024F
:101E2000F09105021995FF91EF91BF91AF919F91AC
:101E30008F917F916F915F914F913F912F910F9073
:101E40000BBE0F900FBE0F901F9018954F925F9290
:101E50006F927F928F929F92AF92BF92CF92DF92BA
:101E6000EF92FF920F931F93CF93DF9310925B0338
:101E700010925A0348EE53E060E070E040935C0338
:101E800050935D0360935E0370935F038FE192E074
:101E9000909359038093580325E331E03093650311
:101EA0002093640324E331E03093670320936603B7
:101EB00020E331E0309369032093680321E331E0AC
:101EC00030936B0320936A0322E331E030936D0378
:101ED00020936C0326E331E030936F0320936E036D
:101EE0001092710310927203109273031092740394
:101EF0001092F8031092F7034093F9035093FA03FA
:101F00006093FB037093FC039093F6038093F503B7
:101F100025ED30E0309302042093010424ED30E0FD
:101F2000309304042093030420ED30E03093060442
:101F30002093050421ED30E030930804209307043A
:101F400022ED30E030930A042093090426ED30E0BE
:101F500030930C0420930B0410920E0410920F0483
:101F6000109210041092110410929504109294048F
:101F70004093960450939704609398047093990447
:101F8000909393048093920485EC90E090939F0447
:101F900080939E0484EC90E09093A1048093A0042D
:101FA00080EC90E09093A3048093A20481EC90E0F5
:101FB0009093A5048093A40482EC90E09093A704EE
:101FC0008093A60486EC90E09093A9048093A804E3
:101FD0001092AB041092AC041092AD041092AE04B7
:101FE00010928305109282058BE98093840588E026
:101FF0008093870580E091E0909386058093850526
:102000000E94F31B909389058093880530E020E0BF
:10201000809185059091860528173907E0F4609135
:10202000840570E0C90148E050E0FC01E078FF273A
:10203000880F991FEF2B11F08627972741505109E0
:10204000A1F7E0918805F0918905E20FF31F8083E5
:102050002F5F3F4FDDCF10928607109287071092B7
:1020600089071092880710928C0710928D071092A2
:102070008E0710928F07109290071092830510928E
:10208000820506EF17E08AEF482E87E0582E9AE087
:10209000692E712C23E2C22ED12C3EE5832E992489
:1020A0009394A12CB12C45EAE42E4AE5F42E85E167
:1020B00090E00E94F31BEC017C826B82DE82CD8279
:1020C000198218821A821C8A1B8A8EE591E00E946E
:1020D000F31B9C878B87892B09F0BCC01F82188655
:1020E00019861A86D801CD93DD938D0185E190E0A4
:1020F0000E94F31BEC017C826B82DE82CD8219820E
:1021000018821A821C8A1B8A8EE591E00E94F31BBA
:102110009C878B87892B09F0AAC01F821886198695
:102120001A86F801D383C2834016510609F0BFCF47
:102130001092580584E68093590510925A0580E064
:1021400090E0A8ECB2EC80933B0590933C05A09303
:102150003D05B0933E0527E120933A05809336056F
:1021600090933705A0933805B093390586E18093A5
:10217000350580E290E00E94F31BFC0180E2DF0164
:102180001D928A95E9F7128A138A148A158A168A8B
:10219000178A108E118E89E392E091838083F093E9
:1021A0003405E09333058AE290E00E94F31BFC01C2
:1021B000128A138A148A158A168A178A108E118E2B
:1021C00081E392E0918380838DEC9CECACE4BDE3F1
:1021D00082A393A3A4A3B5A38AE097EDA3E2BCE3F3
:1021E00086A397A3A0A7B1A70AE217E0138F028FD7
:1021F000C2E3DCE0D58FC48FF0933205E093310564
:1022000080E290E00E94F31BFC01128A138A148A78
:10221000158A168A178A108E118E81E492E09183B6
:102220008083138F028FD58FC48FF0933005E09396
:102230002F05DF91CF911F910F91FF90EF90DF90CD
:10224000CF90BF90AF909F908F907F906F905F9056
:102250004F9008958F829886A986BA86FC8AEB8A69
:102260001E861D86188A1F861A8A198A3BCF8F827E
:102270009886A986BA86FC8AEB8A1E861D86188AED
:102280001F861A8A198A4DCFCF93DF93CDB7DEB759
:10229000AF970FB6F894DEBF0FBECDBF789484B56C
:1022A000826084BD84B5816084BD85B5826085BD52
:1022B00085B5816085BD80916E00816080936E00E0
:1022C00010928100809181008260809381008091D2
:1022D0008100816080938100809180008160809383
:1022E00080008091B10084608093B1008091B00043
:1022F00081608093B0008091910082608093910012
:102300008091910081608093910080919000816024
:10231000809390008091A10082608093A1008091C1
:10232000A10081608093A1008091A00081608093D2
:10233000A000809121018260809321018091210180
:102340008160809321018091200181608093200130
:1023500080917A00846080937A0080917A00826014
:1023600080937A0080917A00816080937A008091D6
:102370007A00806880937A001092C10026E040E8DD
:1023800055E260E070E082E994E00E94BB0282E9DD
:1023900094E090938B0780938A072EE240EA56E8F8
:1023A00061E070E085EF93E00E94BB0285EF93E06F
:1023B00090935C0580935B052EE240EA56E861E06D
:1023C00070E00E94BB0282E080935A0526E040E064
:1023D0005BE460E070E088E593E00E94BB0286E980
:1023E00092E00E94CB078AE395E00E94090585E30D
:1023F00095E00E94090562E082E10E94380462E0F3
:1024000083E10E94380462E084E10E94380462E0C3
:1024100085E10E94380489E991E090930B02809352
:102420000A0280916900806C80936900EB9A87ECC6
:1024300091E0909309028093080280916900806383
:1024400080936900EA9A8BED91E090930702809364
:102450000602809169008C6080936900E99A89E0A6
:1024600092E090930502809304028091690083605A
:1024700080936900E89A80E00E9469048C0181E001
:102480000E946904B801680F791F072E000C880BA1
:10249000990B611571058105910509F025D590E02D
:1024A00080E02BD58A32B9F06AE290E080E02DD549
:1024B000CFD4EEEFCE2ED12CE12CF12CA70196013A
:1024C00032D581E090E021D5C3D4A70196012BD568
:1024D00082E090E01AD564E170E080E090E00E9434
:1024E000A40410923B0510923C0510923D051092F9
:1024F0003E0540E050E0BA018AE395E00E94D50431
:102500001092360510923705109238051092390551
:1025100040E050E0BA0185E395E00E94D50464E113
:1025200070E080E090E00E94A404809133059091D7
:102530003405909324038093230352E0252E312CFD
:1025400080918A0790918B07DC01ED91FC910084CA
:10255000F185E02D1995892B39F410928607109298
:10256000870702C180938D0780918A0790918B071E
:10257000DC01ED91FC910084F185E02D1995892B0A
:1025800009F42EC180918A0790918B07DC01ED91AF
:10259000FC910284F385E02D1995182F482F50E007
:1025A00070E060E02AE088E593E00E9480076FEA2F
:1025B00072E088E593E00E94DC0740918807509123
:1025C0008907052E000C660B770B88E593E00E94C7
:1025D000DD0761EB72E088E593E00E94DC07809103
:1025E0008807909189078230910509F458C028F531
:1025F000009709F442C0019709F44AC063EC72E005
:1026000082E994E00E94DC07409188075091890795
:10261000052E000C660B770B82E994E00E94DD0723
:1026200065E472E082E994E00E94770710928607E1
:10263000109289071092880797CF8430910509F48A
:102640005AC008F441C00597C9F610928907109244
:102650008807113809F0C0C080918F078F3F09F4B7
:1026600074C02EE7E82FF0E0E857F94F90819923E6
:1026700009F469C02083890FF5CF1E3731F4E1E0FA
:10268000F0E0F0938907E093880710928D076CCFF4
:1026900010938F07309289072092880765CF1F3FDC
:1026A00049F010938C0783E090E090938907809322
:1026B00088075ACF109286071092890710928807D0
:1026C0008EEF8093870750C080918D0790918C0783
:1026D000891780F7E82FF0E0E857F94F10838F5FF4
:1026E000981340CF10928D07A4E0B0E0B093890713
:1026F000A093880739CF20918C074091880550918D
:102700008905A8E8B6E090E080E0E0E030E08217DC
:10271000930740F46D91E627E40FF52FF11DE0815A
:102720000196F5CF1E1307C0E5E0F0E0F0938907AE
:10273000E093880719CF10928607109289071092AC
:1027400088078FEFBECF8EE7808380918C078093C0
:10275000860781E08093870784EB92E00E94CB0795
:1027600080918C07811140C0E0918105F0E0EE0F6F
:10277000FF1FEA50F84F80819181DC0151962D9125
:102780003C91232B09F4A6C06AE875E00E948F0BE8
:102790008FEF80938E07AAE8B5E0FD0180E091916C
:1027A0009E3711F480938E078F5F8332C1F7EDEA75
:1027B000F5E082E292919E3779F5E1E8F5E022E2D8
:1027C00030E043A54E3719F4821B83A7C901319726
:1027D00021503109B0F722C0109286078DEF71CFDA
:1027E0001092860782E06DCF4091860750E0443218
:1027F000510510F043E250E068E876E0CE01019622
:102800000E941C1DBE016F5F7F4F8091FA0790915F
:10281000FB070E94E40BA8CF815060F62091880549
:10282000309189058DEA95E010E0ED91E127E20F06
:10283000F32FF11D10818A179B07B9F780918A0742
:1028400090918B07DC01ED91FC910190F081E02DDE
:102850006EE7199580918A0790918B07DC01ED91C5
:10286000FC910190F081E02D60918E071995809187
:102870008A0790918B07DC01ED91FC910190F0812A
:10288000E02D63E2199580918A0790918B07DC0116
:10289000ED91FC910280F381E02D43E250E06AE883
:1028A00075E0199580918A0790918B07DC01ED9175
:1028B000FC910190F081E02D612F199580918A079C
:1028C00090918B07DC01ED91FC910190F081E02D5E
:1028D00061E819958091810590E0019681709927B2
:1028E000809381058091FA079091FB07FC01218973
:1028F0003289232B09F165E273E00E948F0B882354
:10290000D9F080912503853009F4DFC0843609F4BD
:10291000F6C02FB7F8948091150390911603A091FB
:102920001703B09118032FBF80931F0390932003C8
:10293000A0932103B093220300911D0310911E0365
:10294000C80164E670E020D7892B09F082C082E0DC
:10295000809325038091590590E0909327038093FD
:102960002603892BA9F4EBE5F5E0A8E2B3E08BE7B9
:1029700095E0219131912D933D938E179F07C9F7D3
:1029800065E273E08091F6079091F7070E94E40BEF
:102990008091540390915503A0915603B091570331
:1029A00040914C0350914D0360914E0370914F0341
:1029B000840F951FA61FB71F4091190350911A034A
:1029C00060911B0370911C0384179507A607B70736
:1029D00009F43FC083E080932503809154039091D4
:1029E0005503A0915603B09157039093270380930A
:1029F000260380914C0390914D03A0914E03B0911A
:102A00004F03909329038093280365E273E080913C
:102A1000F6079091F7070E94E40B80915403909180
:102A20005503A0915603B091570340914C03509128
:102A30004D0360914E0370914F03840F951FA61FA5
:102A4000B71F8093190390931A03A0931B03B093AD
:102A50001C03C80164E170E097D6892B21F5A09191
:102A60002303B091240340914C0350914D03609196
:102A70004E0370914F030091540310915503209120
:102A800056033091570313961C930E931297159685
:102A90005C934E931497ED91FC9111970280F38112
:102AA000E02DCD01199580911D0390911E03019693
:102AB00090931E0380931D0361E070E080E090E03E
:102AC0000E94A4040E940E073BCD8CED92E00E9470
:102AD000CB0780912F05909130059093240380932C
:102AE00023032091260320931002DC01ED91FC9139
:102AF0000190F081E02D19950E9478010ACF609134
:102B0000260370912703072E000C880B990B6CD3BA
:102B100020E030E04AE754E463D220E030E04AE7C6
:102B200054E4C7D26B017C016091280370912903A2
:102B3000072E000C880B990B57D320E030EA4CE0AD
:102B400056E44ED220E030EA4CE056E4B2D26CA714
:102B50007DA78EA79FA700912A0310912B03809138
:102B60002C0380931002809131059091320590934F
:102B7000240380932303DC01ED91FC910190F0810B
:102B8000E02D199520E030E040E05FE36CA57DA5E5
:102B90008EA59FA5DDD32BED3FE049E450E4D8D3CB
:102BA00086D49B01AC01C701B601D2D32B013C01F5
:102BB00020E030E0A901C701B601C6D320E030E033
:102BC000A90118160CF0EFC0C301B201BDD3A301D7
:102BD000920118160CF05058C701B60101D24B01F2
:102BE0005C0120E030E040E05FE3C301B201B0D31C
:102BF0002B013C01AC019B01C501B401F1D16CA3D7
:102C00007DA38EA39FA3A5019401C301B201E9D1C5
:102C100068A779A78AA79BA720E030E0A90145D241
:102C2000812C912C30E8A32E3FEBB32E87FD13C0EF
:102C300020E030E0A90168A579A58AA59BA584D3E9
:102C4000812C912C5401181634F4812C912C20E8FD
:102C5000A22E2FE3B22E20E030E0A9016CA17DA1CD
:102C60008EA19FA122D2412C512C90E8692E9FEB7E
:102C7000792E87FD13C020E030E0A9016CA17DA171
:102C80008EA19FA161D3412C512C3201181634F42E
:102C9000412C512C80E8682E8FE3782EE09123039D
:102CA000F09124031783068380E090E0A0E8BFE35F
:102CB00082879387A487B587C686D786E08AF18AFC
:102CC000828A938AA48AB58A468A578A608E718ED0
:102CD0000E94780182EF92E00E94CB074091250389
:102CE00050E070E060E02AE088E593E00E94800711
:102CF00062EB72E088E593E00E94DC0742E0C701E6
:102D0000B6010E940C0862EB72E088E593E00E9435
:102D1000DC0742E06CA57DA58EA59FA50E940C084E
:102D200062EB72E088E593E00E94DC07A80170E0A6
:102D300060E02AE088E593E00E94800762EB72E0A1
:102D400088E593E00E94DC0742E0C501B4010E94DF
:102D50000C0862EB72E088E593E00E94DC0742E039
:102D6000C301B2010E940C0862EB72E088E593E0B7
:102D70000E94DC0742E068A579A58AA59BA50E9470
:102D80000C0862EB72E088E593E00E94DC0742E009
:102D90006CA17DA18EA19FA10E940C0889E692E002
:102DA0000E94CB07B6CDC301B201CED2A3019201DE
:102DB00018160CF05058C701B60113D110CF8F92DE
:102DC0009F92AF92BF92CF92DF92EF92FF92CF93FA
:102DD000DF93EC01688179818A819B81611571059E
:102DE0008105910521F464E279ED8BE597E02DE111
:102DF00033EF41E050E097D049015A019B01AC010B
:102E0000A7EAB1E4ACD06B017C01ACEEB4EFA50154
:102E10009401B1D0C60ED71EE81EF91EF7FE06C0FB
:102E200081E0C81AD108E10880E8F80AC882D9828E
:102E3000EA82FB82C701B6019F77DF91CF91FF90B5
:102E4000EF90DF90CF90BF90AF909F908F900895BC
:102E50008F929F92AF92BF92CF92DF92EF92FF92AA
:102E600060911102709112028091130290911402EC
:102E7000611571058105910521F464E279ED8BE519
:102E800097E02DE133EF41E050E04DD049015A0188
:102E90009B01AC01A7EAB1E462D06B017C01ACEE0E
:102EA000B4EFA501940167D0C60ED71EE81EF91E27
:102EB000F7FE06C081E0C81AD108E10880E8F80AE8
:102EC000C0921102D0921202E0921302F092140208
:102ED000C701B6019F77FF90EF90DF90CF90BF9032
:102EE000AF909F908F90089560931102709312029B
:102EF00080931302909314020895F999FECF92BD26
:102F000081BDF89A992780B50895262FF999FECFAB
:102F10001FBA92BD81BD20BD0FB6F894FA9AF99AF6
:102F20000FBE01960895052E97FB16F400940FD05E
:102F300057FD05D024D007FC02D046F408C05095B8
:102F40004095309521953F4F4F4F5F4F0895909595
:102F50008095709561957F4F8F4F9F4F089531D029
:102F6000A59F900DB49F900DA49F800D911D1124DD
:102F70000895B7FFF4CFF3DF821B930B0895A1E20E
:102F80001A2EAA1BBB1BFD010DC0AA1FBB1FEE1FE3
:102F9000FF1FA217B307E407F50720F0A21BB30B2E
:102FA000E40BF50B661F771F881F991F1A9469F7AA
:102FB00060957095809590959B01AC01BD01CF0106
:102FC0000895A29FB001B39FC001A39F700D811D02
:102FD0001124911DB29F700D811D1124911D089522
:102FE0005058BB27AA270ED075C166D130F06BD1DF
:102FF00020F031F49F3F11F41EF45BC10EF4E09514
:10300000E7FB51C1E92F77D180F3BA176207730745
:103010008407950718F071F49EF58FC10EF4E095C2
:103020000B2EBA2FA02D0B01B90190010C01CA0182
:10303000A0011124FF27591B99F0593F50F4503E2D
:1030400068F11A16F040A22F232F342F4427585F1F
:10305000F3CF469537952795A795F0405395C9F737
:103060007EF41F16BA0B620B730B840BBAF09150EF
:10307000A1F0FF0FBB1F661F771F881FC2F70EC08E
:10308000BA0F621F731F841F48F487957795679561
:10309000B795F7959E3F08F0B3CF9395880F08F04A
:1030A0009927EE0F979587950895D9D008F481E078
:1030B00008950CD00FC107D140F0FED030F021F4BC
:1030C0005F3F19F0F0C0511139C1F3C014D198F32A
:1030D0009923C9F35523B1F3951B550BBB27AA2799
:1030E00062177307840738F09F5F5F4F220F331F0B
:1030F000441FAA1FA9F333D00E2E3AF0E0E830D0D7
:1031000091505040E695001CCAF729D0FE2F27D0D9
:10311000660F771F881FBB1F261737074807AB07A7
:10312000B0E809F0BB0B802DBF01FF2793585F4F1C
:103130002AF09E3F510568F0B6C000C15F3FECF336
:10314000983EDCF3869577956795B795F7959F5FE1
:10315000C9F7880F911D9695879597F90895E1E035
:10316000660F771F881FBB1F621773078407BA0794
:1031700020F0621B730B840BBA0BEE1F88F7E095EF
:10318000089504D06894B111D9C00895BCD088F0D6
:103190009F5790F0B92F9927B751A0F0D1F0660F43
:1031A000771F881F991F1AF0BA95C9F712C0B1305E
:1031B00081F0C3D0B1E00895C0C0672F782F882771
:1031C000B85F39F0B93FCCF3869577956795B3959D
:1031D000D9F73EF490958095709561957F4F8F4F0C
:1031E0009F4F0895E89409C097FB3EF49095809511
:1031F000709561957F4F8F4F9F4F9923A9F0F92FBD
:1032000096E9BB279395F695879577956795B7953A
:10321000F111F8CFFAF4BB0F11F460FF1BC06F5F20
:103220007F4F8F4F9F4F16C0882311F096E911C032
:10323000772321F09EE8872F762F05C0662371F053
:1032400096E8862F70E060E02AF09A95660F771F67
:10325000881FDAF7880F9695879597F90895990F43
:103260000008550FAA0BE0E8FEEF16161706E80750
:10327000F907C0F012161306E407F50798F0621B71
:10328000730B840B950B39F40A2661F0232B242B46
:10329000252B21F408950A2609F4A140A6958FEF65
:1032A000811D811D089597F99F6780E870E060E0B7
:1032B00008959FEF80EC089500240A9416161706CF
:1032C00018060906089500240A9412161306140617
:1032D00005060895092E0394000C11F4882352F07A
:1032E000BB0F40F4BF2B11F460FF04C06F5F7F4F32
:1032F0008F4F9F4F089557FD9058440F551F59F019
:103300005F3F71F04795880F97FB991F61F09F3FD2
:1033100079F087950895121613061406551FF2CFFB
:103320004695F1DF08C0161617061806991FF1CF4B
:1033300086957105610508940895E894BB27662772
:103340007727CB0197F908958ADF08F48FEF089566
:103350000BD0C0CFB1DF28F0B6DF18F0952309F00D
:10336000A2CFA7CF1124EACFC6DFA0F3959FD1F358
:10337000950F50E0551F629FF001729FBB27F00D23
:10338000B11D639FAA27F00DB11DAA1F649F662778
:10339000B00DA11D661F829F2227B00DA11D621FC7
:1033A000739FB00DA11D621F839FA00D611D221F81
:1033B000749F3327A00D611D231F849F600D211D65
:1033C000822F762F6A2F11249F5750408AF0E1F008
:1033D00088234AF0EE0FFF1FBB1F661F771F881F51
:1033E00091505040A9F79E3F510570F05CCFA6CF99
:1033F0005F3FECF3983EDCF3869577956795B7953C
:10340000F795E7959F5FC1F7FE2B880F911D969565
:10341000879597F90895FA01EE0FFF1F3096210561
:10342000310599F16115710561F48038BFE39B079F
:1034300049F168949038810561F08038BFEF9B07AF
:1034400041F0992342F5FF3FE1053105210511F1D6
:10345000E8940894E795D901AA2329F4AB2FBE2F4D
:10346000F85FD0F310C0FF5F70F4A695E0F7F7396E
:1034700050F019F0FF3A38F49F779F930CD00F90DB
:1034800007FC905808953EF014CF60E070E080E8AB
:103490009FE308954FE79F775F934F933F932F9359
:1034A000E1D02F913F914F915F9152DF0FC09F93D9
:1034B0005FD00F9007FCEE5F82C0D1DE880B990BC6
:1034C000089519F40EF0EFCE38CFF3CE1CDFC8F319
:1034D0009638C0F707F80F92E8942BE33AEA48EBE6
:1034E0005FE744DF0F920F920F924DB75EB70F92D6
:1034F000F9D0E4EEF0E016D04F915F91EF91FF919B
:10350000E595EE1FFF1F49F0FE57E0684427EE0FD8
:10351000441FFA95E1F74195550B6BD00F9007FECC
:103520005FC00895DF93CF931F930F93FF92EF92A5
:10353000DF927B018C01689405C0DA2EEF0114DF65
:10354000FE01E894A5912591359145915591AEF3F1
:10355000EF0158DDFE019701A801DA9479F7DF90B9
:10356000EF90FF900F911F91CF91DF910895A1CE21
:10357000CADEE8F3E894E0E0BB279F57F0F02AEDBD
:103580003FE049EC06C0EE0FBB0F661F771F881F98
:1035900028F0B23A62077307840728F0B25A620B28
:1035A000730B840BE3959A9572F7803830F49A95F3
:1035B000BB0F661F771F881FD2F79048C8C0EF93D4
:1035C000E0FF06C0A2EA2AED3FE049EC5FEB1ADD1E
:1035D00081DE0F90039401FC9058ECE0F1E0C3C051
:1035E0009B01AC0160E070E080E89FE362CD5BCEC0
:1035F000ACC089DEE8F39923D9F3940F511DBBF3D6
:103600009150504094F059F0882332F0660F771FA4
:10361000881F91505040C1F79E3F510544F7880FD5
:10362000911D9695879597F908955F3FACF0983E68
:103630009CF0BB27869577956795B79508F4B160A0
:103640009395C1F7BB0F58F711F460FFE8CF6F5F98
:103650007F4F8F4F9F4FE3CF71CE0EF076C029CEB4
:10366000689421CE50DEC8F39923D1F3C6F3DF93DB
:10367000CF931F930F93FF92C92FDD2788232AF042
:103680002197660F771F881FDAF720E030E040E8C7
:103690005FEB9FE3883920F0803E30F021968F77F2
:1036A000A0DCEAE2F1E003C09CDCE7E5F1E03ADF10
:1036B0008B01BE01EC01FB2E6F5771097595771FC9
:1036C000880B990B91DD28E132E741E35FE34CDEA3
:1036D000AF2D9801AE01FF900F911F91CF91DF9117
:1036E00091DCF8CDFA01DC01AA0FBB1F9B01AC01F4
:1036F000BF5728F422273327442750781FC0B751DB
:1037000088F4AB2F0024469537952795011CA39587
:10371000D2F3002069F0220F331F441FB395DAF370
:103720000DD05ECC61307105A0E88A07B94630F44F
:103730009B01AC016627772788279078309621F087
:10374000208331834283538308959F3F31F091500A
:1037500020F4879577956795B795880F911D969575
:10376000879597F908959F938F937F936F93FF9316
:10377000EF939B01AC01ECDDEF91FF91D3DE2F9134
:103780003F914F915F91E4CD97FB072E16F4009483
:1037900006D077FD08D013D007FC05D03EF49095F5
:1037A00081959F4F0895709561957F4F0895EE0F15
:1037B000FF1F881F8BBF0790F691E02D1994AA1B5D
:1037C000BB1B51E107C0AA1FBB1FA617B70710F00C
:1037D000A61BB70B881F991F5A95A9F7809590953E
:1037E000BC01CD0108950F931F93CF93DF938230D7
:1037F000910510F482E090E0E0910008F09101085A
:1038000030E020E0B0E0A0E0309799F421153105D8
:1038100009F44AC0281B390B24303105D8F58A81B8
:103820009B816115710589F1FB0193838283FE0100
:1038300011C0408151810281138148175907E0F07E
:103840004817590799F4109761F012960C93129744
:1038500013961C933296CF01DF91CF911F910F9158
:1038600008950093000810930108F4CF2115310545
:1038700051F04217530738F0A901DB019A01BD014D
:10388000DF01F801C1CFEF01F9CF909301088093D8
:103890000008CDCFFE01E20FF31F819391932250D8
:1038A000310939832883D7CF2091FE073091FF0754
:1038B000232B41F420911702309118023093FF0717
:1038C0002093FE0720911502309116022115310533
:1038D00041F42DB73EB74091190250911A02241BB2
:1038E000350BE091FE07F091FF07E217F307A0F414
:1038F0002E1B3F0B2817390778F0AC014E5F5F4F46
:103900002417350748F04E0F5F1F5093FF07409371
:10391000FE07819391939FCFF0E0E0E09CCFCF939F
:10392000DF930097E9F0FC01329713821282A09195
:103930000008B0910108ED0130E020E01097A1F4FB
:1039400020813181820F931F2091FE073091FF0764
:103950002817390709F061C0F093FF07E093FE07CD
:10396000DF91CF910895EA01CE17DF07E8F54A818C
:103970005B819E0141155105B1F7E901FB83EA83A3
:1039800049915991C40FD51FEC17FD0761F480814F
:1039900091810296840F951FE90199838883828122
:1039A00093819B838A83F0E0E0E012968D919C9155
:1039B00013970097B9F52D913C911197CD0102967F
:1039C000820F931F2091FE073091FF0728173907B8
:1039D00039F6309751F51092010810920008B09313
:1039E000FF07A093FE07BCCFD383C28340815181E0
:1039F000840F951FC817D90761F44E5F5F4F888108
:103A00009981480F591F518340838A819B819383F9
:103A100082832115310509F0B0CFF0930108E093BE
:103A200000089ECFFD01DC01C0CF13821282D7CFE8
:103A300081E090E0F89409C0FB01DC0102C0019034
:0E3A40000D9241505040D8F70895F894FFCFF2
:103A4E00D404D404D404D404D404D404D404D404A8
:103A5E00FF01000000000002088000000000002DA1
:103A6E00031D0263027903940272028602000000B3
:103A7E00004E07E9080000000076077607000000F8
:103A8E000066075C070D0A006E616E00696E6600C7
:103A9E006F7666005374617274696E67204D6F762F
:103AAE0065204163696F6E000900416374696F6E32
:103ABE0020436F6D706C65746564005265706C792F
:103ACE0020636F6D6D616E6420636F6D706C6574D5
:103ADE00656420746F00696E697469616C697A65DA
:103AEE00642053657269616C3320506F7274002CC0
:103AFE00002C2000666F756E6420656E64206279FE
:103B0E007465004552524F523A20556E646566698F
:103B1E006E65642073746174653A20007265636526
:103B2E00697665642053544F50206D6573736167D9
:103B3E00650072656365697665642061206D6573E5
:063B4E00736167650000D1
:020000023000CC
:10E000000D9489F10D94B2F10D94B2F10D94B2F129
:10E010000D94B2F10D94B2F10D94B2F10D94B2F1F0
:10E020000D94B2F10D94B2F10D94B2F10D94B2F1E0
:10E030000D94B2F10D94B2F10D94B2F10D94B2F1D0
:10E040000D94B2F10D94B2F10D94B2F10D94B2F1C0
:10E050000D94B2F10D94B2F10D94B2F10D94B2F1B0
:10E060000D94B2F10D94B2F10D94B2F10D94B2F1A0
:10E070000D94B2F10D94B2F10D94B2F10D94B2F190
:10E080000D94B2F10D94B2F10D94B2F10D94B2F180
:10E090000D94B2F10D94B2F10D94B2F10D94B2F170
:10E0A0000D94B2F10D94B2F10D94B2F10D94B2F160
:10E0B0000D94B2F10D94B2F10D94B2F10D94B2F150
:10E0C0000D94B2F10D94B2F10D94B2F10D94B2F140
:10E0D0000D94B2F10D94B2F10D94B2F10D94B2F130
:10E0E0000D94B2F141546D656761323536300041AF
:10E0F000726475696E6F206578706C6F72657220DE
:10E1000073746B3530305632206279204D4C530099
:10E11000426F6F746C6F616465723E004875683F52
:10E1200000436F6D70696C6564206F6E203D200048
:10E130004350552054797065202020203D20005FF9
:10E140005F4156525F415243485F5F3D2000415658
:10E1500052204C696243205665723D20004743437C
:10E160002056657273696F6E203D20004350552024
:10E1700049442020202020203D20004C6F7720663D
:10E18000757365202020203D20004869676820665F
:10E190007573652020203D200045787420667573D6
:10E1A00065202020203D20004C6F636B2066757336
:10E1B000652020203D20004D617220203720323024
:10E1C000313300312E362E3800342E332E350056A2
:10E1D00023202020414444522020206F7020636F70
:10E1E00064652020202020696E73747275637469E1
:10E1F0006F6E2061646472202020496E74657272B3
:10E20000757074006E6F20766563746F7200726A49
:10E210006D702020006A6D70200057686174207056
:10E220006F72743A00506F7274206E6F7420737541
:10E2300070706F72746564004D7573742062652030
:10E2400061206C6574746572002000577269747483
:10E25000696E672045450052656164696E672045B7
:10E26000450045452065727220636E743D00504F35
:10E27000525400303D5A65726F2061646472003FF1
:10E280003D43505520737461747300403D454550C3
:10E29000524F4D207465737400423D426C696E6B41
:10E2A000204C454400453D44756D70204545505215
:10E2B0004F4D00463D44756D7020464C415348001B
:10E2C000483D48656C70004C3D4C69737420492F83
:10E2D0004F20506F72747300513D51756974005234
:10E2E0003D44756D702052414D00563D73686F7707
:10E2F00020696E7465727275707420566563746FF0
:10E30000727300593D506F727420626C696E6B00BD
:10E310002A0011241FBECFEFD1E2DEBFCDBF01E046
:10E320000CBF12E0A0E0B2E0EEE1FDEF03E00BBFB6
:10E3300002C007900D92A030B107D9F712E0A0E01B
:10E34000B2E001C01D92AE30B107E1F70F9460F367
:10E350000D948DFE01E20EBF0FEF0DBF11241FBE05
:10E360000D9460F30D9400F020E030E040ED57E0B4
:10E3700005C0FA013197F1F72F5F3F4F2817390792
:10E38000C0F308959C01260F311DC901A0E0B0E043
:10E390002F5F3F4FABBFFC018791882361F08093D3
:10E3A000C6008091C00086FFFCCF8091C0008064D1
:10E3B0008093C000EACF08958DE08093C6008091DD
:10E3C000C00086FFFCCF8091C00080648093C000B5
:10E3D0008AE08093C6008091C00086FFFCCF8091C8
:10E3E000C00080648093C00008950F94C2F10F9420
:10E3F000DCF10895FC019081992359F09093C600B7
:10E400008091C00086FFFCCF8091C0008064809323
:10E41000C0003196992379F70895282F982F929567
:10E420009F70892F805D8A3308F0895F8093C600D2
:10E430008091C00086FFFCCF8091C00080648093F3
:10E44000C000822F8F70982F905D9A3308F0995FEB
:10E450009093C6008091C00086FFFCCF8091C000E1
:10E4600080648093C00008959C01FB01853691056E
:10E470001CF46330710594F0C90164E670E00F94F8
:10E480002EFE605D7F4F6093C6008091C00086FFC6
:10E49000FCCF8091C00080648093C0002B30310598
:10E4A00014F43297B4F0C90164E670E00F942EFEC4
:10E4B0006AE070E00F942EFE605D7F4F6093C600AF
:10E4C0008091C00086FFFCCF8091C0008064809363
:10E4D000C000C9016AE070E00F942EFEC0968093E0
:10E4E000C6008091C00086FFFCCF8091C000806490
:10E4F0008093C00008951F93182F8EE692EE60E07F
:10E500000F94C2F11093C6008091C00086FFFCCF2B
:10E510008091C00080648093C0000F94DCF11F9153
:10E5200008952F923F924F925F926F927F928F92B7
:10E530009F92AF92BF92CF92DF92EF92FF920F9392
:10E540001F93DF93CF93CDB7DEB762970FB6F894E2
:10E55000DEBF0FBECDBF382E622ECA01DB015C01CB
:10E560006D01772420E2222E2E010894411C511CBB
:10E570008BC081E0A81680E0B80681E0C80680E084
:10E58000D80628F0C601AA27BB270F940DF2BB2797
:10E59000AD2D9C2D8B2D0F940DF28A2D0F940DF225
:10E5A0002092C6008091C00086FFFCCF8091C00001
:10E5B00080648093C0009DE29093C6008091C0006B
:10E5C00086FFFCCF8091C00080648093C0002092C1
:10E5D000C6008091C00086FFFCCF8091C00080649F
:10E5E0008093C00019828601750188249924A1E0D6
:10E5F0003A1651F03A1620F0B2E03B1661F409C029
:10E600000BBFF701779007C0C7010F9477FE782EF4
:10E6100002C0F7017080872D0F940DF22092C60082
:10E620008091C00086FFFCCF8091C0008064809301
:10E63000C000872D8052F401EF70F0708F3520F408
:10E64000E40DF51D708204C0E40DF51D8EE280839B
:10E650000894E11CF11C011D111D0894811C911CE2
:10E6600090E18916910409F0C2CF80E190E0A0E02A
:10E67000B0E0A80EB91ECA1EDB1E198AC2010F9493
:10E68000FAF10F94DCF16A94662009F072CF629679
:10E690000FB6F894DEBF0FBECDBFCF91DF911F91B3
:10E6A0000F91FF90EF90DF90CF90BF90AF909F9031
:10E6B0008F907F906F905F904F903F902F90089534
:10E6C0002F923F924F925F926F927F928F929F9282
:10E6D000AF92BF92CF92DF92EF92FF920F931F9370
:10E6E000DF93CF93CDB7DEB7CD53D1400FB6F894BB
:10E6F000DEBF0FBECDBF01E20EBF0FEF0DBF94B75F
:10E70000F894A89514BE80916000886180936000A1
:10E7100010926000789493FF05C0E0910002F091A0
:10E7200001021995279A2F9A8091C00082608093E8
:10E73000C00080E18093C40088E18093C1000000A4
:10E74000EE24FF24870144E0A42EB12CCC24DD2448
:10E7500024C0C5010197F1F70894E11CF11C011DCB
:10E76000111D21E2E2162EE4F20620E0020720E06D
:10E77000120718F031E0C32ED12CC801B70127ECE5
:10E780003BE140E050E00F9441FE611571058105C9
:10E79000910519F485B1805885B98091C00087FD35
:10E7A00003C0C114D104A9F2A6014F5F5F4FC25E3E
:10E7B000DE4F59834883CE51D140C25EDE4F8881FF
:10E7C0009981CE51D140019711F00D9410FEC05D9A
:10E7D000DE4F19821882C053D14060E0C15DDE4F28
:10E7E0001882CF52D14088249924C35DDE4F19820C
:10E7F0001882CD52D140C05EDE4F188219821A8233
:10E800001B82C052D140CE5CDE4F188219821A8220
:10E810001B82C253D140EE24FF2487010BBFF701B6
:10E8200007911691C45CDE4F19830883CC53D14005
:10E830000D940BFEC25EDE4F28813981CE51D1404E
:10E840002130310509F52091C600C25EDE4F1982E4
:10E850001882CE51D14022C02F5F3F4F4F4F5F4FA4
:10E86000213082E138078AE7480780E0580780F0C6
:10E87000C45CDE4FE881F981CC53D140EF5FFF4F9C
:10E8800019F0EE27FF27099420E030E040E050E047
:10E890008091C00087FFE0CF2091C600C35DDE4FAE
:10E8A00048815981CD52D1404F5F5F4FC35DDE4FEC
:10E8B00059834883CD52D140213209F063C64A3092
:10E8C000510508F05FC60894811C911C53E0851621
:10E8D000910409F059C600E010E018C081E280936D
:10E8E000C6008091C00086FFFCCF8091C00080648C
:10E8F0008093C0002F5F3F4F2931310579F70F9486
:10E90000DCF10F5F1F4F0530110519F020E030E0FA
:10E91000E5CF10920A0210920B0210920C02109294
:10E920000D02109206021092070210920802109235
:10E930000902109202021092030210920402109235
:10E9400005028FEE90EE60E00F94F5F180E191EE1C
:10E9500060E00F94C2F18091C00087FFFCCF9091DE
:10E96000C600903608F09F759032B8F09093C600BC
:10E970008091C00086FFFCCF8091C00080648093AE
:10E98000C000A0E2A093C6008091C00086FFFCCF2B
:10E990008091C00080648093C000983409F4D7C18E
:10E9A0009934B8F4923409F459C1933458F490333B
:10E9B00019F1903308F4E3C59F33A1F1903409F0C5
:10E9C000DEC5BDC0953409F470C1963409F0D7C5D1
:10E9D00098C1923509F42BC2933538F49C3409F46C
:10E9E000F5C1913509F0CBC518C2963509F445C279
:10E9F000993509F0C4C567C483E792EE62E00F94CD
:10EA0000F5F110920602109207021092080210927D
:10EA1000090210920A0210920B0210920C0210923C
:10EA20000D0213C18FE792EE62E00F94F5F18FEEC5
:10EA300090EE60E00F94F5F181E291EE60E00F94CA
:10EA4000C2F187EB91EE60E00F94F5F180E391EE77
:10EA500060E00F94C2F184EE90EE60E00F94F5F167
:10EA60008FE391EE60E00F94C2F186E090E061E008
:10EA700070E00F9434F20F94DCF18DE591EE60E0DC
:10EA80000F94C2F189EC91EE60E00F94F5F18EE401
:10EA900091EE60E00F94C2F183EC91EE60E00F9490
:10EAA000F5F18CE691EE60E00F94C2F18EE10F94E7
:10EAB0000DF288E90F940DF281E00F940DF20F949E
:10EAC000DCF18BE791EE60E00F94C2F119E0E0E039
:10EAD000F0E010935700E4918E2F0F940DF20F94F5
:10EAE000DCF18AE891EE60E00F94C2F1E3E0F0E03F
:10EAF00010935700E4918E2F0F940DF20F94DCF1D8
:10EB000089E991EE60E00F94C2F1E2E0F0E0109349
:10EB10005700E4918E2F0F940DF20F94DCF188EAE8
:10EB200091EE60E00F94C2F1E1E0F0E01093570045
:10EB30001491812F0F940DF20F94DCF107CF8BE825
:10EB400092EE62E00F94F5F18BE492EE60E00F94A8
:10EB5000F5F10F94DCF100E010E019C0C8016F2D51
:10EB60000F947FFEFF2031F489E492EE60E00F9471
:10EB7000C2F10BC0F092C6008091C00086FFFCCFAE
:10EB80008091C00080648093C0000F5F1F4FC80158
:10EB900081519F41A0E0B0E0ABBFFC01F790BAE229
:10EBA000FB1621F0E2E000301E07C1F60F94DCF105
:10EBB0000F94DCF187E592EE60E00F94F5F10F948D
:10EBC000DCF1CC24DD2400E010E01EC0C8010F946D
:10EBD00077FEF82E882331F489E492EE60E00F94FA
:10EBE000C2F10BC08093C6008091C00086FFFCCFAD
:10EBF0008091C00080648093C000FE1419F00894D6
:10EC0000C11CD11C0F5F1F4FC80181519F41A0E063
:10EC1000B0E0ABBFFC01E790FAE2EF1621F022E092
:10EC20000030120799F60F94DCF10F94DCF182E6C4
:10EC300092EE60E00F94C2F1C60161E070E00F94C3
:10EC400034F20F94DCF10F94DCF110920202109276
:10EC50000302109204021092050278CE89E992EE26
:10EC600062E00F94F5F1279A2F9A16C02F9880E052
:10EC700090E0E0EDF7E03197F1F7019684369105E9
:10EC8000C1F72F9A80E090E0E0EDF7E03197F1F7DF
:10EC9000019684369105C1F78091C00087FFE6CFC9
:10ECA0008091C00087FFFCCF64C485EA92EE62E0E9
:10ECB0000F94F5F140910202509103026091040219
:10ECC0007091050281E020E10F9491F2809102029F
:10ECD00090910302A0910402B091050280509F4FD1
:10ECE000AF4FBF4F8093020290930302A0930402A0
:10ECF000B093050280509041A040B04008F426CE69
:10ED0000A4CF83EB92EE62E00F94F5F140910602FE
:10ED100050910702609108027091090280E020E1A1
:10ED20000F9491F28091060290910702A09108023F
:10ED3000B091090280509F4FAF4FBF4F80930602A2
:10ED400090930702A0930802B0930902FFCD80ECD4
:10ED500092EE62E00F94F5F183E792EE60E00F949B
:10ED6000F5F18FE792EE60E00F94F5F18BE892EE0B
:10ED700060E00F94F5F189E992EE60E00F94F5F10F
:10ED800085EA92EE60E00F94F5F183EB92EE60E09D
:10ED90000F94F5F180EC92EE60E00F94F5F187ECC2
:10EDA00092EE60E00F94F5F188ED92EE60E00F9442
:10EDB000F5F18FED92EE60E00F94F5F18AEE92EEB0
:10EDC00060E00F94F5F183E093EEBDCD87EC92EE19
:10EDD00062E00F94F5F181E40F947BF282E40F94EA
:10EDE0007BF283E40F947BF284E40F947BF285E45E
:10EDF0000F947BF286E40F947BF287E40F947BF20E
:10EE000088E40F947BF28AE40F947BF28BE40F94F6
:10EE10007BF28CE40F947BF299CD88ED92EE62E068
:10EE20000F94F5F1772473948824992409C48FED05
:10EE300092EE62E00F94F5F140910A0250910B02BC
:10EE400060910C0270910D0282E020E10F9491F22A
:10EE500080910A0290910B02A0910C02B0910D02D8
:10EE600080509F4FAF4FBF4F80930A0290930B0289
:10EE7000A0930C02B0930D0269CD8AEE92EE62E08F
:10EE80000F94F5F184EE90EE60E00F94F5F18FECC5
:10EE900091EE60E00F94F5F1662477244301CC5D98
:10EEA000DE4F19821882C452D140D401C301B695F5
:10EEB000A79597958795CA5DDE4F88839983AA8326
:10EEC000BB83C652D140CC5DDE4FA881B981C4520C
:10EED000D1401196CC5DDE4FB983A883C452D14096
:10EEE000CD0162E070E00F9434F2B0E2B093C6005E
:10EEF0008091C00086FFFCCF8091C0008064809329
:10EF0000C000EDE2E093C6008091C00086FFFCCF18
:10EF10008091C00080648093C000F0E2F093C6004E
:10EF20008091C00086FFFCCF8091C00080648093F8
:10EF3000C000CA5DDE4FE880F9800A811B81C6529D
:10EF4000D140BB27A12F902F8F2D0F940DF2CA5DBA
:10EF5000DE4F8881C652D1400F940DF2B0E2FB2EF5
:10EF6000F092C6008091C00086FFFCCF8091C00067
:10EF700080648093C0000DE30093C6008091C000C0
:10EF800086FFFCCF8091C00080648093C00010E2B7
:10EF90001093C6008091C00086FFFCCF8091C00016
:10EFA00080648093C0008BBEF3012791C65DDE4F65
:10EFB0002883CA52D140A22EBB24CC24DD2408943D
:10EFC000611C711C811C911C8BBEF3018791282E42
:10EFD0003324442455240894611C711C811C911C09
:10EFE0008BBEF3013791C55DDE4F3883CB52D140E4
:10EFF0000894611C711C811C911C8BBEF30147910C
:10F00000C45DDE4F4883CC52D140ADEFEA2EAFEF66
:10F01000FA2EAFEF0A2FAFEF1A2F6E0C7F1C801E57
:10F02000911E142D032DF22CEE24EA0CFB1C0C1D5A
:10F030001D1D0F940DF220E22093C6008091C000A8
:10F0400086FFFCCF8091C00080648093C000C65DC5
:10F05000DE4F8881CA52D1400F940DF230E23093D6
:10F06000C6008091C00086FFFCCF8091C000806404
:10F070008093C000C45DDE4F8881CC52D1400F9494
:10F080000DF240E24093C6008091C00086FFFCCFA5
:10F090008091C00080648093C000C55DDE4F888190
:10F0A000CB52D1400F940DF250E25093C6008091A4
:10F0B000C00086FFFCCF8091C00080648093C000B8
:10F0C0008FEFE8168FEFF80680E0080780E018075A
:10F0D00031F484E092EE60E00F94C2F1DFC0D80119
:10F0E000C7018070907CA070B0708050904CA040A0
:10F0F000B040D1F52FEF3FE340E050E0E222F322B1
:10F1000004231523CA5DDE4FA880B980CA80DB8046
:10F11000C652D140AE0CBF1CC01ED11EAA0CBB1CD7
:10F12000CC1CDD1C8EE092EE60E00F94C2F1BB2798
:10F13000A12F902F8F2D0F940DF28E2D0F940DF285
:10F1400030E23093C6008091C00086FFFCCF8091F2
:10F15000C00080648093C0004EE34093C60080915D
:10F16000C00086FFFCCF87C08EE09EEFA0E0B0E03D
:10F17000E822F9220A231B239CE0E91694E9F90608
:10F1800090E0090790E0190709F088C0C45DDE4FE0
:10F19000A881CC52D140EA2EFF2400E010E0102FCD
:10F1A0000F2DFE2CEE24C55DDE4FB881CB52D14031
:10F1B000EB0EF11C011D111DD601C501817090706F
:10F1C000A070B070DC0199278827E80EF91E0A1F8D
:10F1D0001B1F20EF30E040E050E0A222B322C42207
:10F1E000D52241E1AA0CBB1CCC1CDD1C4A95D1F7F1
:10F1F000EA0CFB1C0C1D1D1D81E090E0A0E0B0E0BE
:10F20000282239224A225B2235E1220C331C441C7D
:10F21000551C3A95D1F7E20CF31C041D151D57013E
:10F220006801AA0CBB1CCC1CDD1C85E192EE60E0E1
:10F230000F94C2F1C801AA27BB270F940DF2BB2778
:10F24000A12F902F8F2D0F940DF28E2D0F940DF274
:10F2500090E29093C6008091C00086FFFCCF809121
:10F26000C00080648093C000AEE3A093C60080918C
:10F27000C00086FFFCCF8091C00080648093C000F6
:10F28000C601AA27BB270F940DF2BB27AD2D9C2DDD
:10F290008B2D0F940DF28A2D0F940DF20F94DCF14B
:10F2A000CC5DDE4FE881F981C452D140F99709F471
:10F2B0004DCBF4E0EF2EF12C012D112D6E0C7F1CA7
:10F2C000801E911EF2CD83E093EE62E00F94F5F183
:10F2D0008AE192EE60E00F94C2F18091C00087FF56
:10F2E000FCCF1091C6001F751093C6008091C0001E
:10F2F00086FFFCCF8091C00080648093C0000F9493
:10F30000DCF1812F81548A3108F036C1163409F4BA
:10F3100095C0173490F4133409F44EC0143430F40B
:10F320001134F1F0123409F01DC130C0143409F465
:10F3300059C0153409F016C16BC01A3409F4C4C0A1
:10F340001B3438F4173409F48FC0183409F00AC19B
:10F35000A1C01B3409F4D2C01C3409F003C1E8C0B9
:10F360008FEF81B90DC082B1809582B980E090E0C5
:10F37000E0EDF7E03197F1F70196883C9105C1F790
:10F380008091C00087FFEFCF12B8EFC08FEF84B934
:10F390000DC085B1809585B980E090E0E0EDF7E0A3
:10F3A0003197F1F70196883C9105C1F78091C00033
:10F3B00087FFEFCF15B8D9C08FEF87B90DC088B1DF
:10F3C000809588B980E090E0E0EDF7E03197F1F7C3
:10F3D0000196883C9105C1F78091C00087FFEFCF6F
:10F3E00018B8C3C08FEF8AB90DC08BB180958BB9A7
:10F3F00080E090E0E0EDF7E03197F1F70196883C8E
:10F400009105C1F78091C00087FFEFCF1BB8ADC059
:10F410008FEF8DB90DC08EB180958EB980E090E0F0
:10F42000E0EDF7E03197F1F70196883C9105C1F7DF
:10F430008091C00087FFEFCF1EB897C08FEF80BBD1
:10F440000DC081B3809581BB80E090E0E0EDF7E0F6
:10F450003197F1F70196883C9105C1F78091C00082
:10F4600087FFEFCF11BA81C08FEF83BB0DC084B38C
:10F47000809584BB80E090E0E0EDF7E03197F1F714
:10F480000196883C9105C1F78091C00087FFEFCFBE
:10F4900014BA6BC08FEF809301010FC080910201FD
:10F4A00080958093020180E090E0E0EDF7E03197F5
:10F4B000F1F70196883C9105C1F78091C00087FF64
:10F4C000EDCF1092020151C08FEF809304010FC065
:10F4D0008091050180958093050180E090E0E0ED4A
:10F4E000F7E03197F1F70196883C9105C1F78091DB
:10F4F000C00087FFEDCF1092050137C08FEF8093DA
:10F5000007010FC08091080180958093080180E079
:10F5100090E0E0EDF7E03197F1F70196883C910536
:10F52000C1F78091C00087FFEDCF109208011DC088
:10F530008FEF80930A010FC080910B01809580931B
:10F540000B0180E090E0E0EDF7E03197F1F70196F4
:10F55000883C9105C1F78091C00087FFEDCF1092E4
:10F560000B0103C085E292EEEEC98091C00087FFD7
:10F57000FCCF8091C600EAC988E392EEE4C98CE131
:10F5800091EEE1C988249924933011F1943028F444
:10F59000913089F09230B8F408C0953061F195301F
:10F5A000F0F0963009F048C043C02B3109F042C951
:10F5B00091E06BE13FC96227C15DDE4F2883CF52E6
:10F5C000D14092E037C9B22FA0E0622793E032C960
:10F5D000822F90E0A82BB92B622794E02BC92E3004
:10F5E00009F039C3622795E0C05DDE4F19821882A9
:10F5F000C053D1401FC9E1E0F0E0EC0FFD1FC05D3A
:10F60000DE4F08811981C053D140E00FF11F2083E4
:10F610000F5F1F4FC05DDE4F19830883C053D14079
:10F6200062270A171B0709F005C9D80196E002C92D
:10F63000261709F010C303C0973009F0FBC87724E0
:10F640009981933109F412C19431C8F4963009F4C8
:10F65000D8C0973050F4923009F406C1933009F4C1
:10F660006DC0913009F059C253C0913109F477C08F
:10F67000923108F0BBC0903109F04FC2F5C098310B
:10F6800009F487C0993150F4953109F4EFC09531F0
:10F6900008F4C6C1963109F040C2C2C19A3109F4DA
:10F6A0006CC09A3108F491C09B3109F45BC09D3164
:10F6B00009F033C29D81903359F48F81882311F46E
:10F6C0009EE11CC0813011F091E018C098E916C08D
:10F6D000892F807591F0903539F4E0E0F0E089E011
:10F6E0008093570094910AC0983539F4E3E0F0E034
:10F6F00089E080935700949101C090E01A821B82A8
:10F700008D818C831D829E831F8227E030E009C299
:10F710001A8288E08B8381E48C8386E58D8382E581
:10F720008E8389E48F8383E5888780E589878FE5E9
:10F730008A8782E38B872BE030E0F3C18A818139AD
:10F7400041F0823941F0803911F48FE005C080E04A
:10F7500003C082E001C08AE01A828B8344C0772410
:10F76000739482C08D81882311F48EE12CC0813086
:10F7700011F081E028C088E926C01A82E1E0F0E0BB
:10F7800089E08093570084918B831C8224E030E0D1
:10F79000C8C18B81803589F48C81883039F4E2E0EE
:10F7A000F0E089E08093570084910DC0E0E0F0E044
:10F7B00089E080935700849106C0E3E0F0E089E09F
:10F7C0008093570084911A82DFCF8D81836C99E0FA
:10F7D000E1E0F0E0082E90935700E89507B600FCB2
:10F7E000FDCF1A821B8223E030E09BC180EC8A832C
:10F7F000CE5CDE4F188219821A821B82C253D1401E
:10F800008EC18A8190E0A0E0B0E0582F44273327D2
:10F8100022278B8190E0A0E0B0E0DC0199278827C7
:10F82000282B392B4A2B5B2B8D8190E0A0E0B0E098
:10F83000282B392B4A2B5B2B8C8190E0A0E0B0E089
:10F84000BA2FA92F982F8827282B392B4A2B5B2BCF
:10F85000220F331F441F551FC05EDE4F288339839C
:10F860004A835B83C052D1401A8259C13A81C95C34
:10F87000DE4F3883C753D140CA5CDE4F1882C6536F
:10F88000D1408B81C82EDD24CA5CDE4F488159816E
:10F89000C653D140C42AD52A933109F082C0CE5C28
:10F8A000DE4F88819981AA81BB81C253D1408050AB
:10F8B000904CA340B04030F583E0CE5CDE4FE88052
:10F8C000F9800A811B81C253D140F70100935B008C
:10F8D00080935700E89507B600FCFDCFCE5CDE4F65
:10F8E000088119812A813B81C253D14000501F4FAA
:10F8F0002F4F3F4FCE5CDE4F088319832A833B8313
:10F90000C253D140C05EDE4F488159816A817B81FC
:10F91000C052D140DE011B9631E08C9111962C91A2
:10F9200011971296C75CDE4F2883C953D140C85C3B
:10F93000DE4F1882C853D14090E0C85CDE4FE881AA
:10F94000F981C853D1408E2B9F2B0C01FA01609393
:10F950005B0030935700E89511244E5F5F4F6F4F67
:10F960007F4F0EEFE02E0FEFF02ECE0CDF1CC114F8
:10F97000D10499F685E0C05EDE4F088119812A81A5
:10F980003B81C052D140F80120935B008093570027
:10F99000E89507B600FCFDCF81E180935700E8951C
:10F9A00035C0C05EDE4F88819981AA81BB81C0527B
:10F9B000D140B695A795979587957C018601ABE0D8
:10F9C000AA2EB12CAC0EBD1E0BC0D5016D915D01F0
:10F9D000C7010F947FFE0894E11CF11C01501040F8
:10F9E0000115110591F7A60160E070E0440F551F65
:10F9F000661F771FC05EDE4FE880F9800A811B8199
:10FA0000C052D1404E0D5F1D601F711F1A82C05E33
:10FA1000DE4F488359836A837B83C052D1407FC0C5
:10FA2000FA80C55CDE4FF882CB53D140C65CDE4F16
:10FA30001882CA53D1408B81C82EDD24C65CDE4FAC
:10FA400008811981CA53D140C02AD12A1A828981DA
:10FA5000BE016D5F7F4F843121F59601C05EDE4FA0
:10FA6000E880F9800A811B81C052D1400BBFF701A9
:10FA700087919691DB018C9311969C936E5F7F4FDB
:10FA8000D801C7010296A11DB11DC05EDE4F88835B
:10FA90009983AA83BB83C052D14022503040F1F6F3
:10FAA00036C0C05EDE4F288139814A815B81C052F9
:10FAB000D1400894C108D108760100E010E0089414
:10FAC000C11CD11C0894E11CF11C011D111DE20E8A
:10FAD000F31E041F151F21BDBB27A52F942F832FB5
:10FAE00082BD2F5F3F4F4F4F5F4FF89A80B5DB01CC
:10FAF0008D93BD012E153F054007510761F7C05E8C
:10FB0000DE4F288339834A835B83C052D1409601FC
:10FB10002D5F3F4FFB01108204C080EC8A8322E0FE
:10FB200030E08BE18093C6008091C00086FFFCCF5F
:10FB30008091C00080648093C000C15DDE4FF88179
:10FB4000CF52D140F093C6008091C00086FFFCCF19
:10FB50008091C00080648093C000432F3093C60022
:10FB60008091C00086FFFCCF8091C00080648093AC
:10FB7000C000922F2093C6008091C00086FFFCCF6A
:10FB80008091C00080648093C0008EE08093C600A6
:10FB90008091C00086FFFCCF8091C000806480937C
:10FBA000C00065E1C15DDE4FE880CF52D1406E25D7
:10FBB00069276427FE01319610C090819093C6009A
:10FBC0008091C00086FFFCCF31968091C000806498
:10FBD0008093C0006927215030402115310569F715
:10FBE0006093C6008091C00086FFFCCF8091C0006A
:10FBF00080648093C00085B1805885B9772081F4F6
:10FC0000C15DDE4F0881CF52D1400F5FC15DDE4F35
:10FC10000883CF52D14090E0A0E0B0E00D941AF4F8
:10FC200027982F9880E090E020ED37E0F901319798
:10FC3000F1F7019684369105C9F700008091C00064
:10FC40008D7F8093C00081E180935700E895EE2777
:10FC5000FF270994FFCF90E00D941AF497FB092E2B
:10FC600007260AD077FD04D02ED006D000201AF443
:10FC7000709561957F4F0895F6F7909581959F4F08
:10FC80000895A1E21A2EAA1BBB1BFD010DC0AA1FDD
:10FC9000BB1FEE1FFF1FA217B307E407F50720F0F5
:10FCA000A21BB30BE40BF50B661F771F881F991F70
:10FCB0001A9469F760957095809590959B01AC01B9
:10FCC000BD01CF010895AA1BBB1B51E107C0AA1FAC
:10FCD000BB1FA617B70710F0A61BB70B881F991FED
:10FCE0005A95A9F780959095BC01CD010895F99991
:10FCF000FECF92BD81BDF89A992780B50895262F31
:10FD0000F999FECF1FBA92BD81BD20BD0FB6F89400
:0EFD1000FA9AF99A0FBE01960895F894FFCF63
:040000033000E000E9
:00000001FF
